:100000000C9479000C94A1000C94A1000C94A10014
:100010000C94A1000C94A1000C94A1000C94A100DC
:100020000C94A1000C94A1000C94A1000C94A100CC
:100030000C94A1000C94A1000C94A1000C94A100BC
:100040000C9455030C94A1000C94820B0C945C0B43
:100050000C94A1000C94A1000C94A1000C94A1009C
:100060000C94A1000C94A10062746E5F6F6E004846
:10007000616E646C6572206E6F7420666F756E645D
:1000800020666F722055524C3A0000000000240098
:1000900027002A002F537465726F77616E69652E91
:1000A00068746D6C2E6A736F6E000000000025008E
:1000B00028002B00040404040404040402020202C5
:1000C000020203030303030301020408102040801B
:1000D000010204081020010204081020000000089A
:1000E00000020100000304070000000000000000FF
:1000F000B40B11241FBECFEFD8E0DEBFCDBF12E09E
:10010000A0E0B1E0E4EDF0E202C005900D92A03471
:10011000B107D9F723E0A0E4B2E001C01D92A73AED
:10012000B207E1F710E0C9E7D0E004C02197FE0173
:100130000E94F90DC837D107C9F70E942A0C0C9408
:1001400068100C9400003FB7F8948091420290919F
:100150004302A0914402B091450226B5A89B05C078
:100160002F3F19F00196A11DB11D3FBFBA2FA92F36
:10017000982F8827820F911DA11DB11DBC01CD01B3
:1001800042E0660F771F881F991F4A95D1F708959F
:10019000DC011296ED91FC9113973097F1F02D91BF
:1001A0003C91119721153105B1F014964D915C9158
:1001B0001597CA019595879540FF0AC0D901A80FE8
:1001C000B91F4D915C91E40FF51F0190F081E02D76
:1001D000820F931F0994CB0109940895EF92FF9227
:1001E0000F931F93CF93DF93EC0188819981EC816A
:1001F000FD81228133818217930760F5EA81FB81BB
:10020000019111912EEF3FEF201B310B7901A3E0FB
:10021000EA22FF24FB83EA83019699838883CB013A
:100220009A010417150708F49801260F371F821743
:10023000930729F04191DC014D93CD01F8CF97014F
:10024000200F311F8A819B81280F391F3B832A830E
:10025000C80102C08FEF9FEFDF91CF911F910F91E7
:10026000FF90EF900895CF93DF93FC0180819181FF
:10027000A481B58112962D913C9113978217930713
:10028000E0F4A281B3814D915D91B383A283019685
:1002900091838083EB01B983A8832EEF3FEF241B6A
:1002A000350B23703327240F351F82819381280F4C
:1002B000391F33832283CA0102C08FEF9FEFDF9182
:1002C000CF9108954627342F252FA901442784E094
:1002D000440F551F8A95E1F742275327CA01892FFA
:1002E000992782958F7048275927CA01882735E0BA
:1002F000969587953A95E1F7842795270895EF928B
:10030000FF920F931F93CF93DF937C01C901EB0101
:100310008B01040F151FC017D10731F06991AC0193
:10032000C7010E946201F7CFDF91CF911F910F911A
:10033000FF90EF900895CF93DF93EC018A859B8522
:10034000603CA1F06B3D21F5DC01ED91FC91019049
:10035000F081E02D6BED09958A859B85DC01ED919F
:10036000FC910190F081E02D6DED18C0DC01ED9164
:10037000FC910190F081E02D6BED09958A859B85BC
:10038000DC01ED91FC910190F081E02D6CED06C057
:10039000DC01ED91FC910190F081E02DDF91CF9196
:1003A0000994EF92FF920F931F93CF93DF937C01F9
:1003B000EB018B01040F151FC017D10729F06991BC
:1003C000C7010E949B01F8CFDF91CF911F910F9140
:1003D000FF90EF9008950F931F93CF93DF936115D4
:1003E000710529F18B01EC01BC01645F7F4F42E094
:1003F00050E0C8010E94EE00EC81FD8184858823D5
:1004000071F066E171E0808191810E94DC0A6C8567
:100410007D85EC81FD81808191810E94910ABE01E0
:10042000605F7F4FC8010E9433019F878E87DF91F5
:10043000CF911F910F910895CF93DF931F92CDB766
:10044000DEB7DC011496ED91FC9115972281338182
:100450002130310549F541E050E0BE016F5F7F4F2B
:100460000E94EE008981853051F461E271E08EE5F1
:1004700092E00E94CA0A81E08093400215C060E3C6
:1004800071E08EE592E00E94DC0A498150E060E074
:1004900070E02AE08EE592E00E94440A8EE592E048
:1004A0000E948D0A109240020F90DF91CF91089523
:1004B0008F929F92AF92BF92CF92DF92EF92FF9274
:1004C0001F93CF93DF93CDB7DEB72C970FB6F89479
:1004D000DEBF0FBECDBF6C011A8219821C821B8247
:1004E0001E821D820097D9F0FC0101900020E9F7DF
:1004F00031977F01E81AF90AB701CE0101960E94EF
:10050000E309811105C0CE0101960E940A0A07C0C5
:10051000FE82ED82B60189819A810E941A101886A6
:100520001F821A8619861C861B8668E670E0CE013B
:1005300007960E941C0A2D813E818B859C85EF8049
:10054000F8842817390721F589819A81009719F0D5
:10055000E114F104B9F4E114F10459F02115310565
:1005600041F0F701208130E088279927821B930B07
:100570000CC0009779F0232B69F0FC019081892F42
:1005800090E003C0B7010E94111011E0892B19F00F
:1005900010E001C011E0C7010E94940E112319F070
:1005A00080E00E949B0961E471E08EE592E00E9488
:1005B000CA0A0E94A3004B015C0188EEC82E83E0AA
:1005C000D82EE12CF12C0E94A300DC01CB0188196C
:1005D0009909AA09BB09883E9340A105B10558F0C5
:1005E000F1E0CF1AD108E108F10828EE820E23E0ED
:1005F000921EA11CB11CC114D104E104F10419F72D
:1006000081E00E949B0989819A810E94940E2C9618
:100610000FB6F894DEBF0FBECDBFDF91CF911F9113
:10062000FF90EF90DF90CF90BF90AF909F908F9012
:100630000895CF93DF9390E0FC01E853FF4F24919E
:10064000FC01EC54FF4F8491882361F190E0880F06
:10065000991FFC01E657FF4FC591D491FC01E65567
:10066000FF4FA591B491611109C09FB7F89488819B
:10067000209582238883EC912E230BC0623061F495
:100680009FB7F8943881822F809583238883EC91DB
:100690002E2B2C939FBF06C08FB7F894E8812E2B8A
:1006A00028838FBFDF91CF9108951F920F920FB6CD
:1006B0000F9211242F933F938F939F93AF93BF93E8
:1006C0008091460290914702A0914802B091490260
:1006D0003091410223E0230F2D3720F40196A11D14
:1006E000B11D05C026E8230F0296A11DB11D209360
:1006F00041028093460290934702A0934802B09330
:1007000049028091420290914302A0914402B0912B
:1007100045020196A11DB11D8093420290934302B0
:10072000A0934402B0934502BF91AF919F918F91E6
:100730003F912F910F900FBE0F901F901895CF9360
:10074000DF93EC01BC01635F7F4F42E050E00E9409
:10075000D1018A859B85DC01ED91FC910190F081AE
:10076000E02D60ECDF91CF910994CF92DF92EF9270
:10077000FF920F931F93CF93DF9300D0CDB7DEB7D7
:100780008C017B015A83498342E050E0BE016F5FD8
:100790007F4F0E94D101F8012585368542E050E067
:1007A000BE016F5F7F4FC8010E947F01F8019687ED
:1007B0008587C980DA80CE0CDF1CEC14FD0491F033
:1007C000F7016081C8010E949B01F80145855685AB
:1007D000F70161917F01C8010E946201F8019687CB
:1007E0008587EBCFE980FA80F194E194F108F3E09A
:1007F000EF22FF24F1E0EF1AF10878F060E0C80181
:100800000E949B01F8014585568560E0C8010E9461
:100810006201F80196878587EDCF0F900F90DF91E9
:10082000CF911F910F91FF90EF90DF90CF9008959F
:10083000EF92FF920F931F93CF93DF93CDB7DEB765
:1008400028970FB6F894DEBF0FBECDBF7C017A8328
:1008500069832B833C834D835E8318870F83DC0180
:100860001E961C921E921D971A968D919C911B9715
:10087000DC01ED91FC910190F081E02D60EC099597
:1008800042E050E0BE016F5F7F4FC7010E94D1017F
:10089000F7012585368542E050E0BE016F5F7F4F4E
:1008A000C7010E947F01D7011E969C938E931D97CE
:1008B00042E050E0BE01695F7F4FC7010E94D10155
:1008C000F7012585368542E050E0BE01695F7F4F24
:1008D000C7010E947F01D7011E969C938E931D979E
:1008E00044E050E0BE016D5F7F4FC7010E94D1011F
:1008F000F7012585368544E050E0BE016D5F7F4FEE
:10090000C7010E947F01D7011E969C938E931D976D
:1009100028960FB6F894DEBF0FBECDBFDF91CF9102
:100920001F910F91FF90EF9008952F923F924F9259
:100930005F926F927F928F929F92AF92BF92CF926F
:10094000DF92EF92FF920F931F93CF93DF93CDB778
:10095000DEB728970FB6F894DEBF0FBECDBF8C016F
:100960002DB73EB738872F83E0904A02F0904B02B4
:1009700042E050E0BE016B5F7F4F0E94EE00AD8011
:10098000BE80370132E0630E711C44E050E0B301D9
:10099000C8010E94EE00270186E0480E511C42E08B
:1009A00050E0B201C8010E94EE00BE016D5F7F4FB2
:1009B000C8010E9433014C01D7011896CD90DC90FC
:1009C00019972B803C80C114D10449F1F601848130
:1009D00095818815990541F460817181A401C10157
:1009E0000E94FB0F892B31F0D6015E96CD90DC90F2
:1009F0005F97E9CFB2E0AB16B10409F449C01CF42B
:100A0000B7FEC3C0F8C0F3E0AF16B10409F0F3C0FD
:100A100084E0882E912CE2E1CE0ED11C66C0D70175
:100A2000ED91FC918485882309F4E5C0C080D180D4
:100A30000FE610E0F8016491611103C000E010E0DE
:100A40000DC0D601ED91FC910190F081E02DC60121
:100A500009950F5F1F4F892B69F7F0CFD701ED91F3
:100A6000FC91808191810815190579F0DC01ED91E7
:100A7000FC91AB81BC81A00FB11F0190F081E02DF2
:100A80006C9109950F5F1F4FE9CF0E948D0AB3C08B
:100A90002DB63EB6BE016F5F7F4FC8010E94330185
:100AA0008C010196EDB7FEB7E81BF90B0FB6F89471
:100AB000FEBF0FBEEDBF2DB73EB72F5F3F4F4901C1
:100AC00069817A81A801C9010E940810F401E00F30
:100AD000F11F1082B401C60148960E94C8000FB6EB
:100AE000F8943EBE0FBE2DBE50C0D8011496ED91B5
:100AF000FC911597828193818816990608F07BC036
:100B0000BE016F5F7F4FC8010E94330149805A8048
:100B1000D2011196FD0101900020E9F731975F01A4
:100B2000AA1ABB0A3C016A187B08C30101970E94FC
:100B3000FF0DD7011B969C938E931A97A3014250E9
:100B40005109FC01E40FF51F1082B5016E5F7F4F64
:100B5000640D751D1A968D919C911B970E9408102B
:100B600069817A816F5F7F4FC6010E94C800F701DB
:100B7000828593850E94940ED7011B961C921E922B
:100B80001A97BFEF8B1A9B0AB0CF0FEF10E024E645
:100B900030E040E050E06FE170E0F701808191814A
:100BA0000E94180444E050E0B301D7018D919C915C
:100BB0000E94B50342E050E0B201F70180819181CB
:100BC0000E94B503D6016D917C91C601AB2811F44A
:100BD000069601C00C960E94C80040E050E060E01C
:100BE00070E0F701808191810E94B503D7018D915A
:100BF0009C910E949F03EF81F8850FB6F894FEBF89
:100C00000FBEEDBF28960FB6F894DEBF0FBECDBF66
:100C1000DF91CF911F910F91FF90EF90DF90CF90D8
:100C2000BF90AF909F908F907F906F905F904F900C
:100C30003F902F9008950F931F93CF93DF9300D091
:100C400000D0CDB7DEB76FE671E08EE592E00E948E
:100C5000CA0A0E94DE0A811103C068E871E0F5CF7C
:100C60006FE971E08EE592E00E94CA0A01E010E0AF
:100C700020E030E0A9016EE170E080914C0290919B
:100C80004D020E94180488E592E0092E000CAA0B80
:100C9000BB0B89839A83AB83BC8344E050E0BE01E5
:100CA0006F5F7F4F80914C0290914D020E94B5037F
:100CB00080914C0290914D020E949F030F900F90E3
:100CC0000F900F90DF91CF911F910F9108958F9208
:100CD0009F92AF92BF92DF92EF92FF920F931F937A
:100CE000CF93DF9300D000D000D0CDB7DEB78C011A
:100CF000DD24D394D8011A968D919C911B97DC0129
:100D0000ED91FC910480F581E02D0995892B09F482
:100D10008AC1D8011A968D919C911B97DC01ED91A7
:100D2000FC910680F781E02D09958B3D910519F422
:100D3000F801D58ADFCFD80153962D913C91549775
:100D4000803C910509F04AC12830310508F437C1CB
:100D5000F801E784F0888485882309F484C061EB76
:100D600071E0808191810E94DC0AD80153964D91F7
:100D70005C91549760E070E02AE08D919C910E9414
:100D8000440A6BEB71E0F801808191810E94DC0ADA
:100D9000D8011F964D915C915097052E000C660B63
:100DA000770B20E18D919C910E94440A6FED71E0D8
:100DB000F801808191810E94DC0AD7014D915C91FC
:100DC00060E070E020E1F801808191810E94440A96
:100DD00060EE71E0D8018D919C910E94DC0AF701D0
:100DE000448155816681778120E1D8018D919C9164
:100DF0000E94440A60EE71E0F801808191810E94B6
:100E0000DC0AD70112964D915C91139760E070E077
:100E100020E1F801808191810E94440A48E0A42EDB
:100E2000B12CF8012389348980819181A216B306FF
:100E3000C0F460EE71E00E94DC0AD8011F96ED91CB
:100E4000FC915097EA0DFB1D408150E060E070E09E
:100E500020E18D919C910E94440ABFEFAB1ABB0A1E
:100E6000E0CF0E948D0AD8015396AD90BC90549764
:100E7000B2E0AB1AB108F8018784908820E030E036
:100E8000A501B401C8010E947F01F401EA0DFB1D18
:100E9000208131818217930761F0D8011C968C91D3
:100EA0001C97882309F48BC06EEB71E08D919C91A7
:100EB00084C0F701808191818230910539F08330BF
:100EC000910519F1019709F070C05FC0D8011C9617
:100ED0008C911C97882309F474C06FEC71E08D919C
:100EE0009C910E94DC0AF801A080B180D701149681
:100EF0004D915D916D917C9117972AE0C5010E94FB
:100F0000440AC5010E948D0A5CC0F80184858823CB
:100F100059F168ED71E0808191810E94DC0AD7016E
:100F200014964D915D916D917C9117972AE0F8018F
:100F3000808191810E94440A60EE71E0D8018D9118
:100F40009C910E94DC0AF801A080B180D701129622
:100F50004D915C91139760E070E02AE0C5010E941A
:100F6000440AC5010E948D0AF701A481B5818D91C3
:100F70009C911197009709F059C012962D913C91C0
:100F80001397232B09F052C01AC062EE71E0D8010A
:100F90008D919C910E94CA0AD8011896ED91FC91FE
:100FA0001997309761F009950AC0F8018485882364
:100FB00031F06DEE71E0808191810E94CA0AE12CCE
:100FC000F12CD80154961C921E92539755961C9260
:100FD000E114F10409F48ECEC70158C0F801458927
:100FE000442371F08C3D910531F08D3D910529F43C
:100FF0008BED90E002C080EC90E0D80155961C92F9
:10100000F801418952892417350708F073CE4785C6
:101010005089B9016F5F7F4F748B638BFA01E20FC8
:10102000F31F808367CE80E090E030C0FE82ED82C7
:10103000E8E0EE0EF11CFC82EB821A821982129615
:10104000ED91FC911397309709F4B9CF0097D1F047
:1010500014962D913C911597A9015595479520FF20
:101060000AC0DC01A40FB51F2D913C91E20FF31FC4
:101070000190F081E02DBE016F5F7F4F840F951FBF
:1010800009959DCFCE010196099599CF26960FB669
:10109000F894DEBF0FBECDBFDF91CF911F910F91AE
:1010A000FF90EF90DF90BF90AF909F908F9008954A
:1010B000CF92DF92EF92FF920F931F93CF93DF9324
:1010C0006C017A018B01C0E0D0E0CE15DF0589F01C
:1010D000D8016D918D01D601ED91FC910190F081C7
:1010E000E02DC6010995892B11F47E0102C02196DD
:1010F000ECCFC701DF91CF911F910F91FF90EF903F
:10110000DF90CF900895FC01918D828D981761F04A
:10111000828DDF01A80FB11D5D968C91928D9F5F2E
:101120009F73928F90E008958FEF9FEF0895FC01D9
:10113000918D828D981731F0828DE80FF11D858D8C
:1011400090E008958FEF9FEF0895FC01918D228D1F
:10115000892F90E0805C9F4F821B91098F739927A4
:1011600008958EE592E00E94A50821E0892B09F4FC
:1011700020E0822F0895FC01848DDF01A80FB11DAE
:10118000A35ABF4F2C91848D90E001968F739927BD
:10119000848FA689B7892C93A089B1898C918064AA
:1011A0008C93938D848D981306C00288F389E02D6B
:1011B00080818F7D80830895EF92FF920F931F931C
:1011C000CF93DF93EC0181E0888F9B8D8C8D9813FA
:1011D00005C0E889F989808185FD24C0F62E0B8D34
:1011E00010E00F5F1F4F0F731127E02E8C8DE81258
:1011F0000CC00FB607FCFACFE889F989808185FF1A
:10120000F5CFCE010E94BB08F1CF8B8DFE01E80F18
:10121000F11DE35AFF4FF0820B8FEA89FB89808131
:10122000806207C0EE89FF896083E889F98980813F
:101230008064808381E090E0DF91CF911F910F91D6
:10124000FF90EF900895CF93DF93EC01888D882372
:10125000C9F0EA89FB89808185FD05C0A889B98923
:101260008C9186FD0FC00FB607FCF5CF808185FFFE
:10127000F2CFA889B9898C9185FFEDCFCE010E946C
:10128000BB08E7CFDF91CF91089580E090E0892BF4
:1012900029F00E94B10881110C9400000895CF92AA
:1012A000DF92EF92FF92CF93DF93EC018FB7F89428
:1012B000C0904602D0904702E0904802F090490268
:1012C0008FBF8FB7F89440914602509147026091CA
:1012D0004802709149028FBF4C195D096E097F0960
:1012E000403D57406105710530F4CE010E9467060C
:1012F000009739F302C080E090E0DF91CF91FF903A
:10130000EF90DF90CF9008956115710579F0FB01A2
:1013100001900020E9F73197AF01461B570BDC0124
:10132000ED91FC910280F381E02D099480E090E042
:1013300008950E94F60FECEEF0E02491E8EDF0E065
:101340009491E4ECF0E0E491EE2309F43BC0222315
:1013500039F1233091F038F42130A9F0223001F531
:1013600024B52F7D12C0273091F02830A1F0243011
:10137000B9F4209180002F7D03C0209180002F7749
:10138000209380000DC024B52F7724BD09C0209183
:10139000B0002F7703C02091B0002F7D2093B000C4
:1013A000F0E0EE0FFF1FE655FF4FA591B4912FB768
:1013B000F894EC91811103C090959E2301C09E2B5F
:1013C0009C932FBF08950F931F93CF93DF93EC014E
:1013D00088819981009729F02A813B812617370758
:1013E00088F48B016F5F7F4F0E942C0F009761F094
:1013F000998388831B830A832C813D81232B11F4DD
:10140000FC01108281E001C080E0DF91CF911F914B
:101410000F910895CF93DF93EC0188819981009714
:1014200011F00E94940E198218821D821C821B8268
:101430001A82DF91CF910895EF92FF920F931F933D
:10144000CF93DF93EC018B016115710551F0CB0156
:101450000E9428107C01BC01CE010E94E309811189
:1014600004C0CE010E940A0A07C0FD82EC82B801C6
:10147000888199810E942110CE01DF91CF911F9127
:101480000F91FF90EF9008954F925F926F927F922D
:10149000EF92FF920F931F93CF93DF93CDB7DEB7F9
:1014A000A1970FB6F894DEBF0FBECDBF7C01FA0145
:1014B000CB0119A2223008F42AE08E010F5D1F4FE4
:1014C000422E512C612C712CBF01A30192010E946C
:1014D000D70DF901CA01015011096A3014F4605D99
:1014E00001C0695CD8016C93232B242B252B61F759
:1014F000B801C7010E948409A1960FB6F894DEBF17
:101500000FBECDBFDF91CF911F910F91FF90EF9054
:101510007F906F905F904F90089563EF71E00C940F
:101520008409CF92DF92EF92FF920F931F93CF9394
:10153000DF93EC016B01770FEE08FF08F7FE16C092
:10154000E881F9810190F081E02D6DE209958C012F
:1015500044275527BA014C195D096E097F092AE015
:10156000CE010E94440A080F191F06C02AE0B701E5
:10157000A6010E94440A8C01CE010E948D0A800FB0
:10158000911FDF91CF911F910F91FF90EF90DF900E
:10159000CF9008950F931F93CF93DF93EC010E9498
:1015A00084098C01CE010E948D0A800F911FDF916A
:1015B000CF911F910F9108950C948409AF92BF921F
:1015C000CF92DF92EF92FF920F931F93CF93DF930F
:1015D0008091050390910603DC01ED91FC9101904F
:1015E000F081E02D60EC09958DEF92E06C01990F90
:1015F000EE08FF0800E010E0A701960161E070E04E
:101600008BEF92E00E9418048BEF92E00E949F0300
:10161000009103031091040310920403109203033A
:101620008BEF92E00E944F09EC01892BA9F14C81CC
:101630005D816E817F81809107034C155D056E058C
:101640007F0581F4882341F067EE71E08091FB0211
:101650009091FC020E94CA0A1093040300930303B2
:1016600081E01FC08823E1F266EF71E08091FB0208
:101670009091FC020E94DC0AA090FB02B090FC0258
:101680004C815D816E817F812AE0C5010E94440A00
:10169000C5010E948D0AC4CF109304030093030375
:1016A00080E0DF91CF911F910F91FF90EF90DF903D
:1016B000CF90BF90AF9008951F920F920FB60F92E8
:1016C00011242F933F934F935F936F937F938F9347
:1016D0009F93AF93BF93EF93FF938EE592E00E94A9
:1016E000BB08FF91EF91BF91AF919F918F917F9137
:1016F0006F915F914F913F912F910F900FBE0F907F
:101700001F9018951F920F920FB60F9211242F93CE
:101710008F939F93EF93FF93E0916E02F0916F028E
:101720008081E0917402F091750282FD12C0908177
:10173000809177028F5F8F7320917802821751F02A
:10174000E0917702F0E0E25AFD4F958F80937702A7
:1017500001C08081FF91EF919F918F912F910F9008
:101760000FBE0F901F901895EEE5F2E013821282E3
:1017700088EE93E0A0E0B0E084839583A683B783EE
:101780008AE091E09183808385EC90E0958784875F
:1017900084EC90E09787868780EC90E0918B808B3B
:1017A00081EC90E0938B828B82EC90E0958B848B24
:1017B00086EC90E0978B868B118E128E138E148E92
:1017C000ABEFB2E01196FC93EE9313961C921E922F
:1017D000129715961C921E9214971B96FC93EE93EB
:1017E0001A9781E01C968C931C9781E193E05096A8
:1017F0009C938E931F9780E890E052969C938E93D3
:10180000519754961C921E92539755961C92559739
:10181000E1E9F3E01782168211861086B583A4836E
:101820004FEF5FEFBA014083518362837383ECE42F
:10183000F2E0B183A0831186108613861286158686
:101840001486F0934B02E0934A0285E994E097876F
:1018500086870895CF93DF93CDB7DEB727970FB66E
:10186000F894DEBF0FBECDBF789484B5826084BD8E
:1018700084B5816084BD85B5826085BD85B5816094
:1018800085BD80916E00816080936E001092810012
:1018900080918100826080938100809181008160CD
:1018A000809381008091800081608093800080918E
:1018B000B10084608093B1008091B000816080931A
:1018C000B00080917A00846080937A0080917A00E1
:1018D000826080937A0080917A00816080937A00A0
:1018E00080917A00806880937A001092C100E09124
:1018F0006E02F0916F0282E08083E0916A02F091C3
:101900006B021082E0916C02F0916D028FEC80838B
:1019100010927602E0917202F091730286E0808369
:10192000E0917002F0917102808180618083E0918A
:101930007002F0917102808188608083E091700272
:10194000F0917102808180688083E0917002F09153
:10195000710280818F7D80836CEF71E08EE592E073
:101960000E94CA0A62E08EE00E94190362E08FE0E2
:101970000E94190361E080E10E94190381E00E9446
:101980009B098CE192E0909300038093FF020E94F8
:10199000DE0A811107C068E871E08EE592E00E94DE
:1019A000CA0AF5CF6FE971E08EE592E00E94CA0A9B
:1019B0001A8219821C821B821E821D8264E970E0D9
:1019C000CE0101960E941C0A80E290E00E94FF0D69
:1019D0008C0180E2F80111928A95E9F7F8011182F1
:1019E0001082138212821582148260E070E0C801B6
:1019F0000E94E309811104C0C8010E940A0A09C0BB
:101A0000F8011582148265EF71E0808191810E9456
:101A10001A10F80117821682118610861586148610
:101A200017861686138A128A158A148A118E108ECA
:101A3000138E128ECE0101967C0108171907C9F08A
:101A4000C980DA80C114D10489F0AD80BE80B501AF
:101A5000C8010E94E309882349F0F801B582A482F5
:101A6000B601808191810E941A1003C0C8010E94B2
:101A70000A0A8091540290915502F801978F868F3F
:101A8000109355020093540289819A810E94940E0A
:101A900088E592E0F801938F828F8BE196E0909336
:101AA0000403809303030E941B0680E99FE19A834D
:101AB00089831F8281E993E0909398038093970331
:101AC0008BEE91E090939A038093990310929C037C
:101AD00010929B0303E010E027E933E0032E000C93
:101AE000440B550B64E170E080919503909196034F
:101AF0000E9418044CE050E060E172E08091950390
:101B0000909196030E94B50342E050E0B7018091A6
:101B10009503909196030E94B50341E050E0BE0109
:101B2000695F7F4F80919503909196030E94B50362
:101B300080919503909196030E949F038091950355
:101B4000909196030E944F09009791F0FC01448107
:101B500055816681778177FD0BC040939103509347
:101B60009203609393037093940300E010E003C02A
:101B7000FC01048115810115110561F06DE172E030
:101B80008EE592E00E94DC0AB8018EE592E00E94A8
:101B9000910AFFCF61E372E08EE592E00E94CA0AEB
:101BA0008BEF92E00E9467060E944509F9CFA1E2FF
:101BB0001A2EAA1BBB1BFD010DC0AA1FBB1FEE1FC7
:101BC000FF1FA217B307E407F50720F0A21BB30B12
:101BD000E40BF50B661F771F881F991F1A9469F78E
:101BE00060957095809590959B01AC01BD01CF01EA
:101BF0000895EE0FFF1F0590F491E02D0994CF9307
:101C0000DF938230910510F482E090E0E091A5032B
:101C1000F091A60320E030E0C0E0D0E0309711F171
:101C20004081518148175907C0F04817590761F49E
:101C300082819381209719F09B838A832BC0909394
:101C4000A6038093A50326C02115310519F042177C
:101C5000530718F49A01BE01DF01EF010280F381FE
:101C6000E02DDCCF2115310509F1281B390B24307B
:101C7000310590F412968D919C9113976115710521
:101C800021F0FB019383828304C09093A603809389
:101C9000A503FD01329644C0FD01E20FF31F8193BD
:101CA0009193225031092D933C933AC02091A30384
:101CB0003091A403232B41F42091020130910301C0
:101CC0003093A4032093A3032091000130910101DC
:101CD0002115310541F42DB73EB7409104015091D3
:101CE0000501241B350BE091A303F091A403E21737
:101CF000F307A0F42E1B3F0B2817390778F0AC012F
:101D00004E5F5F4F2417350748F04E0F5F1F50930B
:101D1000A4034093A3038193919302C0E0E0F0E019
:101D2000CF01DF91CF9108950F931F93CF93DF934E
:101D3000009709F48CC0FC01329713821282009143
:101D4000A5031091A6030115110581F420813181AD
:101D5000820F931F2091A3033091A4032817390702
:101D600079F5F093A403E093A30371C0D80140E098
:101D700050E0AE17BF0750F412962D913C91139787
:101D8000AD012115310509F1D901F3CF9D01DA012A
:101D90003383228360817181860F971F8217930797
:101DA00069F4EC0128813981260F371F2E5F3F4FE0
:101DB000318320838A819B8193838283452B29F4FD
:101DC000F093A603E093A50342C01396FC93EE9311
:101DD0001297ED01499159919E01240F351FE21789
:101DE000F30771F480819181840F951F02961196FB
:101DF0009C938E938281938113969C938E931297DA
:101E0000E0E0F0E0D80112968D919C911397009735
:101E100019F0F8018C01F6CF8D919C9198012E5FFD
:101E20003F4F820F931F2091A3033091A4032817E3
:101E3000390769F4309729F41092A6031092A5038C
:101E400002C0138212821093A4030093A303DF91B4
:101E5000CF911F910F910895A0E0B0E0E2E3FFE081
:101E60000C943510EC01009721F4CB010E94FF0D7A
:101E7000B8C0FC01E60FF71F9C0122503109E217A0
:101E8000F30708F4ACC0D9010D911C911197061706
:101E90001707B0F00530110508F49FC0C80104977A
:101EA0008617970708F499C002501109061B170BF3
:101EB000019311936D937C93CF010E94940E8DC07A
:101EC0005B01A01AB10A4C01800E911EA091A503DE
:101ED000B091A60340E050E0E12CF12C109709F4FA
:101EE0004AC0A815B905D1F56D907C901197630192
:101EF00082E0C80ED11CCA14DB0480F1A3014A1988
:101F00005B096A0182E0C80ED11C1296BC90129740
:101F10001396AC91B5E0CB16D10440F0B282A38306
:101F200051834083D9016D937C930AC00E5F1F4F8C
:101F3000C301800F911FF90191838083EB2DFA2F4C
:101F4000E114F10431F0D7011396FC93EE9312974C
:101F500044C0F093A603E093A5033FC08D919C91EC
:101F600011974817590708F4AC017D0112960D909E
:101F7000BC91A02DB3CF8091A3039091A4038815A9
:101F80009905E1F446175707C8F480910001909134
:101F90000101009741F48DB79EB740910401509123
:101FA0000501841B950BE817F907C8F4F093A40307
:101FB000E093A303F901718360830FC0CB010E94FA
:101FC000FF0D7C01009759F0A801BE010E94081086
:101FD000CE010E94940EC70104C0CE0102C080E071
:101FE00090E0CDB7DEB7EEE00C94511081E090E0C8
:101FF000F8940C946810FB01DC0104C08D910190F1
:10200000801921F441505040C8F7881B990B08955E
:10201000FB01DC0102C001900D9241505040D8F705
:102020000895FB01DC018D91019080190110D9F315
:10203000990B0895FB01DC0101900D920020E1F75E
:102040000895FB01DC0105900D920020E1F7089551
:10205000FC0105900020E9F7809590958E0F9F1F59
:1020600008952F923F924F925F926F927F928F923C
:102070009F92AF92BF92CF92DF92EF92FF920F9317
:102080001F93CF93DF93CDB7DEB7CA1BDB0B0FB621
:10209000F894DEBF0FBECDBF09942A8839884888DE
:1020A0005F846E847D848C849B84AA84B984C88474
:1020B000DF80EE80FD800C811B81AA81B981CE0F6B
:1020C000D11D0FB6F894DEBF0FBECDBFED01089550
:0420D000F894FFCFB2
:1020D4000000A703800000000000DC085808A508E1
:1020E4008308970823095245535420636F6465207D
:1020F400005749464920434F4E4E454354454400FA
:1021040057494649204E4F542052454144593A209C
:1021140000576369736E6965746F2070727A7963AE
:1021240069736B207A616D796B616E69612F6F746D
:1021340077696572616E6961206272616D790045CB
:102144004C2D436C69656E74202872652D29737457
:10215400617274696E672100454C2D436C69656E2C
:10216400742073796E63206661696C65642100452F
:102174004C2D436C69656E742073796E63656421BC
:1021840000454C433A20676F742000204000454CC2
:10219400433A20496E76616C69642043524300528D
:1021A4004553505F563A2000524553505F43423ADC
:1021B40020004E4545445F53594E432100434D444E
:1021C4003F3F000D0A004241443A2000454C2D4354
:1021D4006C69656E74207374617274696E67210032
:1021E4003139322E3136382E312E353500524553A1
:1021F4005420626567696E206661696C65643A2083
:1022040000454C2D52455354207265616479000099
:107800000C94343C0C94513C0C94513C0C94513CE1
:107810000C94513C0C94513C0C94513C0C94513CB4
:107820000C94513C0C94513C0C94513C0C94513CA4
:107830000C94513C0C94513C0C94513C0C94513C94
:107840000C94513C0C94513C0C94513C0C94513C84
:107850000C94513C0C94513C0C94513C0C94513C74
:107860000C94513C0C94513C11241FBECFEFD8E036
:10787000DEBFCDBF11E0A0E0B1E0ECE9FFE702C060
:1078800005900D92A230B107D9F712E0A2E0B1E065
:1078900001C01D92AD30B107E1F70E942D3D0C945F
:1078A000CC3F0C94003C982F959595959595959582
:1078B000905D8F708A307CF0282F295A8091C0000B
:1078C00085FFFCCF9093C6008091C00085FFFCCF60
:1078D0002093C6000895282F205DF0CF982F809127
:1078E000C00085FFFCCF9093C6000895EF92FF92F1
:1078F0000F931F93EE24FF2487018091C00087FD22
:1079000017C00894E11CF11C011D111D81E4E8164B
:1079100082E4F8068FE0080780E0180770F3E09132
:107920000401F091050109958091C00087FFE9CF1E
:107930008091C6001F910F91FF90EF9008950E94D3
:10794000763C982F8091C00085FFFCCF9093C600B5
:1079500091362CF490330CF09053892F089597555D
:10796000892F08951F930E949F3C182F0E949F3CCF
:107970001295107F810F1F9108951F93182F882350
:1079800021F00E94763C1150E1F71F9108951F935A
:10799000182F0E94763C803249F0809103018F5F5E
:1079A000809303018530C1F01F9108958091C0003C
:1079B00085FFFCCF84E18093C6008091C00085FFE5
:1079C000FCCF1093C6008091C00085FFFCCF80E102
:1079D0008093C6001F910895E0910401F091050184
:1079E00009951F9108950E94763C803241F0809164
:1079F00003018F5F80930301853081F008958091AA
:107A0000C00085FFFCCF84E18093C6008091C00058
:107A100085FFFCCF80E18093C6000895E0910401CA
:107A2000F09105010995089540E951E08823A1F0FE
:107A30002D9A28EE33E0FA013197F1F721503040CA
:107A4000D1F72D9828EE33E0FA013197F1F7215064
:107A50003040D1F7815061F708953F924F925F9285
:107A60006F927F928F929F92AF92BF92CF92DF924E
:107A7000EF92FF920F931F93CF93DF93000080E16B
:107A80008093C4001092C50088E18093C10086E015
:107A90008093C2005098589A259A81E00E94143D24
:107AA00024E1F22E9EE1E92E85E9D82E0FE0C02ECA
:107AB00010E1B12EAA24A394B1E49B2EA6E58A2E50
:107AC000F2E57F2EE0E26E2E79E4572E63E5462E36
:107AD00050E5352E0E94763C8033B1F18133B9F107
:107AE000803409F46FC0813409F476C0823409F41B
:107AF00085C0853409F488C0803531F1823521F1A3
:107B0000813511F1853509F485C0863509F48DC0BC
:107B1000843609F496C0843709F403C1853709F423
:107B200072C1863709F466C0809103018F5F80932C
:107B30000301853079F6E0910401F0910501099582
:107B40000E94763C803351F60E94F33CC3CF0E94E2
:107B5000763C803249F78091C00085FFFCCFF092DF
:107B6000C6008091C00085FFFCCF9092C600809136
:107B7000C00085FFFCCF8092C6008091C00085FFC9
:107B8000FCCF7092C6008091C00085FFFCCF609250
:107B9000C6008091C00085FFFCCF5092C600809146
:107BA000C00085FFFCCF4092C6008091C00085FFD9
:107BB000FCCF3092C6008091C00085FFFCCFB09210
:107BC000C60088CF0E94763C863808F4BDCF0E945C
:107BD000763C0E94F33C7ECF0E94763C803809F4CC
:107BE0009CC0813809F40BC1823809F43CC1883942
:107BF00009F48FC080E00E94C73C6CCF84E10E94F2
:107C0000BD3C0E94F33C66CF85E00E94BD3C0E94D3
:107C1000F33C60CF0E94763C809306010E94763C44
:107C2000809307010E94F33C55CF0E94763C80333D
:107C300009F41DC183E00E94BD3C80E00E94C73C66
:107C400049CF0E94763C809309020E94763C809343
:107C5000080280910C028E7F80930C020E94763C79
:107C6000853409F415C18091080290910902892B8D
:107C700089F000E010E00E94763CF801E85FFE4FDA
:107C800080830F5F1F4F80910802909109020817AF
:107C9000190788F30E94763C803209F045CF809125
:107CA0000C0280FF01C16091060170910701660F0F
:107CB000771F7093070160930601A0910802B091AD
:107CC00009021097C9F0E8E0F1E09B01AD014E0F09
:107CD0005F1FF999FECF32BD21BD819180BDFA9A17
:107CE000F99A2F5F3F4FE417F50799F76A0F7B1F4B
:107CF00070930701609306018091C00085FFFCCF5F
:107D0000F092C6008091C00085FFFCCFB092C60003
:107D1000E1CE83E00E94C73CDDCE82E00E94C73CFA
:107D2000D9CE0E94763C809309020E94763C8093D3
:107D300008028091060190910701880F991F909386
:107D40000701809306010E94763C853409F4A6C0A1
:107D500080910C028E7F80930C020E94763C8032D0
:107D600009F0B8CE8091C00085FFFCCFF092C6002C
:107D7000609108027091090261157105B9F140E046
:107D800050E080910C02A82FA170B82FB27011C0E2
:107D9000BB2309F45CC0E0910601F0910701319624
:107DA000F0930701E09306014F5F5F4F46175707B7
:107DB000E8F4AA2369F3F999FECF209106013091E6
:107DC000070132BD21BDF89A90B58091C00085FFB2
:107DD000FCCF9093C6002F5F3F4F30930701209355
:107DE00006014F5F5F4F4617570718F38091C00099
:107DF00085FDE5CE8091C00085FFF8CFE0CE81E023
:107E00000E94C73C67CE0E94763C803209F08CCE3F
:107E10008091C00085FFFCCFF092C6008091C00029
:107E200085FFFCCFE092C6008091C00085FFFCCFAB
:107E3000D092C6008091C00085FFFCCFC092C600E2
:107E40008091C00085FFFCCFB092C60043CEE09188
:107E50000601F091070194918091C00085FFFCCF4D
:107E60009093C6009CCF80E10E94C73C33CE0E9415
:107E7000763C0E94763C182F0E94763C112309F430
:107E800083C0113009F484C08FE00E94C73C22CE29
:107E900080910C02816080930C02E5CE80910C02EF
:107EA000816080930C0259CF809107018823880F4D
:107EB000880B8A2180930B02809106019091070123
:107EC000880F991F90930701809306018091080203
:107ED00080FF09C080910802909109020196909359
:107EE000090280930802F894F999FECF1127E091D6
:107EF0000601F0910701C8E0D1E08091080290915D
:107F00000902103091F40091570001700130D9F34B
:107F100003E000935700E89500915700017001308D
:107F2000D9F301E100935700E89509901990009169
:107F3000570001700130D9F301E000935700E89534
:107F40001395103498F011270091570001700130FB
:107F5000D9F305E000935700E895009157000170B0
:107F60000130D9F301E100935700E895329602976A
:107F700009F0C7CF103011F00296E5CF112480919F
:107F8000C00085FFB9CEBCCE8EE10E94C73CA2CD19
:0C7F900085E90E94C73C9ECDF894FFCF0D
:027F9C00800063
:040000030000780081
:00000001FF
