:100000000C947E000C94A6000C94A6000C94A60000
:100010000C94A6000C94A6000C94A6000C94A600C8
:100020000C94A6000C94A6000C94A6000C94A600B8
:100030000C94A6000C94A6000C94A6000C94A600A8
:100040000C94A1030C94A6000C94180D0C94F20CC3
:100050000C94A6000C94A6000C94A6000C94A60088
:100060000C94A6000C94A60062746E5F6F6E00483C
:10007000616E646C6572206E6F7420666F756E645D
:1000800020666F722055524C3A0000000000240098
:1000900027002A00000000002300260029002F531B
:1000A0007465726F77616E69652E68746D6C2E6A07
:1000B000736F6E0000000000250028002B00040470
:1000C0000404040404040202020202020303030300
:1000D00003030102040810204080010204081020DC
:1000E00001020408102000000008000201000003C3
:1000F00004070000000000000000730D11241FBE63
:10010000CFEFD8E0DEBFCDBF14E0A0E0B1E0E6E67F
:10011000F4E202C005900D92A030B107D9F725E0B6
:10012000A0E0B4E001C01D92A836B207E1F710E0EC
:10013000CEE7D0E004C02197FE010E94C20FCD3768
:10014000D107C9F70E94E90D0C9431120C940000FC
:100150003FB7F8948091070490910804A091090496
:10016000B0910A0426B5A89B05C02F3F19F001964F
:10017000A11DB11D3FBFBA2FA92F982F8827820F2D
:10018000911DA11DB11DBC01CD0142E0660F771F7D
:10019000881F991F4A95D1F70895DC011296ED91B9
:1001A000FC9113973097F1F02D913C911197211507
:1001B0003105B1F014964D915C911597CA01959552
:1001C000879540FF0AC0D901A80FB91F4D915C91D6
:1001D000E40FF51F0190F081E02D820F931F099429
:1001E000CB0109940895EF92FF920F931F93CF9341
:1001F000DF93EC0188819981EC81FD81228133813B
:100200008217930760F5EA81FB81019111912EEF2E
:100210003FEF201B310B7901A3E0EA22FF24FB838F
:10022000EA83019699838883CB019A010417150705
:1002300008F49801260F371F8217930729F0419180
:10024000DC014D93CD01F8CF9701200F311F8A813A
:100250009B81280F391F3B832A83C80102C08FEF7F
:100260009FEFDF91CF911F910F91FF90EF90089535
:10027000CF93DF93FC0180819181A481B581129697
:100280002D913C91139782179307E0F4A281B381DB
:100290004D915D91B383A283019691838083EB019D
:1002A000B983A8832EEF3FEF241B350B2370332730
:1002B000240F351F82819381280F391F33832283B6
:1002C000CA0102C08FEF9FEFDF91CF9108954627BB
:1002D000342F252FA901442784E0440F551F8A9508
:1002E000E1F742275327CA01892F992782958F70FA
:1002F00048275927CA01882735E0969587953A956A
:10030000E1F7842795270895EF92FF920F931F93AB
:10031000CF93DF937C01C901EB018B01040F151F03
:10032000C017D10731F06991AC01C7010E94670184
:10033000F7CFDF91CF911F910F91FF90EF9008952C
:10034000CF93DF93EC018A859B85603CA1F06B3DE8
:1003500021F5DC01ED91FC910190F081E02D6BED38
:1003600009958A859B85DC01ED91FC910190F081D6
:10037000E02D6DED18C0DC01ED91FC910190F08154
:10038000E02D6BED09958A859B85DC01ED91FC9153
:100390000190F081E02D6CED06C0DC01ED91FC9147
:1003A0000190F081E02DDF91CF910994EF92FF92BF
:1003B0000F931F93CF93DF937C01EB018B01040F0D
:1003C000151FC017D10729F06991C7010E94A0012C
:1003D000F8CFDF91CF911F910F91FF90EF9008958B
:1003E0000F931F93CF93DF936115710529F18B0153
:1003F000EC01BC01645F7F4F42E050E0C8010E9405
:10040000F300EC81FD818485882371F066E171E061
:10041000808191810E94720C6C857D85EC81FD81CB
:10042000808191810E94270CBE01605F7F4FC801CF
:100430000E9438019F878E87DF91CF911F910F9186
:1004400008950F931F93CF93DF931F92CDB7DEB71D
:100450008C0161E271E081E394E00E94720CD801AA
:100460001496ED91FC91159782819381019751F536
:1004700041E050E0BE016F5F7F4FC8010E94F30072
:100480008981853051F463E371E081E394E00E9457
:10049000600C81E08093000415C062E471E081E3A8
:1004A00094E00E94720C498150E060E070E02AE024
:1004B00081E394E00E94C40B81E394E00E940D0C60
:1004C000109200040F90DF91CF911F910F9108952A
:1004D0008F929F92AF92BF92CF92DF92EF92FF9254
:1004E0001F93CF93DF93CDB7DEB72C970FB6F89459
:1004F000DEBF0FBECDBF6C0163E571E081E394E028
:100500000E94720C1A8219821C821B821E821D821A
:10051000C114D104D9F0F60101900020E9F7319718
:100520007F01EC18FD08B701CE0101960E94630B14
:10053000811105C0CE0101960E948A0B07C0FE8280
:10054000ED82B60189819A810E94E31118861F828B
:100550001A8619861C861B8668E670E0CE0107960F
:100560000E949C0B2D813E818B859C85EF80F884B9
:100570002817390721F589819A81009719F0E1142C
:10058000F104B9F4E114F10459F02115310541F0F9
:10059000F701208130E088279927821B930B0CC03C
:1005A000009779F0232B69F0FC019081892F90E06E
:1005B00003C0B7010E94DA1111E0892B19F010E095
:1005C00001C011E0C7010E945D10112319F080E005
:1005D0000E94A30A6DE671E081E394E00E94600C42
:1005E0000E94A8004B015C0188EEC82E83E0D82E43
:1005F000E12CF12C0E94A800DC01CB01881999099B
:10060000AA09BB09883E9340A105B10558F0F1E065
:10061000CF1AD108E108F10828EE820E23E0921EDD
:10062000A11CB11CC114D104E104F10419F781E04B
:100630000E94A30A89819A810E945D102C960FB6B0
:10064000F894DEBF0FBECDBFDF91CF911F91FF9019
:10065000EF90DF90CF90BF90AF909F908F900895D4
:10066000833081F028F4813099F08230A1F0089530
:100670008730A9F08830B9F08430D1F480918000BF
:100680008F7D03C0809180008F77809380000895D4
:1006900084B58F7702C084B58F7D84BD0895809125
:1006A000B0008F7703C08091B0008F7D8093B00041
:1006B0000895CF93DF9390E0FC01EE52FF4F249119
:1006C000FC01E254FF4F8491882361F190E0880F90
:1006D000991FFC01E657FF4FC591D491FC01EC54E2
:1006E000FF4FA591B491611109C09FB7F89488811B
:1006F000209582238883EC912E230BC0623061F415
:100700009FB7F8943881822F809583238883EC915A
:100710002E2B2C939FBF06C08FB7F894E8812E2B09
:1007200028838FBFDF91CF9108952FB7F894609100
:1007300003047091040480910504909106042FBF76
:1007400008951F920F920FB60F9211242F933F938B
:100750008F939F93AF93BF93809103049091040470
:10076000A0910504B09106043091020423E0230F08
:100770002D3720F40196A11DB11D05C026E8230FD9
:100780000296A11DB11D209302048093030490934F
:100790000404A0930504B09306048091070490918B
:1007A0000804A0910904B0910A040196A11DB11D8D
:1007B0008093070490930804A0930904B0930A045B
:1007C000BF91AF919F918F913F912F910F900FBE4D
:1007D0000F901F901895CF93DF93EC01BC01635FDE
:1007E0007F4F42E050E00E94D6018A859B85DC0164
:1007F000ED91FC910190F081E02D60ECDF91CF91C3
:100800000994CF92DF92EF92FF920F931F93CF93B1
:10081000DF9300D0CDB7DEB78C017B015A834983CB
:1008200042E050E0BE016F5F7F4F0E94D601F801A9
:100830002585368542E050E0BE016F5F7F4FC801DD
:100840000E948401F80196878587C980DA80CE0CE2
:10085000DF1CEC14FD0491F0F7016081C8010E94D7
:10086000A001F80145855685F70161917F01C80116
:100870000E946701F80196878587EBCFE980FA80AF
:10088000F194E194F108F3E0EF22FF24F1E0EF1A94
:10089000F10878F060E0C8010E94A001F8014585E8
:1008A000568560E0C8010E946701F8019687858738
:1008B000EDCF0F900F90DF91CF911F910F91FF908F
:1008C000EF90DF90CF900895EF92FF920F931F93D8
:1008D000CF93DF93CDB7DEB728970FB6F894DEBF7E
:1008E0000FBECDBF7C017A8369832B833C834D830C
:1008F0005E8318870F83DC011E961C921E921D9743
:100900001A968D919C911B97DC01ED91FC910190C1
:10091000F081E02D60EC099542E050E0BE016F5F90
:100920007F4FC7010E94D601F7012585368542E039
:1009300050E0BE016F5F7F4FC7010E948401D70165
:100940001E969C938E931D9742E050E0BE01695F16
:100950007F4FC7010E94D601F7012585368542E009
:1009600050E0BE01695F7F4FC7010E948401D7013B
:100970001E969C938E931D9744E050E0BE016D5FE0
:100980007F4FC7010E94D601F7012585368544E0D7
:1009900050E0BE016D5F7F4FC7010E948401D70107
:1009A0001E969C938E931D9728960FB6F894DEBFE3
:1009B0000FBECDBFDF91CF911F910F91FF90EF90B0
:1009C00008952F923F924F925F926F927F928F92F3
:1009D0009F92AF92BF92CF92DF92EF92FF920F93CE
:1009E0001F93CF93DF93CDB7DEB728970FB6F89458
:1009F000DEBF0FBECDBF8C012DB73EB738872F832A
:100A0000E0900B04F0900C0442E050E0BE016B5FFC
:100A10007F4F0E94F300AD80BE80370132E0630E4D
:100A2000711C44E050E0B301C8010E94F3002701AB
:100A300086E0480E511C42E050E0B201C8010E941D
:100A4000F300BE016D5F7F4FC8010E9438014C0169
:100A5000D7011896CD90DC9019972B803C80C1145B
:100A6000D10449F1F601848195818815990541F4F5
:100A700060817181A401C1010E94C411892B31F0F0
:100A8000D6015E96CD90DC905F97E9CFB2E0AB16D1
:100A9000B10409F449C01CF4B7FEC3C0F8C0F3E0C8
:100AA000AF16B10409F0F3C084E0882E912CE2E186
:100AB000CE0ED11C66C0D701ED91FC9184858823B0
:100AC00009F4E5C0C080D1800FE610E0F801649120
:100AD000611103C000E010E00DC0D601ED91FC9162
:100AE0000190F081E02DC60109950F5F1F4F892B02
:100AF00069F7F0CFD701ED91FC91808191810815C4
:100B0000190579F0DC01ED91FC91AB81BC81A00F5E
:100B1000B11F0190F081E02D6C9109950F5F1F4F7F
:100B2000E9CF0E940D0CB3C02DB63EB6BE016F5F7B
:100B30007F4FC8010E9438018C010196EDB7FEB7C6
:100B4000E81BF90B0FB6F894FEBF0FBEEDBF2DB733
:100B50003EB72F5F3F4F490169817A81A801C901E2
:100B60000E94D111F401E00FF11F1082B401C601FF
:100B700048960E94CD000FB6F8943EBE0FBE2DBE23
:100B800050C0D8011496ED91FC9115978281938104
:100B90008816990608F07BC0BE016F5F7F4FC801C1
:100BA0000E94380149805A80D2011196FD010190BE
:100BB0000020E9F731975F01AA1ABB0A3C016A18C5
:100BC0007B08C30101970E94C80FD7011B969C9315
:100BD0008E931A97A30142505109FC01E40FF51FAF
:100BE0001082B5016E5F7F4F640D751D1A968D9151
:100BF0009C911B970E94D11169817A816F5F7F4F11
:100C0000C6010E94CD00F701828593850E945D1088
:100C1000D7011B961C921E921A97BFEF8B1A9B0A44
:100C2000B0CF0FEF10E024E630E040E050E06FE19D
:100C300070E0F701808191810E94640444E050E0FB
:100C4000B301D7018D919C910E94010442E050E0D4
:100C5000B201F701808191810E940104D6016D915A
:100C60007C91C601AB2811F4069601C00C960E9437
:100C7000CD0040E050E060E070E0F70180819181BC
:100C80000E940104D7018D919C910E94EB03EF819A
:100C9000F8850FB6F894FEBF0FBEEDBF28960FB6CD
:100CA000F894DEBF0FBECDBFDF91CF911F910F91A2
:100CB000FF90EF90DF90CF90BF90AF909F908F907C
:100CC0007F906F905F904F903F902F9008950F937B
:100CD0001F93CF93DF9300D000D0CDB7DEB76BE981
:100CE00071E081E394E00E94720C6EEA71E081E3AE
:100CF00094E00E94600C0E94740C811103C067ECA8
:100D000071E0F5CF6EED71E081E394E00E94600C3C
:100D100001E010E020E030E0A9016EE170E0809198
:100D20000D0490910E040E94640489E194E0092E60
:100D3000000CAA0BBB0B89839A83AB83BC8344E072
:100D400050E0BE016F5F7F4F80910D0490910E04C3
:100D50000E94010480910D0490910E040E94EB0307
:100D60000F900F900F900F90DF91CF911F910F91E7
:100D700008958F929F92AF92BF92DF92EF92FF926F
:100D80000F931F93CF93DF9300D000D000D0CDB747
:100D9000DEB78C01DD24D394D8011A968D919C91F5
:100DA0001B97DC01ED91FC910480F581E02D099504
:100DB000892B09F481C1D8011A968D919C911B97BA
:100DC000DC01ED91FC910680F781E02D09958B3DCA
:100DD000910519F4F801D58ADFCFD80153962D91EA
:100DE0003C915497803C910509F041C12830310570
:100DF00008F42EC1F801E784F0888485882309F47B
:100E000084C060EF71E0808191810E94720CD801F2
:100E100053964D915C91549760E070E02AE08D917B
:100E20009C910E94C40B6AEF71E0F801808191816E
:100E30000E94720CD8011F964D915C915097052E1F
:100E4000000C660B770B20E18D919C910E94C40BE6
:100E500062E572E0F801808191810E94720CD701F5
:100E60004D915C9160E070E020E1F801808191811A
:100E70000E94C40B63E572E0D8018D919C910E94A1
:100E8000720CF701448155816681778120E1D80198
:100E90008D919C910E94C40B63E572E0F801808102
:100EA00091810E94720CD70112964D915C9113971B
:100EB00060E070E020E1F801808191810E94C40B24
:100EC00048E0A42EB12CF8012389348980819181D6
:100ED000A216B306C0F463E572E00E94720CD8015A
:100EE0001F96ED91FC915097EA0DFB1D408150E05B
:100EF00060E070E020E18D919C910E94C40BBFEFF7
:100F0000AB1ABB0AE0CF0E940D0CD8015396AD90EE
:100F1000BC905497B2E0AB1AB108F801878490886E
:100F200020E030E0A501B401C8010E948401F40171
:100F3000EA0DFB1D208131818217930761F0D801F2
:100F40001C968C911C97882309F482C06DEF71E088
:100F50008D919C917BC0F7018081918182309105B8
:100F600039F08330910519F1019709F067C056C037
:100F7000D8011C968C911C97882309F46BC06EE0F5
:100F800072E08D919C910E94720CF801A080B1805A
:100F9000D70114964D915D916D917C9117972AE040
:100FA000C5010E94C40BC5010E940D0C53C0F8017D
:100FB0008485882311F167E172E0808191810E942C
:100FC000720CD70114964D915D916D917C9117979C
:100FD0002AE0F801808191810E94C40B63E572E0F0
:100FE000D8018D919C910E94720CF70162817381EE
:100FF000D8018D919C910E94110CF701A481B581BB
:101000008D919C911197009709F059C012962D91DE
:101010003C911397232B09F052C01AC061E272E091
:10102000D8018D919C910E94600CD8011896ED9189
:10103000FC911997309761F009950AC0F8018485F1
:10104000882331F06CE272E0808191810E94600C13
:10105000E12CF12CD80154961C921E925397559670
:101060001C92E114F10409F497CEC70158C0F801AD
:101070004589442371F08C3D910531F08D3D9105FA
:1010800029F48BED90E002C080EC90E0D8015596F9
:101090001C92F801418952892417350708F07CCE4B
:1010A00047855089B9016F5F7F4F748B638BFA015D
:1010B000E20FF31F808370CE80E090E030C0FE82AC
:1010C000ED82E8E0EE0EF11CFC82EB821A821982BE
:1010D0001296ED91FC911397309709F4B9CF0097D0
:1010E000D1F014962D913C911597A90155954795EE
:1010F00020FF0AC0DC01A40FB51F2D913C91E20F27
:10110000F31F0190F081E02DBE016F5F7F4F840FD0
:10111000951F09959DCFCE010196099599CF2696E9
:101120000FB6F894DEBF0FBECDBFDF91CF911F91F8
:101130000F91FF90EF90DF90BF90AF909F908F90B6
:101140000895EF92FF920F931F93CF93DF93CDB744
:10115000DEB7CA50D1400FB6F894DEBF0FBECDBF88
:1011600062E372E081E394E00E94720C8EEC94E002
:101170000E94B9068EE00E944A0D7C018FE00E9419
:101180004A0D8C0163E472E081E394E00E94720CEA
:10119000B70181E394E00E94270C65E572E081E3EA
:1011A00094E00E94720CB80181E394E00E94270C45
:1011B0008FE00E944A0D019799F5809101048111F9
:1011C0002FC080910004882359F187E692E00E94A5
:1011D0001E0B64EA72E081E394E00E94720C8E01BF
:1011E0000F5F1F4F8AE091E0F8019C01119221509E
:1011F0003040E1F7C8010E94D00A7C0181E0809371
:10120000010438ECE316F104B1F46EEB72E081E313
:1012100094E00E94600CB80181E394E00E94600CAD
:101220008EE00E944A0D019709F04AC080910104A6
:1012300081110DC045C060EF72E081E394E00E942F
:10124000720CB70181E394E00E94110CE9CF809108
:1012500000048823A9F18DE093E00E941E0B64EA4C
:1012600072E081E394E00E94720C8E010F5F1F4FC9
:101270008AE091E0F8019C01119221503040E1F7A1
:10128000C8010E94D00A7C0110920104883C91059B
:1012900061F46BE473E081E394E00E94600CB801B8
:1012A00081E394E00E94600C0BC060EF72E081E388
:1012B00094E00E94720CB70181E394E00E94110C4B
:1012C000C65FDE4F0FB6F894DEBF0FBECDBFDF9115
:1012D000CF911F910F91FF90EF900895CF92DF92E1
:1012E000EF92FF920F931F93CF93DF936C017A01DC
:1012F0008B01C0E0D0E0CE15DF0589F0D8016D91FB
:101300008D01D601ED91FC910190F081E02DC60197
:101310000995892B11F47E0102C02196ECCFC701FB
:10132000DF91CF911F910F91FF90EF90DF90CF90C1
:101330000895FC01918D828D981761F0828DDF01F7
:10134000A80FB11D5D968C91928D9F5F9F73928FB8
:1013500090E008958FEF9FEF0895FC01918D828DAD
:10136000981731F0828DE80FF11D858D90E008957A
:101370008FEF9FEF0895FC01918D228D892F90E0D2
:10138000805C9F4F821B91098F739927089581E399
:1013900094E00E94BB0921E0892B09F420E0822F10
:1013A0000895FC01848DDF01A80FB11DA35ABF4F22
:1013B0002C91848D90E001968F739927848FA68954
:1013C000B7892C93A089B1898C9180648C93938D7B
:1013D000848D981306C00288F389E02D80818F7D6B
:1013E00080830895EF92FF920F931F93CF93DF9323
:1013F000EC0181E0888F9B8D8C8D981305C0E88966
:10140000F989808185FD24C0F62E0B8D10E00F5FD9
:101410001F4F0F731127E02E8C8DE8120CC00FB6F2
:1014200007FCFACFE889F989808185FFF5CFCE01E5
:101430000E94D109F1CF8B8DFE01E80FF11DE35A17
:10144000FF4FF0820B8FEA89FB898081806207C0A1
:10145000EE89FF896083E889F989808180648083CF
:1014600081E090E0DF91CF911F910F91FF90EF907D
:101470000895CF93DF93EC01888D8823C9F0EA8922
:10148000FB89808185FD05C0A889B9898C9186FD7D
:101490000FC00FB607FCF5CF808185FFF2CFA8897A
:1014A000B9898C9185FFEDCFCE010E94D109E7CF9C
:1014B000DF91CF91089580E090E0892B29F00E9480
:1014C000C70981110C9400000895CF92DF92EF922A
:1014D000FF92CF93DF93EC010E9495036B017C0197
:1014E0000E949503AB01BC014C195D096E097F098F
:1014F000403D57406105710530F4CE010E94B906A8
:10150000009771F302C080E090E0DF91CF91FF90EF
:10151000EF90DF90CF9008956115710579F0FB0190
:1015200001900020E9F73197AF01461B570BDC0112
:10153000ED91FC910280F381E02D099480E090E030
:1015400008950E94BF111F93CF93DF93E6EFF0E061
:101550009491E2EEF0E0D491EEECF0E0C491CC2373
:10156000D9F0182F992319F0892F0E943003EC2FFE
:10157000F0E0EE0FFF1FEC54FF4FA591B4918FB731
:10158000F894111105C09C91ED2FE095E92302C05C
:10159000EC91ED2BEC938FBFDF91CF911F910895CC
:1015A000CF92DF92EF92FF92CF93DF93EC010E94F4
:1015B00095036B017C0180912B0490912C04892B65
:1015C000A1F40E949503AB01BC014C195D096E09A1
:1015D0007F09483853416105710538F4809123042F
:1015E000909124040E94B906E6CF80912B0490913B
:1015F0002C04892BD1F040912D0450912E044B30B6
:1016000081E0580710F04AE051E060912F0470919A
:101610003004CE010E94D11180912B0490912C04B2
:1016200010922C0410922B0402C080E090E0DF9115
:10163000CF91FF90EF90DF90CF9008950F931F937D
:10164000CF93DF9310922C0410922B0420911F044F
:1016500030912004409121045091220457FD2EC066
:10166000EC0102E010E065E170E0809123049091CC
:1016700024040E94640443E050E06FE773E080912B
:101680002304909124040E940104FE010190002093
:10169000E9F73197AF014C1B5D0BBE01809123042C
:1016A000909124040E9401048091230490912404C9
:1016B000DF91CF911F910F910C94EB03DF91CF91AC
:1016C0001F910F9108950F931F93CF93DF93EC0118
:1016D00088819981009729F02A813B812617370755
:1016E00088F48B016F5F7F4F0E94F510009761F0C7
:1016F000998388831B830A832C813D81232B11F4DA
:10170000FC01108281E001C080E0DF91CF911F9148
:101710000F910895CF93DF93EC0188819981009711
:1017200011F00E945D10198218821D821C821B829A
:101730001A82DF91CF910895EF92FF920F931F933A
:10174000CF93DF93EC018B016115710551F0CB0153
:101750000E94F1117C01BC01CE010E94630B81113A
:1017600004C0CE010E948A0B07C0FD82EC82B80142
:10177000888199810E94EA11CE01DF91CF911F915A
:101780000F91FF90EF9008954F925F926F927F922A
:10179000EF92FF920F931F93CF93DF93CDB7DEB7F6
:1017A000A1970FB6F894DEBF0FBECDBF7C01FA0142
:1017B000CB0119A2223008F42AE08E010F5D1F4FE1
:1017C000422E512C612C712CBF01A30192010E9469
:1017D000A00FF901CA01015011096A3014F4605DCB
:1017E00001C0695CD8016C93232B242B252B61F756
:1017F000B801C7010E948C0AA1960FB6F894DEBF0B
:101800000FBECDBFDF91CF911F910F91FF90EF9051
:101810007F906F905F904F90089563E873E00C9411
:101820008C0A0F931F93CF93DF93EC01AB0160E021
:1018300070E02AE00E94C40B8C01CE010E940D0CC6
:10184000800F911FDF91CF911F910F910895CF923B
:10185000DF92EF92FF920F931F93CF93DF93EC01F0
:101860006B01770FEE08FF08F7FE16C0E881F981DB
:101870000190F081E02D6DE209958C0144275527F8
:10188000BA014C195D096E097F092AE0CE010E9458
:10189000C40B080F191F06C02AE0B701A6010E9459
:1018A000C40B8C01CE010E940D0C800F911FDF91A3
:1018B000CF911F910F91FF90EF90DF90CF900895FF
:1018C0000F931F93CF93DF93EC010E948C0A8C013E
:1018D000CE010E940D0C800F911FDF91CF911F91BF
:1018E0000F9108950C948C0AAF92BF92CF92DF9221
:1018F000EF92FF920F931F93CF93DF938091D804C1
:101900009091D904DC01ED91FC910190F081E02DE2
:1019100060EC099580ED94E06C01990FEE08FF08EA
:1019200000E010E0A701960161E070E08EEC94E029
:101930000E9464048EEC94E00E94EB030091D604B4
:101940001091D7041092D7041092D6048EEC94E034
:101950000E94650AEC01892BA9F14C815D816E81A1
:101960007F818091DA044C155D056E057F0581F459
:10197000882341F066E272E08091CE049091CF041A
:101980000E94600C1093D7040093D60481E01FC01E
:101990008823E1F266E873E08091CE049091CF0451
:1019A0000E94720CA090CE04B090CF044C815D8157
:1019B0006E817F812AE0C5010E94C40BC5010E948F
:1019C0000D0CC4CF1093D7040093D60480E0DF91B0
:1019D000CF911F910F91FF90EF90DF90CF90BF902C
:1019E000AF9008951F920F920FB60F9211242F936C
:1019F0003F934F935F936F937F938F939F93AF9397
:101A0000BF93EF93FF9381E394E00E94D109FF918C
:101A1000EF91BF91AF919F918F917F916F915F9166
:101A20004F913F912F910F900FBE0F901F901895DF
:101A30001F920F920FB60F9211242F938F939F93A3
:101A4000EF93FF93E0914104F09142048081E09193
:101A50004704F091480482FD12C0908180914A04AD
:101A60008F5F8F7320914B04821751F0E0914A04ED
:101A7000F0E0EF5CFB4F958F80934A0401C08081BA
:101A8000FF91EF919F918F912F910F900FBE0F902B
:101A90001F901895CF93DF93282F30E0F901EA517A
:101AA000FF4F8491F901EE52FF4FD491F901E254B6
:101AB000FF4FC491CC2391F081110E943003EC2F91
:101AC000F0E0EE0FFF1FEC56FF4FA591B491EC91A3
:101AD000ED2381E090E021F480E002C080E090E01E
:101AE000DF91CF910895E1E3F4E01382128288EE52
:101AF00093E0A0E0B0E084839583A683B7838AE077
:101B000091E09183808385EC90E09587848784ECD5
:101B100090E09787868780EC90E0918B808B81ECBA
:101B200090E0938B828B82EC90E0958B848B86EC9B
:101B300090E0978B868B118E128E138E148EAEECE6
:101B4000B4E01196FC93EE9313961C921E9212979A
:101B500015961C921E9214971B96FC93EE931A975F
:101B600081E01C968C931C9784EE94E050969C9395
:101B70008E931F9780E890E052969C938E93519796
:101B800054961C921E92539755961C925597EFE1CE
:101B9000F4E01782168211861086B583A4834FEF76
:101BA0005FEFBA014083518362837383EDE0F4E019
:101BB000B183A0831186108613861286158614863B
:101BC000F0930C04E0930B0481EE94E097878687F2
:101BD0000895CF93DF93CDB7DEB727970FB6F8946C
:101BE000DEBF0FBECDBF789484B5826084BD84B55E
:101BF000816084BD85B5826085BD85B5816085BD08
:101C000080916E00816080936E00109281008091BF
:101C10008100826080938100809181008160809347
:101C20008100809180008160809380008091B1006C
:101C300084608093B1008091B00081608093B00097
:101C400080917A00846080937A0080917A0082602B
:101C500080937A0080917A00816080937A008091ED
:101C60007A00806880937A001092C100E09141046C
:101C7000F091420482E08083E0913D04F0913E04C3
:101C80001082E0913F04F09140048FEC8083109229
:101C90004904E0914504F091460486E08083E09198
:101CA0004304F0914404808180618083E091430487
:101CB000F0914404808188608083E0914304F09136
:101CC0004404808180688083E0914304F09144045F
:101CD00080818F7D80836CE873E081E394E00E94D3
:101CE000600C60EA73E081E394E00E94720C62E0B1
:101CF0008EE00E94590362E08FE00E94590361E088
:101D000080E10E94590381E00E94A30A81E292E0EF
:101D10009093D3048093D2040E94740C811107C065
:101D200067EC71E081E394E00E94600CF5CF6EED0A
:101D300071E081E394E00E94600C1A8219821C8297
:101D40001B821E821D826EE970E0CE0101960E9408
:101D50009C0B80E290E00E94C80F8C0180E2F801A9
:101D600011928A95E9F7F80111821082138212828A
:101D70001582148260E070E0C8010E94630B81113B
:101D800004C0C8010E948A0B09C0F80115821482A0
:101D900065E873E0808191810E94E311F801178268
:101DA0001682118610861586148617861686138A63
:101DB000128A158A148A118E108E138E128ECE01FD
:101DC00001967C0108171907C9F0C980DA80C1148F
:101DD000D10489F0AD80BE80B501C8010E94630BBB
:101DE000882349F0F801B582A482B60180819181EF
:101DF0000E94E31103C0C8010E948A0B8091150460
:101E000090911604F801978F868F10931604009313
:101E1000150489819A810E945D1088E692E0F8019C
:101E2000938F828F6FEA73E081E394E00E94720CDB
:101E300087E696E09093D7048093D6040E946706C5
:101E400080E99FE19A8389831F828FE194E09093D8
:101E500026048093250480EF91E0909328048093DA
:101E6000270410922A041092290403E010E025E2CE
:101E700034E0032E000C440B550B64E170E08091BC
:101E80002304909124040E9464044CE050E061ED2E
:101E900073E080912304909124040E94010442E0A5
:101EA00050E0B70180912304909124040E94010422
:101EB00041E050E0BE01695F7F4F80912304909123
:101EC00024040E94010480912304909124040E9420
:101ED000EB0380912304909124040E94650A0097EB
:101EE00091F0FC01448155816681778177FD0BC0BB
:101EF00040931F04509320046093210470932204A4
:101F000000E010E003C0FC010481158101151105FA
:101F100061F06EED73E081E394E00E94720CB80111
:101F200081E394E00E94270CFFCF62EF73E081E32E
:101F300094E00E94600C0E94A1080E945B0AFBCF03
:101F4000A1E21A2EAA1BBB1BFD010DC0AA1FBB1FBD
:101F5000EE1FFF1FA217B307E407F50720F0A21B2F
:101F6000B30BE40BF50B661F771F881F991F1A949C
:101F700069F760957095809590959B01AC01BD01C6
:101F8000CF010895EE0FFF1F0590F491E02D099405
:101F9000CF93DF938230910510F482E090E0E091DE
:101FA0006605F091670520E030E0C0E0D0E03097B2
:101FB00011F14081518148175907C0F0481759075E
:101FC00061F482819381209719F09B838A832BC0CF
:101FD000909367058093660526C02115310519F099
:101FE0004217530718F49A01BE01DF01EF01028086
:101FF000F381E02DDCCF2115310509F1281B390BC8
:102000002430310590F412968D919C9113976115AF
:10201000710521F0FB019383828304C090936705CF
:1020200080936605FD01329644C0FD01E20FF31F67
:1020300081939193225031092D933C933AC0209182
:10204000640530916505232B41F420910201309104
:1020500003013093650520936405209100013091C0
:1020600001012115310541F42DB73EB7409104011E
:1020700050910501241B350BE0916405F091650535
:10208000E217F307A0F42E1B3F0B2817390778F04F
:10209000AC014E5F5F4F2417350748F04E0F5F1FAE
:1020A00050936505409364058193919302C0E0E0ED
:1020B000F0E0CF01DF91CF9108950F931F93CF935D
:1020C000DF93009709F48CC0FC01329713821282CF
:1020D00000916605109167050115110581F42081B5
:1020E0003181820F931F2091640530916505281777
:1020F000390779F5F0936505E093640571C0D8015F
:1021000040E050E0AE17BF0750F412962D913C917D
:102110001397AD012115310509F1D901F3CF9D01C7
:10212000DA013383228360817181860F971F8217C2
:10213000930769F4EC0128813981260F371F2E5F40
:102140003F4F318320838A819B8193838283452BF8
:1021500029F4F0936705E093660542C01396FC935B
:10216000EE931297ED01499159919E01240F351F6D
:10217000E217F30771F480819181840F951F029615
:1021800011969C938E938281938113969C938E9348
:102190001297E0E0F0E0D80112968D919C91139790
:1021A000009719F0F8018C01F6CF8D919C91980160
:1021B0002E5F3F4F820F931F20916405309165057C
:1021C0002817390769F4309729F41092670510929F
:1021D000660502C0138212821093650500936405A0
:1021E000DF91CF911F910F910895A0E0B0E0EBEF48
:1021F000F0E10C94FE11EC01009721F4CB010E9458
:10220000C80FB8C0FC01E60FF71F9C01225031092E
:10221000E217F30708F4ACC0D9010D911C91119796
:1022200006171707B0F00530110508F49FC0C80164
:1022300004978617970708F499C002501109061BE6
:10224000170B019311936D937C93CF010E945D1046
:102250008DC05B01A01AB10A4C01800E911EA091A5
:102260006605B091670540E050E0E12CF12C109735
:1022700009F44AC0A815B905D1F56D907C90119765
:10228000630182E0C80ED11CCA14DB0480F1A301F3
:102290004A195B096A0182E0C80ED11C1296BC90F3
:1022A00012971396AC91B5E0CB16D10440F0B282F0
:1022B000A38351834083D9016D937C930AC00E5F41
:1022C0001F4FC301800F911FF90191838083EB2D74
:1022D000FA2FE114F10431F0D7011396FC93EE9339
:1022E000129744C0F0936705E09366053FC08D9157
:1022F0009C9111974817590708F4AC017D0112967B
:102300000D90BC91A02DB3CF80916405909165058F
:1023100088159905E1F446175707C8F48091000124
:1023200090910101009741F48DB79EB7409104014F
:1023300050910501841B950BE817F907C8F4F09339
:102340006505E0936405F901718360830FC0CB01DB
:102350000E94C80F7C01009759F0A801BE010E949D
:10236000D111CE010E945D10C70104C0CE0102C090
:1023700080E090E0CDB7DEB7EEE00C941A1281E079
:1023800090E0F8940C943112FB01DC0104C08D91B3
:102390000190801921F441505040C8F7881B990BD7
:1023A0000895FB01DC0102C001900D9241505040A4
:1023B000D8F70895FB01DC018D910190801901107F
:1023C000D9F3990B0895FB01DC0101900D920020D7
:1023D000E1F70895FB01DC0105900D920020E1F783
:1023E0000895FC0105900020E9F7809590958E0FE7
:1023F0009F1F08952F923F924F925F926F927F920C
:102400008F929F92AF92BF92CF92DF92EF92FF9204
:102410000F931F93CF93DF93CDB7DEB7CA1BDB0BB0
:102420000FB6F894DEBF0FBECDBF09942A88398855
:1024300048885F846E847D848C849B84AA84B9845C
:10244000C884DF80EE80FD800C811B81AA81B98168
:10245000CE0FD11D0FB6F894DEBF0FBECDBFED017C
:062460000895F894FFCF7F
:1024660000006805800000000000F2096E09BB0943
:102476009909AD09390A5245535420636F646520A2
:10248600005779776FC582616E69652077696669DD
:102496004362005749464920434F4E4E45435445F3
:1024A600440057494649204E4F542052454144590D
:1024B6003A20007779776FC582616E6965206C6511
:1024C60064427574746F6E507265737300576369F6
:1024D600736E6965746F2070727A796369736B20A5
:1024E6007A616D796B616E69612F6F747769657258
:1024F600616E6961206272616D79007779776FC567
:1025060082616E6965207265736574436200454C2D
:102516002D436C69656E74202872652D297374616C
:102526007274696E672100454C2D436C69656E7443
:102536002073796E63206661696C65642100454C81
:102546002D436C69656E742073796E636564210032
:10255600454C433A20676F742000204000454C43A9
:102566003A20496E76616C696420435243005245B5
:1025760053505F563A2000524553505F43423A202B
:10258600004E4545445F53594E432100434D443F59
:102596003F00526F7A706F637A796E616D206C6F4F
:1025A6006F70005374616E2077656A73636961208A
:1025B60041303A20005374616E2077656A7363690F
:1025C600612041313A20002F6A736F6E2E68746D58
:1025D6003F747970653D636F6D6D616E64267061E1
:1025E60072616D3D7377697463686C696768742698
:1025F6006964783D323926737769746368636D64FC
:102606003D4F6E00577973C58261C582656D207A2C
:1026160061707974616E6965206A736F6E004F64CC
:10262600706F776965647A206E61207A617079745B
:10263600616E6965206A736F6E20646F20446F6DEA
:102646006F7469637A613A204F545741525445007A
:102656004E69652077796B6F6E616E6F207A617057
:102666007974616E6961204745543A20002F6A7378
:102676006F6E2E68746D3F747970653D636F6D6D16
:10268600616E6426706172616D3D7377697463680B
:102696006C69676874266964783D32392673776990
:1026A600746368636D643D4F6666004F64706F7750
:1026B6006965647A206E61207A61707974616E69E9
:1026C60065206A736F6E20646F20446F6D6F746946
:1026D600637A613A205A414D4B4E4945544500476D
:1026E6004554000D0A004241443A2000454C2D4312
:1026F6006C69656E74207374617274696E6721000B
:1027060057737A65646C207720536574757000572B
:1027160079776FC58261C5822075726C68616E6457
:102726006C65722069206C656468616E646C6572A4
:10273600003139322E3136382E312E35340052459D
:10274600535420626567696E206661696C65643AF8
:102756002000454C2D524553542072656164790022
:00000001FF
