:100000000C947E000C94A6000C94A6000C94A60000
:100010000C94A6000C94A6000C94A6000C94A600C8
:100020000C94A6000C94A6000C94A6000C94A600B8
:100030000C94A6000C94A6000C94A6000C94A600A8
:100040000C94BF030C94A6000C942F030C9409038A
:100050000C94A6000C94A6000C94A6000C94A60088
:100060000C94A6000C94A60048616E646C65722026
:100070006E6F7420666F756E6420666F72205552C5
:100080004C3A0000000000240027002A0000000075
:10009000002300260029002F537465726F77616E6C
:1000A00069652E68746D6C2E6A736F6E0062746E73
:1000B0005F6F6E0000000000250028002B00040484
:1000C0000404040404040202020202020303030300
:1000D00003030102040810204080010204081020DC
:1000E00001020408102000000008000201000003C3
:1000F000040700000000000000006E0E11241FBE67
:10010000CFEFD8E0DEBFCDBF12E0A0E0B1E0EEEE71
:10011000F2E202C005900D92A83DB107D9F724E0A4
:10012000A8EDB2E001C01D92AF33B207E1F710E0D5
:10013000CEE7D0E004C02197FE010E94060FCD3724
:10014000D107C9F70E94C60C0C9475110C940000DD
:10015000CF92DF92EF92FF920F931F93CF93DF9393
:100160006C017A018B01C0E0D0E0CE15DF0589F08B
:10017000D8016D918D01D601ED91FC910190F08136
:10018000E02DC6010995892B11F47E0102C021964C
:10019000ECCFC701DF91CF911F910F91FF90EF90AE
:1001A000DF90CF900895FC01918D828D981761F0BA
:1001B000828DDF01A80FB11D5D968C91928D9F5F9E
:1001C0009F73928F90E008958FEF9FEF0895FC0149
:1001D000918D828D981731F0828DE80FF11D858DFC
:1001E00090E008958FEF9FEF0895FC01918D228D8F
:1001F000892F90E0805C9F4F821B91098F73992714
:10020000089588E093E00E94F50021E0892B09F42D
:1002100020E0822F0895FC01848DDF01A80FB11D1D
:10022000A35ABF4F2C91848D90E001968F7399272C
:10023000848FA689B7892C93A089B1898C91806419
:100240008C93938D848D981306C00288F389E02DDA
:1002500080818F7D80830895EF92FF920F931F938B
:10026000CF93DF93EC0181E0888F9B8D8C8D981369
:1002700005C0E889F989808185FD24C0F62E0B8DA3
:1002800010E00F5F1F4F0F731127E02E8C8DE812C7
:100290000CC00FB607FCFACFE889F989808185FF89
:1002A000F5CFCE010E940B01F1CF8B8DFE01E80F3F
:1002B000F11DE35AFF4FF0820B8FEA89FB898081A1
:1002C000806207C0EE89FF896083E889F9898081AF
:1002D0008064808381E090E0DF91CF911F910F9146
:1002E000FF90EF900895CF93DF93EC01888D8823E2
:1002F000C9F0EA89FB89808185FD05C0A889B98993
:100300008C9186FD0FC00FB607FCF5CF808185FF6D
:10031000F2CFA889B9898C9185FFEDCFCE010E94DB
:100320000B01E7CFDF91CF91089580E090E0892B1A
:1003300029F00E94010181110C9400000895CF93CF
:10034000DF9390E0FC01EE52FF4F2491FC01E25458
:10035000FF4F8491882361F190E0880F991FFC0181
:10036000ED57FF4FC591D491FC01EC54FF4FA5917F
:10037000B491611109C09FB7F894888120958223B8
:100380008883EC912E230BC0623061F49FB7F89400
:100390003881822F809583238883EC912E2B2C9398
:1003A0009FBF06C08FB7F894E8812E2B28838FBF9C
:1003B000DF91CF910895DC011296ED91FC91139796
:1003C0003097F1F02D913C91119721153105B1F045
:1003D00014964D915C911597CA019595879540FFAC
:1003E0000AC0D901A80FB91F4D915C91E40FF51F08
:1003F0000190F081E02D820F931F0994CB010994A5
:100400000895CF93DF93FC0180819181A481B58110
:1004100012962D913C91139782179307E0F4A281D5
:10042000B3814D915D91B383A283019691838083C3
:10043000EB01B983A8832EEF3FEF241B350B23700C
:100440003327240F351F82819381280F391F33836F
:100450002283CA0102C08FEF9FEFDF91CF910895F1
:100460006115710579F0FB0101900020E9F73197E2
:10047000AF01461B570BDC01ED91FC910280F3812B
:10048000E02D099480E090E008950E9403110F93FD
:100490001F93CF93DF93EC0188819981009729F016
:1004A0002A813B812617370788F48B016F5F7F4FC6
:1004B0000E943910009761F0998388831B830A8317
:1004C0002C813D81232B11F4FC01108281E001C0BD
:1004D00080E0DF91CF911F910F910895CF93DF932B
:1004E000EC0188819981009711F00E94A10F198277
:1004F00018821D821C821B821A82DF91CF9108957F
:10050000EF92FF920F931F93CF93DF93EC018B0138
:100510006115710551F0CB010E9435117C01BC01C0
:10052000CE010E944702811104C0CE010E946E02DA
:1005300007C0FD82EC82B801888199810E942E114A
:10054000CE01DF91CF911F910F91FF90EF90089511
:100550004F925F926F927F92EF92FF920F931F9351
:10056000CF93DF93CDB7DEB7A1970FB6F894DEBF78
:100570000FBECDBF7C01FA01CB0119A2223008F4D5
:100580002AE08E010F5D1F4F422E512C612C712CE1
:10059000BF01A30192010E94E40EF901CA010150BA
:1005A00011096A3014F4605D01C0695CD8016C9374
:1005B000232B242B252B61F7B801C7010E943002A1
:1005C000A1960FB6F894DEBF0FBECDBFDF91CF91DD
:1005D0001F910F91FF90EF907F906F905F904F90E1
:1005E000089566E171E00C9430020F931F93CF934E
:1005F000DF93EC010E9430028C01CE010E94F102D7
:10060000800F911FDF91CF911F910F9108950C944E
:1006100030021F920F920FB60F9211242F933F9327
:100620004F935F936F937F938F939F93AF93BF93FA
:10063000EF93FF9388E093E00E940B01FF91EF910D
:10064000BF91AF919F918F917F916F915F914F91EA
:100650003F912F910F900FBE0F901F9018951F92F2
:100660000F920FB60F9211242F938F939F93EF93B6
:10067000FF93E0911803F09119038081E0911E032C
:10068000F0911F0382FD12C09081809121038F5F42
:100690008F7320912203821751F0E0912103F0E043
:1006A000E85FFC4F958F8093210301C08081FF910B
:1006B000EF919F918F912F910F900FBE0F901F90F0
:1006C0001895833081F028F4813099F08230A1F0C0
:1006D00008958730A9F08830B9F08430D1F4809142
:1006E00080008F7D03C0809180008F778093800091
:1006F000089584B58F7702C084B58F7D84BD089539
:100700008091B0008F7703C08091B0008F7D80937F
:10071000B0000895CF93DF93282F30E0F901EA511C
:10072000FF4F8491F901EE52FF4FD491F901E25449
:10073000FF4FC491CC2391F081110E946103EC2FF3
:10074000F0E0EE0FFF1FE357FF4FA591B491EC913E
:10075000ED2381E090E021F480E002C080E090E0B1
:10076000DF91CF9108952FB7F8946091DD027091D9
:10077000DE028091DF029091E0022FBF08951F9268
:100780000F920FB60F9211242F933F938F939F9345
:10079000AF93BF938091DD029091DE02A091DF02C2
:1007A000B091E0023091DC0223E0230F2D3720F4DA
:1007B0000196A11DB11D05C026E8230F0296A11DBB
:1007C000B11D2093DC028093DD029093DE02A093A2
:1007D000DF02B093E0028091D8029091D902A091FB
:1007E000DA02B091DB020196A11DB11D8093D802FF
:1007F0009093D902A093DA02B093DB02BF91AF913C
:100800009F918F913F912F910F900FBE0F901F904E
:100810001895EF92FF920F931F93CF93DF93EC0104
:1008200088819981EC81FD81228133818217930730
:1008300060F5EA81FB81019111912EEF3FEF201BC2
:10084000310B7901A3E0EA22FF24FB83EA830196BE
:1008500099838883CB019A010417150708F498013E
:10086000260F371F8217930729F04191DC014D9322
:10087000CD01F8CF9701200F311F8A819B81280F6E
:10088000391F3B832A83C80102C08FEF9FEFDF919E
:10089000CF911F910F91FF90EF9008950F931F93A9
:1008A000CF93DF936115710529F18B01EC01BC0138
:1008B000645F7F4F42E050E0C8010E940904EC8170
:1008C000FD818485882371F069E171E080819181E7
:1008D0000E9407036C857D85EC81FD81808191817B
:1008E0000E94FA0BBE01605F7F4FC8010E940102A7
:1008F0009F878E87DF91CF911F910F910895462793
:10090000342F252FA901442784E0440F551F8A95D1
:10091000E1F742275327CA01892F992782958F70C3
:1009200048275927CA01882735E0969587953A9533
:10093000E1F7842795270895EF92FF920F931F9375
:10094000CF93DF937C01C901EB018B01040F151FCD
:10095000C017D10731F06991AC01C7010E947F0433
:10096000F7CFDF91CF911F910F91FF90EF900895F6
:10097000CF93DF93EC01BC01635F7F4F42E050E017
:100980000E9457078A859B85DC01ED91FC910190BF
:10099000F081E02D60ECDF91CF9109942F923F928E
:1009A0004F925F926F927F928F929F92AF92BF927F
:1009B000CF92DF92EF92FF920F931F93CF93DF932B
:1009C000CDB7DEB728970FB6F894DEBF0FBECDBF08
:1009D0008C012DB73EB738872F83E090E202F0906C
:1009E000E30242E050E0BE016B5F7F4F0E940904CA
:1009F000AD80BE80370132E0630E711C44E050E0F0
:100A0000B301C8010E940904270186E0480E511C69
:100A100042E050E0B201C8010E940904BE016D5FCE
:100A20007F4FC8010E9401024C01D7011896CD905A
:100A3000DC9019972B803C80C114D10449F1F60158
:100A4000848195818815990541F460817181A401A3
:100A5000C1010E940811892B31F0D6015E96CD901C
:100A6000DC905F97E9CFB2E0AB16B10409F449C05E
:100A70001CF4B7FEC3C0F8C0F3E0AF16B10409F030
:100A8000F3C084E0882E912CE2E1CE0ED11C66C02A
:100A9000D701ED91FC918485882309F4E5C0C080DD
:100AA000D18008E610E0F8016491611103C000E014
:100AB00010E00DC0D601ED91FC910190F081E02D88
:100AC000C60109950F5F1F4F892B69F7F0CFD7013A
:100AD000ED91FC91808191810815190579F0DC0177
:100AE000ED91FC91AB81BC81A00FB11F0190F08111
:100AF000E02D6C9109950F5F1F4FE9CF0E94F10225
:100B0000B3C02DB63EB6BE016F5F7F4FC8010E94D5
:100B100001028C010196EDB7FEB7E81BF90B0FB689
:100B2000F894FEBF0FBEEDBF2DB73EB72F5F3F4F0E
:100B3000490169817A81A801C9010E941511F40156
:100B4000E00FF11F1082B401C60148960E94DB013C
:100B50000FB6F8943EBE0FBE2DBE50C0D8011496FD
:100B6000ED91FC911597828193818816990608F082
:100B70007BC0BE016F5F7F4FC8010E9401024980A8
:100B80005A80D2011196FD0101900020E9F73197BA
:100B90005F01AA1ABB0A3C016A187B08C3010197CE
:100BA0000E940C0FD7011B969C938E931A97A3015A
:100BB00042505109FC01E40FF51F1082B5016E5F30
:100BC0007F4F640D751D1A968D919C911B970E9405
:100BD000151169817A816F5F7F4FC6010E94DB0129
:100BE000F701828593850E94A10FD7011B961C9265
:100BF0001E921A97BFEF8B1A9B0AB0CF0FEF10E02F
:100C000024E630E040E050E06FE170E0F7018081E1
:100C100091810E94D40744E050E0B301D7018D9147
:100C20009C910E94710742E050E0B201F70180817F
:100C300091810E947107D6016D917C91C601AB280C
:100C400011F4069601C00C960E94DB0140E050E0D2
:100C500060E070E0F701808191810E947107D70107
:100C60008D919C910E94B804EF81F8850FB6F8949D
:100C7000FEBF0FBEEDBF28960FB6F894DEBF0FBEC5
:100C8000CDBFDF91CF911F910F91FF90EF90DF903B
:100C9000CF90BF90AF909F908F907F906F905F901C
:100CA0004F903F902F900895CF93DF93EC018A856A
:100CB0009B85603CA1F06B3D21F5DC01ED91FC9141
:100CC0000190F081E02D6BED09958A859B85DC0113
:100CD000ED91FC910190F081E02D6DED18C0DC01EB
:100CE000ED91FC910190F081E02D6BED09958A85E5
:100CF0009B85DC01ED91FC910190F081E02D6CED84
:100D000006C0DC01ED91FC910190F081E02DDF91B6
:100D1000CF910994EF92FF920F931F93CF93DF939C
:100D2000CDB7DEB72C970FB6F894DEBF0FBECDBFA0
:100D30007C011A8219821C821B821E821D820097EE
:100D4000D9F0FC0101900020E9F731978F01081BD1
:100D5000190BB801CE0101960E944702811105C00E
:100D6000CE0101960E946E0207C01E830D83B7015B
:100D700089819A810E94271118861F821A861986F6
:100D80001C861B866DEA70E0CE0107960E948002E9
:100D90002D813E818B859C85EF80F884281739074B
:100DA00021F589819A81009719F0E114F104B9F4D1
:100DB000E114F10459F02115310541F0F7012081CA
:100DC00030E088279927821B930B0CC0009779F09D
:100DD000232B69F0FC019081892F90E003C0B701BB
:100DE0000E941E1111E0892B19F010E001C011E0E2
:100DF000C7010E94A10F112319F081E00E94120B7C
:100E00000E94B303643F71408105910518F080E0B2
:100E10000E94120B89819A810E94A10F2C960FB615
:100E2000F894DEBF0FBECDBFDF91CF911F910F9120
:100E3000FF90EF900895CF93DF931F92CDB7DEB769
:100E4000DC011496ED91FC911597228133812130BC
:100E5000310549F541E050E0BE016F5F7F4F0E94D0
:100E600009048981853051F460E971E088E093E0FC
:100E70000E94F50281E08093E10215C06FE971E004
:100E800088E093E00E940703498150E060E070E051
:100E90002AE088E093E00E94A80288E093E00E94A4
:100EA000F1021092E1020F90DF91CF910895EF923D
:100EB000FF920F931F93CF93DF937C01EB018B0184
:100EC000040F151FC017D10729F06991C7010E94AF
:100ED0005406F8CFDF91CF911F910F91FF90EF90C3
:100EE0000895CF92DF92EF92FF920F931F93CF93CB
:100EF000DF9300D0CDB7DEB78C017B015A834983E5
:100F000042E050E0BE016F5F7F4F0E945707F8013B
:100F10002585368542E050E0BE016F5F7F4FC801F6
:100F20000E949C04F80196878587C980DA80CE0CE0
:100F3000DF1CEC14FD0491F0F7016081C8010E94F0
:100F40005406F80145855685F70161917F01C80176
:100F50000E947F04F80196878587EBCFE980FA80AD
:100F6000F194E194F108F3E0EF22FF24F1E0EF1AAD
:100F7000F10878F060E0C8010E945406F801458548
:100F8000568560E0C8010E947F04F8019687858736
:100F9000EDCF0F900F90DF91CF911F910F91FF90A8
:100FA000EF90DF90CF900895EF92FF920F931F93F1
:100FB000CF93DF93CDB7DEB728970FB6F894DEBF97
:100FC0000FBECDBF7C017A8369832B833C834D8325
:100FD0005E8318870F83DC011E961C921E921D975C
:100FE0001A968D919C911B97DC01ED91FC910190DB
:100FF000F081E02D60EC099542E050E0BE016F5FAA
:101000007F4FC7010E945707F7012585368542E0CB
:1010100050E0BE016F5F7F4FC7010E949C04D70163
:101020001E969C938E931D9742E050E0BE01695F2F
:101030007F4FC7010E945707F7012585368542E09B
:1010400050E0BE01695F7F4FC7010E949C04D70139
:101050001E969C938E931D9744E050E0BE016D5FF9
:101060007F4FC7010E945707F7012585368544E069
:1010700050E0BE016D5F7F4FC7010E949C04D70105
:101080001E969C938E931D9728960FB6F894DEBFFC
:101090000FBECDBFDF91CF911F910F91FF90EF90C9
:1010A00008950F931F93CF93DF9300D000D0CDB757
:1010B000DEB760EB71E088E093E00E94F5020E94E9
:1010C0007C0B811103C068E371E0F5CF6EE771E03E
:1010D00088E093E00E94F50201E010E020E030E0BB
:1010E000A9016EE170E08091E4029091E5020E9416
:1010F000D40780EF92E0092E000CAA0BBB0B89836A
:101100009A83AB83BC8344E050E0BE016F5F7F4FA6
:101110008091E4029091E5020E9471078091E402BF
:101120009091E5020E94B8040F900F900F900F90DD
:10113000DF91CF911F910F9108958F929F92AF925F
:10114000BF92DF92EF92FF920F931F93CF93DF93A3
:1011500000D000D000D0CDB7DEB78C01DD24D39411
:10116000D8011A968D919C911B97DC01ED91FC9111
:101170000480F581E02D0995892B09F481C1D801FE
:101180001A968D919C911B97DC01ED91FC91068044
:10119000F781E02D09958B3D910519F4F801D58A69
:1011A000DFCFD80153962D913C915497803C910507
:1011B00009F041C12830310508F42EC1F801E78457
:1011C000F0888485882309F484C069EC71E080810B
:1011D00091810E940703D80153964D915C915497D9
:1011E00060E070E02AE08D919C910E94A80263ED7E
:1011F00071E0F801808191810E940703D8011F9658
:101200004D915C915097052E000C660B770B20E1F9
:101210008D919C910E94A80267EF71E0F801808196
:1012200091810E940703D7014D915C9160E070E0CD
:1012300020E1F801808191810E94A80268EF71E0AD
:10124000D8018D919C910E940703F701448155813B
:101250006681778120E1D8018D919C910E94A8023E
:1012600068EF71E0F801808191810E940703D70146
:1012700012964D915C91139760E070E020E1F801C7
:10128000808191810E94A80248E0A42EB12CF8012F
:101290002389348980819181A216B306C0F468EF56
:1012A00071E00E940703D8011F96ED91FC915097C1
:1012B000EA0DFB1D408150E060E070E020E18D917F
:1012C0009C910E94A802BFEFAB1ABB0AE0CF0E941C
:1012D000F102D8015396AD90BC905497B2E0AB1A8E
:1012E000B108F8018784908820E030E0A501B401BE
:1012F000C8010E949C04F401EA0DFB1D208131818C
:101300008217930761F0D8011C968C911C97882353
:1013100009F482C066ED71E08D919C917BC0F7016C
:10132000808191818230910539F08330910519F1E6
:10133000019709F067C056C0D8011C968C911C9784
:10134000882309F46BC067EE71E08D919C910E9437
:101350000703F801A080B180D70114964D915D91EB
:101360006D917C9117972AE0C5010E94A802C501E2
:101370000E94F10253C0F8018485882311F160EFC7
:1013800071E0808191810E940703D70114964D91ED
:101390005D916D917C9117972AE0F8018081918190
:1013A0000E94A80268EF71E0D8018D919C910E9483
:1013B0000703F70162817381D8018D919C910E948E
:1013C0003F0BF701A481B5818D919C9111970097F6
:1013D00009F059C012962D913C911397232B09F0D7
:1013E00052C01AC06AEF71E0D8018D919C910E94A1
:1013F000F502D8011896ED91FC911997309761F09C
:1014000009950AC0F8018485882331F065E072E00F
:10141000808191810E94F502E12CF12CD801549633
:101420001C921E92539755961C92E114F10409F4F4
:1014300097CEC70158C0F8014589442371F08C3D0F
:10144000910531F08D3D910529F48BED90E002C0BE
:1014500080EC90E0D80155961C92F80141895289A0
:101460002417350708F07CCE47855089B9016F5F96
:101470007F4F748B638BFA01E20FF31F808370CE72
:1014800080E090E030C0FE82ED82E8E0EE0EF11CDC
:10149000FC82EB821A8219821296ED91FC911397CD
:1014A000309709F4B9CF0097D1F014962D913C9163
:1014B0001597A9015595479520FF0AC0DC01A40F97
:1014C000B51F2D913C91E20FF31F0190F081E02DAB
:1014D000BE016F5F7F4F840F951F09959DCFCE0191
:1014E0000196099599CF26960FB6F894DEBF0FBEE8
:1014F000CDBFDF91CF911F910F91FF90EF90DF90C3
:10150000BF90AF909F908F900895EF92FF920F93AE
:101510001F93CF93DF93CDB7DEB7CA50D1400FB63C
:10152000F894DEBF0FBECDBF85EA93E00E949D0810
:101530008EE00E948A03892B89F58091E10288233D
:1015400069F18BE092E00E94810C8E010F5F1F4FCA
:101550008AE091E0F8019C01119221503040E1F7BE
:10156000C8010E94330C7C01883C910561F468E459
:1015700072E088E093E00E94F502B80188E093E011
:101580000E94F5020BC063E772E088E093E00E94DE
:101590000703B70188E093E00E943F0B8FE00E94B1
:1015A0008A03892B89F58091E102882369F180E91A
:1015B00092E00E94810C8E010F5F1F4F8AE091E044
:1015C000F8019C01119221503040E1F7C8010E94BE
:1015D000330C7C01883C910561F468E472E088E09A
:1015E00093E00E94F502B80188E093E00E94F502C2
:1015F0000BC063E772E088E093E00E940703B70145
:1016000088E093E00E943F0BC65FDE4F0FB6F89470
:10161000DEBF0FBECDBFDF91CF911F910F91FF9025
:10162000EF9008951F93CF93DF93E6EFF0E094914E
:10163000E2EEF0E0D491EEECF0E0C491CC23D9F0EE
:10164000182F992319F0892F0E946103EC2FF0E0E5
:10165000EE0FFF1FEC54FF4FA591B4918FB7F89494
:10166000111105C09C91ED2FE095E92302C0EC918A
:10167000ED2BEC938FBFDF91CF911F9108950F93C6
:101680001F93CF93DF93EC01AB0160E070E02AE0A1
:101690000E94A8028C01CE010E94F102800F911FCE
:1016A000DF91CF911F910F910895CF92DF92EF922A
:1016B000FF92CF93DF93EC010E94B3036B017C0197
:1016C0000E94B303AB01BC014C195D096E097F098F
:1016D000403D57406105710530F4CE010E949D08E0
:1016E000009771F302C080E090E0DF91CF91FF900E
:1016F000EF90DF90CF900895AF92BF92CF92DF929C
:10170000EF92FF920F931F93CF93DF938091AF03DC
:101710009091B003DC01ED91FC910190F081E02DFE
:1017200060EC099587EA93E06C01990FEE08FF08D9
:1017300000E010E0A701960161E070E085EA93E027
:101740000E94D40785EA93E00E94B8040091AD039B
:101750001091AE031092AE031092AD0385EA93E0B0
:101760000E94550BEC01892BA9F14C815D816E81A2
:101770007F818091B1034C155D056E057F0581F475
:10178000882341F06FEF71E08091A5039091A6034B
:101790000E94F5021093AE030093AD0381E01FC0D9
:1017A0008823E1F26EEC72E08091A5039091A6038C
:1017B0000E940703A090A503B090A6034C815D8111
:1017C0006E817F812AE0C5010E94A802C5010E94A6
:1017D000F102C4CF1093AE030093AD0380E0DF911C
:1017E000CF911F910F91FF90EF90DF90CF90BF901E
:1017F000AF900895CF92DF92EF92FF920F931F93D5
:10180000CF93DF93EC016B01770FEE08FF08F7FE33
:1018100016C0E881F9810190F081E02D6DE2099513
:101820008C0144275527BA014C195D096E097F09BF
:101830002AE0CE010E94A802080F191F06C02AE064
:10184000B701A6010E94A8028C01CE010E94F102FC
:10185000800F911FDF91CF911F910F91FF90EF901B
:10186000DF90CF900895CF92DF92EF92FF92CF93C7
:10187000DF93EC010E94B3036B017C0180910203B2
:1018800090910303892BA1F40E94B303AB01BC0127
:101890004C195D096E097F0948385341610571058E
:1018A00038F48091FA029091FB020E949D08E6CFE5
:1018B0008091020390910303892BD1F0409104039E
:1018C000509105034B3081E0580710F04AE051E099
:1018D0006091060370910703CE010E94151180915B
:1018E000020390910303109203031092020302C0BB
:1018F00080E090E0DF91CF91FF90EF90DF90CF906C
:1019000008950F931F93CF93DF93109203031092C8
:1019100002032091F6023091F7024091F8025091B3
:10192000F90257FD2EC0EC0102E010E065E170E025
:101930008091FA029091FB020E94D40743E050E0AC
:1019400064ED72E08091FA029091FB020E947107AF
:10195000FE0101900020E9F73197AF014C1B5D0BB0
:10196000BE018091FA029091FB020E947107809162
:10197000FA029091FB02DF91CF911F910F910C948D
:10198000B804DF91CF911F910F910895CF93DF930A
:10199000CDB7DEB727970FB6F894DEBF0FBECDBF29
:1019A000789484B5826084BD84B5816084BD85B53A
:1019B000826085BD85B5816085BD80916E00816046
:1019C00080936E00109281008091810082608093EC
:1019D00081008091810081608093810080918000EE
:1019E0008160809380008091B10084608093B10019
:1019F0008091B00081608093B00080917A00846013
:101A000080937A0080917A00826080937A0080913E
:101A10007A00816080937A0080917A008068809358
:101A20007A001092C100E0911803F091190382E04E
:101A30008083E0911403F09115031082E091160366
:101A4000F09117038FEC808310922003E0911C0328
:101A5000F0911D0386E08083E0911A03F0911B034F
:101A6000808180618083E0911A03F0911B03808163
:101A700088608083E0911A03F0911B038081806865
:101A80008083E0911A03F0911B0380818F7D808316
:101A900064E271E088E093E00E94F50262E08EE08B
:101AA0000E949F0162E08FE00E949F0161E080E15F
:101AB0000E949F018BE197E09093AA038093A90372
:101AC0000E947C0B811107C068E371E088E093E01D
:101AD0000E94F502F5CF6EE771E088E093E00E9486
:101AE000F5021A8219821C821B821E821D8267E9FE
:101AF00070E0CE0101960E94800280E290E00E9498
:101B00000C0F8C0180E2F80111928A95E9F7F80137
:101B100011821082138212821582148260E070E0BA
:101B2000C8010E944702811104C0C8010E946E02D0
:101B300009C0F8011582148268E171E08081918109
:101B40000E942711F80117821682118610861586C9
:101B5000148617861686138A128A158A148A118E9D
:101B6000108E138E128ECE0101967C010817190774
:101B7000C9F0C980DA80C114D10489F0AD80BE807B
:101B8000B501C8010E944702882349F0F801B582D7
:101B9000A482B601808191810E94271103C0C801EF
:101BA0000E946E028091EC029091ED02F801978FF5
:101BB000868F1093ED020093EC0289819A810E9436
:101BC000A10F8AE896E0F801938F828F81E598E073
:101BD0009093AE038093AD030E94510880E99FE18A
:101BE0009A8389831F8286EF92E09093FD0280930F
:101BF000FC028EE494E09093FF028093FE02109228
:101C000001031092000303E010E02CEF32E0032EFA
:101C1000000C440B550B64E170E08091FA02909146
:101C2000FB020E94D4074CE050E06FE471E0809129
:101C3000FA029091FB020E94710742E050E0B70166
:101C40008091FA029091FB020E94710741E050E0FE
:101C5000BE01695F7F4F8091FA029091FB020E9462
:101C600071078091FA029091FB020E94B804809162
:101C7000FA029091FB020E94550B009791F0FC0133
:101C8000448155816681778177FD0BC04093F602D0
:101C90005093F7026093F8027093F90200E010E0AD
:101CA00003C0FC01048115810115110561F06CE58B
:101CB00071E088E093E00E940703B80188E093E0B8
:101CC0000E94FA0BFFCF60E771E088E093E00E948A
:101CD000F5020E94850A0E949501FBCFE8E0F3E03F
:101CE0001382128288EE93E0A0E0B0E084839583B3
:101CF000A683B7838AE091E09183808385EC90E0AE
:101D00009587848784EC90E09787868780EC90E0C5
:101D1000918B808B81EC90E0938B828B82EC90E0B6
:101D2000958B848B86EC90E0978B868B118E128E30
:101D3000138E148EA5EAB3E01196FC93EE931396DE
:101D40001C921E92129715961C921E9214971B9627
:101D5000FC93EE931A9781E01C968C931C978BEB67
:101D600093E050969C938E931F9780E890E0529654
:101D70009C938E93519754961C921E92539755960E
:101D80001C925597E6EFF2E01782168211861086B4
:101D9000B583A4834FEF5FEFBA0140835183628321
:101DA0007383E4EEF2E0B183A0831186108613867C
:101DB000128615861486F093E302E093E2028EEC1D
:101DC00094E0978786870895A1E21A2EAA1BBB1B71
:101DD000FD010DC0AA1FBB1FEE1FFF1FA217B307F7
:101DE000E407F50720F0A21BB30BE40BF50B661F0D
:101DF000771F881F991F1A9469F7609570958095D1
:101E000090959B01AC01BD01CF010895EE0FFF1F1E
:101E10000590F491E02D0994CF93DF9382309105E2
:101E200010F482E090E0E0913D04F0913E0420E067
:101E300030E0C0E0D0E0309711F140815181481787
:101E40005907C0F04817590761F4828193812097A0
:101E500019F09B838A832BC090933E0480933D04AA
:101E600026C02115310519F04217530718F49A01BD
:101E7000BE01DF01EF010280F381E02DDCCF2115EF
:101E8000310509F1281B390B2430310590F41296E5
:101E90008D919C9113976115710521F0FB0193833E
:101EA000828304C090933E0480933D04FD013296EA
:101EB00044C0FD01E20FF31F819391932250310939
:101EC0002D933C933AC020913B0430913C04232B4A
:101ED00041F4209102013091030130933C0420939E
:101EE0003B0420910001309101012115310541F49D
:101EF0002DB73EB74091040150910501241B350BCD
:101F0000E0913B04F0913C04E217F307A0F42E1B90
:101F10003F0B2817390778F0AC014E5F5F4F24174D
:101F2000350748F04E0F5F1F50933C0440933B042D
:101F30008193919302C0E0E0F0E0CF01DF91CF9177
:101F400008950F931F93CF93DF93009709F48CC0EC
:101F5000FC0132971382128200913D0410913E04DD
:101F60000115110581F420813181820F931F209189
:101F70003B0430913C042817390779F5F0933C0471
:101F8000E0933B0471C0D80140E050E0AE17BF07BA
:101F900050F412962D913C911397AD012115310506
:101FA00009F1D901F3CF9D01DA01338322836081E6
:101FB0007181860F971F8217930769F4EC012881BE
:101FC0003981260F371F2E5F3F4F318320838A814F
:101FD0009B8193838283452B29F4F0933E04E09305
:101FE0003D0442C01396FC93EE931297ED01499184
:101FF00059919E01240F351FE217F30771F4808178
:102000009181840F951F029611969C938E938281E5
:10201000938113969C938E931297E0E0F0E0D801A1
:1020200012968D919C911397009719F0F8018C01ED
:10203000F6CF8D919C9198012E5F3F4F820F931F99
:1020400020913B0430913C042817390769F43097FC
:1020500029F410923E0410923D0402C013821282B1
:1020600010933C0400933B04DF91CF911F910F919B
:102070000895A0E0B0E0EFE3F0E10C944211EC0130
:10208000009721F4CB010E940C0FB8C0FC01E60FB1
:10209000F71F9C0122503109E217F30708F4ACC086
:1020A000D9010D911C91119706171707B0F0053053
:1020B000110508F49FC0C80104978617970708F414
:1020C00099C002501109061B170B019311936D93D0
:1020D0007C93CF010E94A10F8DC05B01A01AB10AB1
:1020E0004C01800E911EA0913D04B0913E0440E051
:1020F00050E0E12CF12C109709F44AC0A815B9055D
:10210000D1F56D907C901197630182E0C80ED11CCF
:10211000CA14DB0480F1A3014A195B096A0182E059
:10212000C80ED11C1296BC9012971396AC91B5E0D4
:10213000CB16D10440F0B282A38351834083D901EE
:102140006D937C930AC00E5F1F4FC301800F911FD8
:10215000F90191838083EB2DFA2FE114F10431F022
:10216000D7011396FC93EE93129744C0F0933E046C
:10217000E0933D043FC08D919C91119748175907FA
:1021800008F4AC017D0112960D90BC91A02DB3CF47
:1021900080913B0490913C0488159905E1F4461721
:1021A0005707C8F48091000190910101009741F414
:1021B0008DB79EB74091040150910501841B950B8A
:1021C000E817F907C8F4F0933C04E0933B04F901E5
:1021D000718360830FC0CB010E940C0F7C010097BC
:1021E00059F0A801BE010E941511CE010E94A10F55
:1021F000C70104C0CE0102C080E090E0CDB7DEB7D9
:10220000EEE00C945E1181E090E0F8940C9475116E
:10221000FB01DC0104C08D910190801921F4415033
:102220005040C8F7881B990B0895FB01DC0102C0E0
:1022300001900D9241505040D8F70895FB01DC0108
:102240008D91019080190110D9F3990B0895FB012C
:10225000DC0101900D920020E1F70895FB01DC0103
:1022600005900D920020E1F70895FC0105900020F3
:10227000E9F7809590958E0F9F1F08952F923F92BA
:102280004F925F926F927F928F929F92AF92BF9286
:10229000CF92DF92EF92FF920F931F93CF93DF9332
:1022A000CDB7DEB7CA1BDB0B0FB6F894DEBF0FBE8F
:1022B000CDBF09942A88398848885F846E847D84DC
:1022C0008C849B84AA84B984C884DF80EE80FD80DE
:1022D0000C811B81AA81B981CE0FD11D0FB6F89454
:0E22E000DEBF0FBECDBFED010895F894FFCF15
:1022EE0000003F048000000000002C01A800F50053
:1022FE00D300E70073010D0A005245535420636F5B
:10230E0064652000454C2D436C69656E74207374B2
:10231E00617274696E672100454C2D436C69656E60
:10232E00742073796E63206661696C656421003177
:10233E0039322E3136382E312E3535005245535422
:10234E0020626567696E206661696C65643A20007B
:10235E00454C2D5245535420726561647900454CAD
:10236E002D436C69656E742073796E63656421000C
:10237E005749464920434F4E4E4543544544005716
:10238E00494649204E4F542052454144593A200067
:10239E00454C2D436C69656E74202872652D29732A
:1023AE0074617274696E672100454C433A20676F01
:1023BE00742000204000454C433A20496E76616CF3
:1023CE0069642043524300524553505F563A2000F1
:1023DE00524553505F43423A20004E4545445F53A9
:1023EE00594E432100434D443F3F002F6A736F6E99
:1023FE002E68746D3F747970653D636F6D6D616E9F
:10240E006426706172616D3D7377697463686C697F
:10241E00676874266964783D323926737769746308
:10242E0068636D643D4F6E004F64706F77696564CD
:10243E007A206E61207A61707974616E6965206AA6
:10244E00736F6E20646F20446F6D6F7469637A6171
:10245E003A20004E69652077796B6F6E616E6F2042
:10246E007A61707974616E6961204745543A200033
:10247E002F6A736F6E2E68746D3F747970653D634D
:10248E006F6D6D616E6426706172616D3D737769FB
:10249E007463686C69676874266964783D3239269E
:1024AE00737769746368636D643D4F66660042417D
:0824BE00443A20004745540098
:107800000C94343C0C94513C0C94513C0C94513CE1
:107810000C94513C0C94513C0C94513C0C94513CB4
:107820000C94513C0C94513C0C94513C0C94513CA4
:107830000C94513C0C94513C0C94513C0C94513C94
:107840000C94513C0C94513C0C94513C0C94513C84
:107850000C94513C0C94513C0C94513C0C94513C74
:107860000C94513C0C94513C11241FBECFEFD8E036
:10787000DEBFCDBF11E0A0E0B1E0ECE9FFE702C060
:1078800005900D92A230B107D9F712E0A2E0B1E065
:1078900001C01D92AD30B107E1F70E942D3D0C945F
:1078A000CC3F0C94003C982F959595959595959582
:1078B000905D8F708A307CF0282F295A8091C0000B
:1078C00085FFFCCF9093C6008091C00085FFFCCF60
:1078D0002093C6000895282F205DF0CF982F809127
:1078E000C00085FFFCCF9093C6000895EF92FF92F1
:1078F0000F931F93EE24FF2487018091C00087FD22
:1079000017C00894E11CF11C011D111D81E4E8164B
:1079100082E4F8068FE0080780E0180770F3E09132
:107920000401F091050109958091C00087FFE9CF1E
:107930008091C6001F910F91FF90EF9008950E94D3
:10794000763C982F8091C00085FFFCCF9093C600B5
:1079500091362CF490330CF09053892F089597555D
:10796000892F08951F930E949F3C182F0E949F3CCF
:107970001295107F810F1F9108951F93182F882350
:1079800021F00E94763C1150E1F71F9108951F935A
:10799000182F0E94763C803249F0809103018F5F5E
:1079A000809303018530C1F01F9108958091C0003C
:1079B00085FFFCCF84E18093C6008091C00085FFE5
:1079C000FCCF1093C6008091C00085FFFCCF80E102
:1079D0008093C6001F910895E0910401F091050184
:1079E00009951F9108950E94763C803241F0809164
:1079F00003018F5F80930301853081F008958091AA
:107A0000C00085FFFCCF84E18093C6008091C00058
:107A100085FFFCCF80E18093C6000895E0910401CA
:107A2000F09105010995089540E951E08823A1F0FE
:107A30002D9A28EE33E0FA013197F1F721503040CA
:107A4000D1F72D9828EE33E0FA013197F1F7215064
:107A50003040D1F7815061F708953F924F925F9285
:107A60006F927F928F929F92AF92BF92CF92DF924E
:107A7000EF92FF920F931F93CF93DF93000080E16B
:107A80008093C4001092C50088E18093C10086E015
:107A90008093C2005098589A259A81E00E94143D24
:107AA00024E1F22E9EE1E92E85E9D82E0FE0C02ECA
:107AB00010E1B12EAA24A394B1E49B2EA6E58A2E50
:107AC000F2E57F2EE0E26E2E79E4572E63E5462E36
:107AD00050E5352E0E94763C8033B1F18133B9F107
:107AE000803409F46FC0813409F476C0823409F41B
:107AF00085C0853409F488C0803531F1823521F1A3
:107B0000813511F1853509F485C0863509F48DC0BC
:107B1000843609F496C0843709F403C1853709F423
:107B200072C1863709F466C0809103018F5F80932C
:107B30000301853079F6E0910401F0910501099582
:107B40000E94763C803351F60E94F33CC3CF0E94E2
:107B5000763C803249F78091C00085FFFCCFF092DF
:107B6000C6008091C00085FFFCCF9092C600809136
:107B7000C00085FFFCCF8092C6008091C00085FFC9
:107B8000FCCF7092C6008091C00085FFFCCF609250
:107B9000C6008091C00085FFFCCF5092C600809146
:107BA000C00085FFFCCF4092C6008091C00085FFD9
:107BB000FCCF3092C6008091C00085FFFCCFB09210
:107BC000C60088CF0E94763C863808F4BDCF0E945C
:107BD000763C0E94F33C7ECF0E94763C803809F4CC
:107BE0009CC0813809F40BC1823809F43CC1883942
:107BF00009F48FC080E00E94C73C6CCF84E10E94F2
:107C0000BD3C0E94F33C66CF85E00E94BD3C0E94D3
:107C1000F33C60CF0E94763C809306010E94763C44
:107C2000809307010E94F33C55CF0E94763C80333D
:107C300009F41DC183E00E94BD3C80E00E94C73C66
:107C400049CF0E94763C809309020E94763C809343
:107C5000080280910C028E7F80930C020E94763C79
:107C6000853409F415C18091080290910902892B8D
:107C700089F000E010E00E94763CF801E85FFE4FDA
:107C800080830F5F1F4F80910802909109020817AF
:107C9000190788F30E94763C803209F045CF809125
:107CA0000C0280FF01C16091060170910701660F0F
:107CB000771F7093070160930601A0910802B091AD
:107CC00009021097C9F0E8E0F1E09B01AD014E0F09
:107CD0005F1FF999FECF32BD21BD819180BDFA9A17
:107CE000F99A2F5F3F4FE417F50799F76A0F7B1F4B
:107CF00070930701609306018091C00085FFFCCF5F
:107D0000F092C6008091C00085FFFCCFB092C60003
:107D1000E1CE83E00E94C73CDDCE82E00E94C73CFA
:107D2000D9CE0E94763C809309020E94763C8093D3
:107D300008028091060190910701880F991F909386
:107D40000701809306010E94763C853409F4A6C0A1
:107D500080910C028E7F80930C020E94763C8032D0
:107D600009F0B8CE8091C00085FFFCCFF092C6002C
:107D7000609108027091090261157105B9F140E046
:107D800050E080910C02A82FA170B82FB27011C0E2
:107D9000BB2309F45CC0E0910601F0910701319624
:107DA000F0930701E09306014F5F5F4F46175707B7
:107DB000E8F4AA2369F3F999FECF209106013091E6
:107DC000070132BD21BDF89A90B58091C00085FFB2
:107DD000FCCF9093C6002F5F3F4F30930701209355
:107DE00006014F5F5F4F4617570718F38091C00099
:107DF00085FDE5CE8091C00085FFF8CFE0CE81E023
:107E00000E94C73C67CE0E94763C803209F08CCE3F
:107E10008091C00085FFFCCFF092C6008091C00029
:107E200085FFFCCFE092C6008091C00085FFFCCFAB
:107E3000D092C6008091C00085FFFCCFC092C600E2
:107E40008091C00085FFFCCFB092C60043CEE09188
:107E50000601F091070194918091C00085FFFCCF4D
:107E60009093C6009CCF80E10E94C73C33CE0E9415
:107E7000763C0E94763C182F0E94763C112309F430
:107E800083C0113009F484C08FE00E94C73C22CE29
:107E900080910C02816080930C02E5CE80910C02EF
:107EA000816080930C0259CF809107018823880F4D
:107EB000880B8A2180930B02809106019091070123
:107EC000880F991F90930701809306018091080203
:107ED00080FF09C080910802909109020196909359
:107EE000090280930802F894F999FECF1127E091D6
:107EF0000601F0910701C8E0D1E08091080290915D
:107F00000902103091F40091570001700130D9F34B
:107F100003E000935700E89500915700017001308D
:107F2000D9F301E100935700E89509901990009169
:107F3000570001700130D9F301E000935700E89534
:107F40001395103498F011270091570001700130FB
:107F5000D9F305E000935700E895009157000170B0
:107F60000130D9F301E100935700E895329602976A
:107F700009F0C7CF103011F00296E5CF112480919F
:107F8000C00085FFB9CEBCCE8EE10E94C73CA2CD19
:0C7F900085E90E94C73C9ECDF894FFCF0D
:027F9C00800063
:040000030000780081
:00000001FF
