:100000000C947E000C94A6000C94A6000C94A60000
:100010000C94A6000C94A6000C94A6000C94A600C8
:100020000C94A6000C94A6000C94A6000C94A600B8
:100030000C94A6000C94A6000C94A6000C94A600A8
:100040000C9435040C94A6000C94A5030C947F0327
:100050000C94A6000C94A6000C94A6000C94A60088
:100060000C94A6000C94A60048616E646C65722026
:100070006E6F7420666F756E6420666F72205552C5
:100080004C3A0000000000240027002A0000000075
:10009000002300260029002F537465726F77616E6C
:1000A00069652E68746D6C2E6A736F6E0062746E73
:1000B0005F6F6E0000000000250028002B00040484
:1000C0000404040404040202020202020303030300
:1000D00003030102040810204080010204081020DC
:1000E00001020408102000000008000201000003C3
:1000F00004070000000000000000AF0D11241FBE27
:10010000CFEFD8E0DEBFCDBF12E0A0E0B1E0E0E786
:10011000F1E202C005900D92A432B107D9F723E0B5
:10012000A4E2B2E001C01D92AA38B207E1F710E0E4
:10013000CEE7D0E004C02197FE010E94470ECD37E4
:10014000D107C9F70E940D0C0C94B6100C94000056
:10015000CF92DF92EF92FF920F931F93CF93DF9393
:100160006C017A018B01C0E0D0E0CE15DF0589F08B
:10017000D8016D918D01D601ED91FC910190F08136
:10018000E02DC6010995892B11F47E0102C021964C
:10019000ECCFC701DF91CF911F910F91FF90EF90AE
:1001A000DF90CF900895FC01918D828D981761F0BA
:1001B000828DDF01A80FB11D5D968C91928D9F5F9E
:1001C0009F73928F90E008958FEF9FEF0895FC0149
:1001D000918D828D981731F0828DE80FF11D858DFC
:1001E00090E008958FEF9FEF0895FC01918D228D8F
:1001F000892F90E0805C9F4F821B91098F73992714
:10020000089583E592E00E94F50021E0892B09F42E
:1002100020E0822F0895FC01848DDF01A80FB11D1D
:10022000A35ABF4F2C91848D90E001968F7399272C
:10023000848FA689B7892C93A089B1898C91806419
:100240008C93938D848D981306C00288F389E02DDA
:1002500080818F7D80830895EF92FF920F931F938B
:10026000CF93DF93EC0181E0888F9B8D8C8D981369
:1002700005C0E889F989808185FD24C0F62E0B8DA3
:1002800010E00F5F1F4F0F731127E02E8C8DE812C7
:100290000CC00FB607FCFACFE889F989808185FF89
:1002A000F5CFCE010E940B01F1CF8B8DFE01E80F3F
:1002B000F11DE35AFF4FF0820B8FEA89FB898081A1
:1002C000806207C0EE89FF896083E889F9898081AF
:1002D0008064808381E090E0DF91CF911F910F9146
:1002E000FF90EF900895CF93DF93EC01888D8823E2
:1002F000C9F0EA89FB89808185FD05C0A889B98993
:100300008C9186FD0FC00FB607FCF5CF808185FF6D
:10031000F2CFA889B9898C9185FFEDCFCE010E94DB
:100320000B01E7CFDF91CF91089580E090E0892B1A
:1003300029F00E94010181110C9400000895CF93CF
:10034000DF9390E0FC01EE52FF4F2491FC01E25458
:10035000FF4F8491882361F190E0880F991FFC0181
:10036000ED57FF4FC591D491FC01EC54FF4FA5917F
:10037000B491611109C09FB7F894888120958223B8
:100380008883EC912E230BC0623061F49FB7F89400
:100390003881822F809583238883EC912E2B2C9398
:1003A0009FBF06C08FB7F894E8812E2B28838FBF9C
:1003B000DF91CF910895DC011296ED91FC91139796
:1003C0003097F1F02D913C91119721153105B1F045
:1003D00014964D915C911597CA019595879540FFAC
:1003E0000AC0D901A80FB91F4D915C91E40FF51F08
:1003F0000190F081E02D820F931F0994CB010994A5
:100400000895EF92FF920F931F93CF93DF93EC0128
:1004100088819981EC81FD81228133818217930744
:1004200060F5EA81FB81019111912EEF3FEF201BD6
:10043000310B7901A3E0EA22FF24FB83EA830196D2
:1004400099838883CB019A010417150708F4980152
:10045000260F371F8217930729F04191DC014D9336
:10046000CD01F8CF9701200F311F8A819B81280F82
:10047000391F3B832A83C80102C08FEF9FEFDF91B2
:10048000CF911F910F91FF90EF900895CF93DF933D
:10049000FC0180819181A481B58112962D913C91BE
:1004A000139782179307E0F4A281B3814D915D9178
:1004B000B383A283019691838083EB01B983A883E0
:1004C0002EEF3FEF241B350B23703327240F351FEE
:1004D00082819381280F391F33832283CA0102C08E
:1004E0008FEF9FEFDF91CF9108956115710579F03E
:1004F000FB0101900020E9F73197AF01461B570B34
:10050000DC01ED91FC910280F381E02D099480E003
:1005100090E008950E9444100F931F93CF93DF93B0
:10052000EC0188819981009729F02A813B81261767
:10053000370788F48B016F5F7F4F0E947A0F009717
:1005400061F0998388831B830A832C813D81232B4F
:1005500011F4FC01108281E001C080E0DF91CF91B5
:100560001F910F910895CF93DF93EC0188819981BA
:10057000009711F00E94E20E198218821D821C82DF
:100580001B821A82DF91CF910895EF92FF920F9311
:100590001F93CF93DF93EC018B016115710551F02F
:1005A000CB010E9476107C01BC01CE010E948C021E
:1005B000811104C0CE010E94B30207C0FD82EC820B
:1005C000B801888199810E946F10CE01DF91CF918F
:1005D0001F910F91FF90EF9008954F925F926F924D
:1005E0007F92EF92FF920F931F93CF93DF93CDB73C
:1005F000DEB7A1970FB6F894DEBF0FBECDBF7C016A
:10060000FA01CB0119A2223008F42AE08E010F5D15
:100610001F4F422E512C612C712CBF01A30192015E
:100620000E94250EF901CA01015011096A3014F423
:10063000605D01C0695CD8016C93232B242B252BB2
:1006400061F7B801C7010E947502A1960FB6F89430
:10065000DEBF0FBECDBFDF91CF911F910F91FF90F5
:10066000EF907F906F905F904F90089566E171E0FA
:100670000C9475020F931F93CF93DF93EC010E94AC
:1006800075028C01CE010E943603800F911FDF910D
:10069000CF911F910F9108950C9475020F931F93A2
:1006A000CF93DF936115710529F18B01EC01BC013A
:1006B000645F7F4F42E050E0C8010E940102EC817C
:1006C000FD818485882371F069E171E080819181E9
:1006D0000E944C036C857D85EC81FD818081918138
:1006E0000E94410BBE01605F7F4FC8010E9446021D
:1006F0009F878E87DF91CF911F910F9108951F9251
:100700000F920FB60F9211242F933F934F935F9345
:100710006F937F938F939F93AF93BF93EF93FF93C9
:1007200083E592E00E940B01FF91EF91BF91AF91A1
:100730009F918F917F916F915F914F913F912F91F9
:100740000F900FBE0F901F9018951F920F920FB62B
:100750000F9211242F938F939F93EF93FF93E09128
:100760006302F09164028081E0916902F0916A0273
:1007700082FD12C0908180916C028F5F8F732091F7
:100780006D02821751F0E0916C02F0E0ED5AFD4FDE
:10079000958F80936C0201C08081FF91EF919F91B2
:1007A0008F912F910F900FBE0F901F90189583304F
:1007B00081F028F4813099F08230A1F008958730DB
:1007C000A9F08830B9F08430D1F4809180008F7D19
:1007D00003C0809180008F7780938000089584B556
:1007E0008F7702C084B58F7D84BD08958091B0005D
:1007F0008F7703C08091B0008F7D8093B000089503
:10080000CF93DF93282F30E0F901EA51FF4F849115
:10081000F901EE52FF4FD491F901E254FF4FC49118
:10082000CC2391F081110E94D703EC2FF0E0EE0F62
:10083000FF1FE357FF4FA591B491EC91ED2381E0A9
:1008400090E021F480E002C080E090E0DF91CF9161
:1008500008952FB7F8946091290270912A0280912F
:100860002B0290912C022FBF08951F920F920FB66A
:100870000F9211242F933F938F939F93AF93BF9326
:100880008091290290912A02A0912B02B0912C0212
:100890003091280223E0230F2D3720F40196A11D6B
:1008A000B11D05C026E8230F0296A11DB11D20939E
:1008B00028028093290290932A02A0932B02B093DE
:1008C0002C028091240290912502A0912602B091E1
:1008D00027020196A11DB11D809324029093250249
:1008E000A0932602B0932702BF91AF919F918F9161
:1008F0003F912F910F900FBE0F901F901895462794
:10090000342F252FA901442784E0440F551F8A95D1
:10091000E1F742275327CA01892F992782958F70C3
:1009200048275927CA01882735E0969587953A9533
:10093000E1F7842795270895EF92FF920F931F9375
:10094000CF93DF937C01C901EB018B01040F151FCD
:10095000C017D10731F06991AC01C7010E947F0433
:10096000F7CFDF91CF911F910F91FF90EF900895F6
:10097000CF93DF93EC01BC01635F7F4F42E050E017
:100980000E9421078A859B85DC01ED91FC910190F5
:10099000F081E02D60ECDF91CF9109942F923F928E
:1009A0004F925F926F927F928F929F92AF92BF927F
:1009B000CF92DF92EF92FF920F931F93CF93DF932B
:1009C000CDB7DEB728970FB6F894DEBF0FBECDBF08
:1009D0008C012DB73EB738872F83E0902D02F09021
:1009E0002E0242E050E0BE016B5F7F4F0E94010289
:1009F000AD80BE80370132E0630E711C44E050E0F0
:100A0000B301C8010E940102270186E0480E511C73
:100A100042E050E0B201C8010E940102BE016D5FD8
:100A20007F4FC8010E9446024C01D7011896CD9015
:100A3000DC9019972B803C80C114D10449F1F60158
:100A4000848195818815990541F460817181A401A3
:100A5000C1010E944910892B31F0D6015E96CD90DC
:100A6000DC905F97E9CFB2E0AB16B10409F449C05E
:100A70001CF4B7FEC3C0F8C0F3E0AF16B10409F030
:100A8000F3C084E0882E912CE2E1CE0ED11C66C02A
:100A9000D701ED91FC918485882309F4E5C0C080DD
:100AA000D18008E610E0F8016491611103C000E014
:100AB00010E00DC0D601ED91FC910190F081E02D88
:100AC000C60109950F5F1F4F892B69F7F0CFD7013A
:100AD000ED91FC91808191810815190579F0DC0177
:100AE000ED91FC91AB81BC81A00FB11F0190F08111
:100AF000E02D6C9109950F5F1F4FE9CF0E943603DF
:100B0000B3C02DB63EB6BE016F5F7F4FC8010E94D5
:100B100046028C010196EDB7FEB7E81BF90B0FB644
:100B2000F894FEBF0FBEEDBF2DB73EB72F5F3F4F0E
:100B3000490169817A81A801C9010E945610F40116
:100B4000E00FF11F1082B401C60148960E94DB013C
:100B50000FB6F8943EBE0FBE2DBE50C0D8011496FD
:100B6000ED91FC911597828193818816990608F082
:100B70007BC0BE016F5F7F4FC8010E944602498063
:100B80005A80D2011196FD0101900020E9F73197BA
:100B90005F01AA1ABB0A3C016A187B08C3010197CE
:100BA0000E944D0ED7011B969C938E931A97A3011A
:100BB00042505109FC01E40FF51F1082B5016E5F30
:100BC0007F4F640D751D1A968D919C911B970E9405
:100BD000561069817A816F5F7F4FC6010E94DB01E9
:100BE000F701828593850E94E20ED7011B961C9225
:100BF0001E921A97BFEF8B1A9B0AB0CF0FEF10E02F
:100C000024E630E040E050E06FE170E0F7018081E1
:100C100091810E949E0744E050E0B301D7018D917D
:100C20009C910E943B0742E050E0B201F7018081B5
:100C300091810E943B07D6016D917C91C601AB2842
:100C400011F4069601C00C960E94DB0140E050E0D2
:100C500060E070E0F701808191810E943B07D7013D
:100C60008D919C910E94B804EF81F8850FB6F8949D
:100C7000FEBF0FBEEDBF28960FB6F894DEBF0FBEC5
:100C8000CDBFDF91CF911F910F91FF90EF90DF903B
:100C9000CF90BF90AF909F908F907F906F905F901C
:100CA0004F903F902F900895CF93DF93EC018A856A
:100CB0009B85603CA1F06B3D21F5DC01ED91FC9141
:100CC0000190F081E02D6BED09958A859B85DC0113
:100CD000ED91FC910190F081E02D6DED18C0DC01EB
:100CE000ED91FC910190F081E02D6BED09958A85E5
:100CF0009B85DC01ED91FC910190F081E02D6CED84
:100D000006C0DC01ED91FC910190F081E02DDF91B6
:100D1000CF910994EF92FF920F931F93CF93DF939C
:100D2000CDB7DEB72C970FB6F894DEBF0FBECDBFA0
:100D30007C011A8219821C821B821E821D820097EE
:100D4000D9F0FC0101900020E9F731978F01081BD1
:100D5000190BB801CE0101960E948C02811105C0C9
:100D6000CE0101960E94B30207C01E830D83B70116
:100D700089819A810E94681018861F821A861986B6
:100D80001C861B866DEA70E0CE0107960E94C502A4
:100D90002D813E818B859C85EF80F884281739074B
:100DA00021F589819A81009719F0E114F104B9F4D1
:100DB000E114F10459F02115310541F0F7012081CA
:100DC00030E088279927821B930B0CC0009779F09D
:100DD000232B69F0FC019081892F90E003C0B701BB
:100DE0000E945F1011E0892B19F010E001C011E0A2
:100DF000C7010E94E20E112319F081E00E94590AF6
:100E000060E971E083E592E00E943A030E942904C0
:100E1000683E73408105910518F080E00E94590AF0
:100E200089819A810E94E20E2C960FB6F894DEBF5B
:100E30000FBECDBFDF91CF911F910F91FF90EF902B
:100E40000895EF92FF920F931F93CF93DF937C014E
:100E5000EB018B01040F151FC017D10729F0699111
:100E6000C7010E945406F8CFDF91CF911F910F91D7
:100E7000FF90EF900895CF92DF92EF92FF920F9341
:100E80001F93CF93DF9300D0CDB7DEB78C017B01EA
:100E90005A83498342E050E0BE016F5F7F4F0E945A
:100EA0002107F8012585368542E050E0BE016F5FDD
:100EB0007F4FC8010E949C04F80196878587C980EE
:100EC000DA80CE0CDF1CEC14FD0491F0F701608198
:100ED000C8010E945406F80145855685F7016191C5
:100EE0007F01C8010E947F04F80196878587EBCFB8
:100EF000E980FA80F194E194F108F3E0EF22FF2415
:100F0000F1E0EF1AF10878F060E0C8010E945406A1
:100F1000F8014585568560E0C8010E947F04F8010C
:100F200096878587EDCF0F900F90DF91CF911F911E
:100F30000F91FF90EF90DF90CF900895EF92FF9286
:100F40000F931F93CF93DF93CDB7DEB728970FB6DC
:100F5000F894DEBF0FBECDBF7C017A8369832B83FB
:100F60003C834D835E8318870F83DC011E961C92A1
:100F70001E921D971A968D919C911B97DC01ED9105
:100F8000FC910190F081E02D60EC099542E050E089
:100F9000BE016F5F7F4FC7010E942107F7012585C2
:100FA000368542E050E0BE016F5F7F4FC7010E946F
:100FB0009C04D7011E969C938E931D9742E050E0AF
:100FC000BE01695F7F4FC7010E942107F701258598
:100FD000368542E050E0BE01695F7F4FC7010E9445
:100FE0009C04D7011E969C938E931D9744E050E07D
:100FF000BE016D5F7F4FC7010E942107F701258564
:10100000368544E050E0BE016D5F7F4FC7010E940E
:101010009C04D7011E969C938E931D9728960FB61D
:10102000F894DEBF0FBECDBFDF91CF911F910F911E
:10103000FF90EF9008950F931F93CF93DF9300D00D
:1010400000D0CDB7DEB76EEB71E083E592E00E9491
:101050003A030E94C30A811103C068E371E0F5CF2F
:101060006EE771E083E592E00E943A0301E010E050
:1010700020E030E0A9016EE170E080912F029091B4
:1010800030020E949E078BE392E0092E000CAA0B0F
:10109000BB0B89839A83AB83BC8344E050E0BE01E1
:1010A0006F5F7F4F80912F02909130020E943B072B
:1010B00080912F02909130020E94B8040F900F90FF
:1010C0000F900F90DF91CF911F910F9108958F9204
:1010D0009F92AF92BF92DF92EF92FF920F931F9376
:1010E000CF93DF9300D000D000D0CDB7DEB78C0116
:1010F000DD24D394D8011A968D919C911B97DC0125
:10110000ED91FC910480F581E02D0995892B09F47E
:1011100081C1D8011A968D919C911B97DC01ED91AC
:10112000FC910680F781E02D09958B3D910519F41E
:10113000F801D58ADFCFD80153962D913C91549771
:10114000803C910509F041C12830310508F42EC1D9
:10115000F801E784F0888485882309F484C067ED6A
:1011600071E0808191810E944C03D80153964D918A
:101170005C91549760E070E02AE08D919C910E9410
:10118000ED0261EE71E0F801808191810E944C03D3
:10119000D8011F964D915C915097052E000C660B5F
:1011A000770B20E18D919C910E94ED0265E072E049
:1011B000F801808191810E944C03D7014D915C918F
:1011C00060E070E020E1F801808191810E94ED02F1
:1011D00066E072E0D8018D919C910E944C03F7016A
:1011E000448155816681778120E1D8018D919C9160
:1011F0000E94ED0266E072E0F801808191810E9418
:101200004C03D70112964D915C91139760E070E00A
:1012100020E1F801808191810E94ED0248E0A42E36
:10122000B12CF8012389348980819181A216B306FB
:10123000C0F466E072E00E944C03D8011F96ED9165
:10124000FC915097EA0DFB1D408150E060E070E09A
:1012500020E18D919C910E94ED02BFEFAB1ABB0A79
:10126000E0CF0E943603D8015396AD90BC905497BE
:10127000B2E0AB1AB108F8018784908820E030E032
:10128000A501B401C8010E949C04F401EA0DFB1DF4
:10129000208131818217930761F0D8011C968C91CF
:1012A0001C97882309F482C064EE71E08D919C91B3
:1012B0007BC0F701808191818230910539F08330C4
:1012C000910519F1019709F067C056C0D8011C9625
:1012D0008C911C97882309F46BC065EF71E08D91A8
:1012E0009C910E944C03F801A080B180D701149614
:1012F0004D915D916D917C9117972AE0C5010E94F7
:10130000ED02C5010E94360353C0F801848588238D
:1013100011F16EEF71E0808191810E944C03D70141
:1013200014964D915D916D917C9117972AE0F8018B
:10133000808191810E94ED0266E072E0D8018D917A
:101340009C910E944C03F70162817381D8018D91B9
:101350009C910E94860AF701A481B5818D919C9190
:101360001197009709F059C012962D913C9113974F
:10137000232B09F052C01AC068E072E0D8018D91A9
:101380009C910E943A03D8011896ED91FC9119970F
:10139000309761F009950AC0F8018485882331F0FF
:1013A00063E172E0808191810E943A03E12CF12C8B
:1013B000D80154961C921E92539755961C92E11494
:1013C000F10409F497CEC70158C0F80145894423B8
:1013D00071F08C3D910531F08D3D910529F48BED37
:1013E00090E002C080EC90E0D80155961C92F80184
:1013F000418952892417350708F07CCE47855089EA
:10140000B9016F5F7F4F748B638BFA01E20FF31F9B
:10141000808370CE80E090E030C0FE82ED82E8E014
:10142000EE0EF11CFC82EB821A8219821296ED916B
:10143000FC911397309709F4B9CF0097D1F0149627
:101440002D913C911597A9015595479520FF0AC00C
:10145000DC01A40FB51F2D913C91E20FF31F019009
:10146000F081E02DBE016F5F7F4F840F951F0995BE
:101470009DCFCE010196099599CF26960FB6F89487
:10148000DEBF0FBECDBFDF91CF911F910F91FF90B7
:10149000EF90DF90BF90AF909F908F90089580EF76
:1014A00092E00E9467088EE00E9400048FE00C9496
:1014B00000041F93CF93DF93E6EFF0E09491E2EE08
:1014C000F0E0D491EEECF0E0C491CC23D9F0182FE9
:1014D000992319F0892F0E94D703EC2FF0E0EE0F2B
:1014E000FF1FEC54FF4FA591B4918FB7F8941111E1
:1014F00005C09C91ED2FE095E92302C0EC91ED2B06
:10150000EC938FBFDF91CF911F9108950F931F939D
:10151000CF93DF93EC01AB0160E070E02AE00E9422
:10152000ED028C01CE010E943603800F911FDF91E6
:10153000CF911F910F910895CF92DF92EF92FF927A
:10154000CF93DF93EC010E9429046B017C010E9480
:101550002904AB01BC014C195D096E097F09403DAE
:1015600057406105710530F4CE010E94670800976D
:1015700071F302C080E090E0DF91CF91FF90EF9097
:10158000DF90CF900895AF92BF92CF92DF92EF920B
:10159000FF920F931F93CF93DF938091FA02909164
:1015A000FB02DC01ED91FC910190F081E02D60ECFB
:1015B000099582EF92E06C01990FEE08FF0800E0B8
:1015C00010E0A701960161E070E080EF92E00E94D8
:1015D0009E0780EF92E00E94B8040091F8021091FB
:1015E000F9021092F9021092F80280EF92E00E9444
:1015F0009C0AEC01892BA9F14C815D816E817F8170
:101600008091FC024C155D056E057F0581F48823F1
:1016100041F06DE072E08091F0029091F1020E9441
:101620003A031093F9020093F80281E01FC0882367
:10163000E1F269E172E08091F0029091F1020E9482
:101640004C03A090F002B090F1024C815D816E815C
:101650007F812AE0C5010E94ED02C5010E94360388
:10166000C4CF1093F9020093F80280E0DF91CF918C
:101670001F910F91FF90EF90DF90CF90BF90AF90B0
:101680000895CF92DF92EF92FF920F931F93CF9323
:10169000DF93EC016B01770FEE08FF08F7FE16C031
:1016A000E881F9810190F081E02D6DE209958C01CE
:1016B00044275527BA014C195D096E097F092AE0B4
:1016C000CE010E94ED02080F191F06C02AE0B701E3
:1016D000A6010E94ED028C01CE010E943603800F0C
:1016E000911FDF91CF911F910F91FF90EF90DF90AD
:1016F000CF900895CF92DF92EF92FF92CF93DF9336
:10170000EC010E9429046B017C0180914D029091B3
:101710004E02892BA1F40E942904AB01BC014C1993
:101720005D096E097F09483853416105710538F438
:1017300080914502909146020E946708E6CF809111
:101740004D0290914E02892BD1F040914F02509161
:1017500050024B3081E0580710F04AE051E06091B0
:10176000510270915202CE010E94561080914D029A
:1017700090914E0210924E0210924D0202C080E0F3
:1017800090E0DF91CF91FF90EF90DF90CF900895A0
:101790000F931F93CF93DF9310924E0210924D023E
:1017A0002091410230914202409143025091440203
:1017B00057FD2EC0EC0102E010E065E170E0809181
:1017C0004502909146020E949E0743E050E06FE17F
:1017D00072E080914502909146020E943B07FE0113
:1017E00001900020E9F73197AF014C1B5D0BBE0162
:1017F00080914502909146020E943B0780914502EC
:1018000090914602DF91CF911F910F910C94B804F3
:10181000DF91CF911F910F910895CF93DF93CDB7B3
:10182000DEB727970FB6F894DEBF0FBECDBF789412
:1018300084B5826084BD84B5816084BD85B58260D5
:1018400085BD85B5816085BD80916E008160809386
:101850006E001092810080918100826080938100EF
:1018600080918100816080938100809180008160FF
:10187000809380008091B10084608093B10080915A
:10188000B00081608093B00080917A008460809382
:101890007A0080917A00826080937A0080917A0049
:1018A000816080937A0080917A00806880937A00CA
:1018B0001092C100E0916302F091640282E08083A3
:1018C000E0915F02F09160021082E0916102F0917C
:1018D00062028FEC808310926B02E0916702F091BC
:1018E000680286E08083E0916502F0916602808163
:1018F00080618083E0916502F0916602808188605A
:101900008083E0916502F091660280818068808327
:10191000E0916502F091660280818F7D808364E2B0
:1019200071E083E592E00E943A0362E08EE00E945B
:101930009F0162E08FE00E949F0161E080E10E94D0
:101940009F010E94C30A811107C068E371E083E52B
:1019500092E00E943A03F5CF6EE771E083E592E0F2
:101960000E943A031A8219821C821B821E821D82E7
:1019700067E970E0CE0101960E94C50280E290E026
:101980000E944D0E8C0180E2F80111928A95E9F7D0
:10199000F80111821082138212821582148260E093
:1019A00070E0C8010E948C02811104C0C8010E942D
:1019B000B30209C0F8011582148268E171E08081E8
:1019C00091810E946810F801178216821186108694
:1019D0001586148617861686138A128A158A148A23
:1019E000118E108E138E128ECE0101967C01081777
:1019F0001907C9F0C980DA80C114D10489F0AD801B
:101A0000BE80B501C8010E948C02882349F0F8010C
:101A1000B582A482B601808191810E94681003C0C2
:101A2000C8010E94B3028091370290913802F801F8
:101A3000978F868F109338020093370289819A819D
:101A40000E94E20E8AE896E0F801938F828F8BE184
:101A500098E09093F9028093F8020E941B0880E9B5
:101A60009FE19A8389831F8281E492E090934802E8
:101A7000809347028EE493E090934A028093490258
:101A800010924C0210924B0203E010E027E432E087
:101A9000032E000C440B550B64E170E0809145026D
:101AA000909146020E949E074CE050E06FE471E086
:101AB00080914502909146020E943B0742E050E02F
:101AC000B70180914502909146020E943B0741E098
:101AD00050E0BE01695F7F4F8091450290914602C0
:101AE0000E943B0780914502909146020E94B804F3
:101AF00080914502909146020E949C0A009791F0C5
:101B0000FC01448155816681778177FD0BC040934C
:101B1000410250934202609343027093440200E0FA
:101B200010E003C0FC01048115810115110561F06D
:101B30006CE571E083E592E00E944C03B80183E517
:101B400092E00E94410BFFCF60E771E083E592E0F5
:101B50000E943A030E944F0A0E949501FBCFE3E5E1
:101B6000F2E01382128288EE93E0A0E0B0E084837A
:101B70009583A683B7838AE091E09183808385EC87
:101B800090E09587848784EC90E09787868780EC47
:101B900090E0918B808B81EC90E0938B828B82EC38
:101BA00090E0958B848B86EC90E0978B868B118EE2
:101BB000128E138E148EA0EFB2E01196FC93EE936A
:101BC00013961C921E92129715961C921E921497B1
:101BD0001B96FC93EE931A9781E01C968C931C97AE
:101BE00086E093E050969C938E931F9780E890E058
:101BF00052969C938E93519754961C921E92539793
:101C000055961C925597E1E4F2E0178216821186F0
:101C10001086B583A4834FEF5FEFBA0140835183F1
:101C200062837383EFE2F2E0B183A08311861086B2
:101C30001386128615861486F0932E02E0932D02E9
:101C40008EEC94E0978786870895A1E21A2EAA1B4E
:101C5000BB1BFD010DC0AA1FBB1FEE1FFF1FA2175C
:101C6000B307E407F50720F0A21BB30BE40BF50B59
:101C7000661F771F881F991F1A9469F760957095E2
:101C8000809590959B01AC01BD01CF010895EE0FA9
:101C9000FF1F0590F491E02D0994CF93DF938230DC
:101CA000910510F482E090E0E0918803F0918903BF
:101CB00020E030E0C0E0D0E0309711F14081518168
:101CC00048175907C0F04817590761F4828193817A
:101CD000209719F09B838A832BC09093890380936C
:101CE000880326C02115310519F04217530718F44F
:101CF0009A01BE01DF01EF010280F381E02DDCCF0C
:101D00002115310509F1281B390B2430310590F4D8
:101D100012968D919C9113976115710521F0FB012D
:101D20009383828304C09093890380938803FD0189
:101D3000329644C0FD01E20FF31F8193919322502C
:101D400031092D933C933AC020918603309187034B
:101D5000232B41F42091020130910301309387033A
:101D60002093860320910001309101012115310556
:101D700041F42DB73EB74091040150910501241B59
:101D8000350BE0918603F0918703E217F307A0F487
:101D90002E1B3F0B2817390778F0AC014E5F5F4FC1
:101DA0002417350748F04E0F5F1F50938703409369
:101DB00086038193919302C0E0E0F0E0CF01DF91D0
:101DC000CF9108950F931F93CF93DF93009709F45A
:101DD0008CC0FC013297138212820091880310910B
:101DE00089030115110581F420813181820F931F30
:101DF00020918603309187032817390779F5F093EE
:101E00008703E093860371C0D80140E050E0AE172D
:101E1000BF0750F412962D913C911397AD012115F7
:101E2000310509F1D901F3CF9D01DA013383228312
:101E300060817181860F971F8217930769F4EC0107
:101E400028813981260F371F2E5F3F4F3183208332
:101E50008A819B8193838283452B29F4F0938903A4
:101E6000E093880342C01396FC93EE931297ED0122
:101E7000499159919E01240F351FE217F30771F420
:101E800080819181840F951F029611969C938E9369
:101E90008281938113969C938E931297E0E0F0E0F9
:101EA000D80112968D919C911397009719F0F80123
:101EB0008C01F6CF8D919C9198012E5F3F4F820F40
:101EC000931F20918603309187032817390769F4FF
:101ED000309729F4109289031092880302C013826C
:101EE00012821093870300938603DF91CF911F9195
:101EF0000F910895A0E0B0E0E0E8FFE00C948310BB
:101F0000EC01009721F4CB010E944D0EB8C0FC01FA
:101F1000E60FF71F9C0122503109E217F30708F47E
:101F2000ACC0D9010D911C91119706171707B0F09D
:101F30000530110508F49FC0C8010497861797075C
:101F400008F499C002501109061B170B0193119355
:101F50006D937C93CF010E94E20E8DC05B01A01AAD
:101F6000B10A4C01800E911EA0918803B0918903A3
:101F700040E050E0E12CF12C109709F44AC0A8157C
:101F8000B905D1F56D907C901197630182E0C80E80
:101F9000D11CCA14DB0480F1A3014A195B096A0150
:101FA00082E0C80ED11C1296BC9012971396AC9189
:101FB000B5E0CB16D10440F0B282A38351834083B5
:101FC000D9016D937C930AC00E5F1F4FC301800F30
:101FD000911FF90191838083EB2DFA2FE114F10415
:101FE00031F0D7011396FC93EE93129744C0F0930F
:101FF0008903E09388033FC08D919C911197481706
:10200000590708F4AC017D0112960D90BC91A02DEA
:10201000B3CF809186039091870388159905E1F4E9
:1020200046175707C8F4809100019091010100976D
:1020300041F48DB79EB74091040150910501841B76
:10204000950BE817F907C8F4F0938703E09386032C
:10205000F901718360830FC0CB010E944D0E7C019A
:10206000009759F0A801BE010E945610CE010E94AF
:10207000E20EC70104C0CE0102C080E090E0CDB7FF
:10208000DEB7EEE00C949F1081E090E0F8940C94A1
:10209000B610FB01DC0104C08D910190801921F480
:1020A00041505040C8F7881B990B0895FB01DC0193
:1020B00002C001900D9241505040D8F70895FB01A5
:1020C000DC018D91019080190110D9F3990B0895CD
:1020D000FB01DC0101900D920020E1F70895FB0166
:1020E000DC0105900D920020E1F70895FC010590B8
:1020F0000020E9F7809590958E0F9F1F08952F92ED
:102100003F924F925F926F927F928F929F92AF9287
:10211000BF92CF92DF92EF92FF920F931F93CF93D4
:10212000DF93CDB7DEB7CA1BDB0B0FB6F894DEBF6B
:102130000FBECDBF09942A88398848885F846E8491
:102140007D848C849B84AA84B984C884DF80EE80DB
:10215000FD800C811B81AA81B981CE0FD11D0FB6E4
:10216000F894DEBF0FBECDBFED010895F894FFCF08
:1021700000008A038000000000002C01A800F50088
:10218000D300E70073010D0A005245535420636FDA
:1021900064652000454C2D436C69656E7420737432
:1021A000617274696E672100454C2D436C69656EE0
:1021B000742073796E63206661696C6564210031F7
:1021C00039322E3136382E312E35350052455354A2
:1021D00020626567696E206661696C65643A2000FB
:1021E000454C2D5245535420726561647900454C2D
:1021F0002D436C69656E742073796E63656421008C
:10220000576369736E6965746F2070727A79636958
:10221000736B207A616D796B616E69612F6F747772
:10222000696572616E6961206272616D7900454C09
:102230002D436C69656E74202872652D2973746155
:102240007274696E672100454C433A20676F7420B1
:1022500000204000454C433A20496E76616C696429
:102260002043524300524553505F563A2000524596
:1022700053505F43423A20004E4545445F53594E08
:10228000432100434D443F3F004241443A20004730
:0422900045540000B1
:00000001FF
