:100000000C947E000C94A6000C94A6000C94A60000
:100010000C94A6000C94A6000C94A6000C94A600C8
:100020000C94A6000C94A6000C94A6000C94A600B8
:100030000C94A6000C94A6000C94A6000C94A600A8
:100040000C948F030C94A6000C94FA0C0C94D40C12
:100050000C94A6000C94A6000C94A6000C94A60088
:100060000C94A6000C94A60062746E5F6F6E00483C
:10007000616E646C6572206E6F7420666F756E645D
:1000800020666F722055524C3A0000000000240098
:1000900027002A00000000002300260029002F531B
:1000A0007465726F77616E69652E68746D6C2E6A07
:1000B000736F6E0000000000250028002B00040470
:1000C0000404040404040202020202020303030300
:1000D00003030102040810204080010204081020DC
:1000E00001020408102000000008000201000003C3
:1000F00004070000000000000000550D11241FBE81
:10010000CFEFD8E0DEBFCDBF13E0A0E0B1E0E2E189
:10011000F4E202C005900D92A038B107D9F724E0AF
:10012000A0E8B3E001C01D92A83EB207E1F710E0DD
:10013000CEE7D0E004C02197FE010E94980FCD3792
:10014000D107C9F70E94CB0D0C9407120C94000044
:100150003FB7F8948091870390918803A091890319
:10016000B0918A0326B5A89B05C02F3F19F00196D0
:10017000A11DB11D3FBFBA2FA92F982F8827820F2D
:10018000911DA11DB11DBC01CD0142E0660F771F7D
:10019000881F991F4A95D1F70895DC011296ED91B9
:1001A000FC9113973097F1F02D913C911197211507
:1001B0003105B1F014964D915C911597CA01959552
:1001C000879540FF0AC0D901A80FB91F4D915C91D6
:1001D000E40FF51F0190F081E02D820F931F099429
:1001E000CB0109940895EF92FF920F931F93CF9341
:1001F000DF93EC0188819981EC81FD81228133813B
:100200008217930760F5EA81FB81019111912EEF2E
:100210003FEF201B310B7901A3E0EA22FF24FB838F
:10022000EA83019699838883CB019A010417150705
:1002300008F49801260F371F8217930729F0419180
:10024000DC014D93CD01F8CF9701200F311F8A813A
:100250009B81280F391F3B832A83C80102C08FEF7F
:100260009FEFDF91CF911F910F91FF90EF90089535
:10027000CF93DF93FC0180819181A481B581129697
:100280002D913C91139782179307E0F4A281B381DB
:100290004D915D91B383A283019691838083EB019D
:1002A000B983A8832EEF3FEF241B350B2370332730
:1002B000240F351F82819381280F391F33832283B6
:1002C000CA0102C08FEF9FEFDF91CF9108954627BB
:1002D000342F252FA901442784E0440F551F8A9508
:1002E000E1F742275327CA01892F992782958F70FA
:1002F00048275927CA01882735E0969587953A956A
:10030000E1F7842795270895EF92FF920F931F93AB
:10031000CF93DF937C01C901EB018B01040F151F03
:10032000C017D10731F06991AC01C7010E94670184
:10033000F7CFDF91CF911F910F91FF90EF9008952C
:10034000CF93DF93EC018A859B85603CA1F06B3DE8
:1003500021F5DC01ED91FC910190F081E02D6BED38
:1003600009958A859B85DC01ED91FC910190F081D6
:10037000E02D6DED18C0DC01ED91FC910190F08154
:10038000E02D6BED09958A859B85DC01ED91FC9153
:100390000190F081E02D6CED06C0DC01ED91FC9147
:1003A0000190F081E02DDF91CF910994EF92FF92BF
:1003B0000F931F93CF93DF937C01EB018B01040F0D
:1003C000151FC017D10729F06991C7010E94A0012C
:1003D000F8CFDF91CF911F910F91FF90EF9008958B
:1003E0000F931F93CF93DF936115710529F18B0153
:1003F000EC01BC01645F7F4F42E050E0C8010E9405
:10040000F300EC81FD818485882371F066E171E061
:10041000808191810E94540C6C857D85EC81FD81E9
:10042000808191810E94090CBE01605F7F4FC801ED
:100430000E9438019F878E87DF91CF911F910F9186
:100440000895CF93DF931F92CDB7DEB7DC011496EA
:10045000ED91FC911597228133812130310549F5C9
:1004600041E050E0BE016F5F7F4F0E94F300898141
:10047000853051F461E271E081EB93E00E94420C1F
:1004800081E08093800315C060E371E081EB93E02D
:100490000E94540C498150E060E070E02AE081EB5A
:1004A00093E00E94A60B81EB93E00E94EF0B109269
:1004B00080030F90DF91CF9108958F929F92AF921A
:1004C000BF92CF92DF92EF92FF921F93CF93DF9371
:1004D000CDB7DEB72C970FB6F894DEBF0FBECDBFF9
:1004E0006C011A8219821C821B821E821D82009757
:1004F000D9F0FC0101900020E9F731977F01E81A5B
:10050000F90AB701CE0101960E94450B811105C081
:10051000CE0101960E946C0B07C0FE82ED82B601EF
:1005200089819A810E94B91118861F821A861986BC
:100530001C861B8668E670E0CE0107960E947E0B43
:100540002D813E818B859C85EF80F88428173907A3
:1005500021F589819A81009719F0E114F104B9F429
:10056000E114F10459F02115310541F0F701208122
:1005700030E088279927821B930B0CC0009779F0F5
:10058000232B69F0FC019081892F90E003C0B70113
:100590000E94B01111E0892B19F010E001C011E0A8
:1005A000C7010E943310112319F080E00E94850AD0
:1005B00061E471E081EB93E00E94420C0E94A8008C
:1005C0004B015C0188EEC82E83E0D82EE12CF12C83
:1005D0000E94A800DC01CB0188199909AA09BB096E
:1005E000883E9340A105B10558F0F1E0CF1AD1083B
:1005F000E108F10828EE820E23E0921EA11CB11C36
:10060000C114D104E104F10419F781E00E94850AC4
:1006100089819A810E9433102C960FB6F894DEBF20
:100620000FBECDBFDF91CF911F91FF90EF90DF9074
:10063000CF90BF90AF909F908F900895833081F0BE
:1006400028F4813099F08230A1F008958730A9F024
:100650008830B9F08430D1F4809180008F7D03C060
:10066000809180008F7780938000089584B58F7784
:1006700002C084B58F7D84BD08958091B0008F77CE
:1006800003C08091B0008F7D8093B0000895CF9318
:10069000DF9390E0FC01EE52FF4F2491FC01E25405
:1006A000FF4F8491882361F190E0880F991FFC012E
:1006B000E657FF4FC591D491FC01EC54FF4FA59133
:1006C000B491611109C09FB7F89488812095822365
:1006D0008883EC912E230BC0623061F49FB7F894AD
:1006E0003881822F809583238883EC912E2B2C9345
:1006F0009FBF06C08FB7F894E8812E2B28838FBF49
:10070000DF91CF9108952FB7F89460918303709192
:10071000840380918503909186032FBF08951F92D3
:100720000F920FB60F9211242F933F938F939F93A5
:10073000AF93BF938091830390918403A09185032D
:10074000B09186033091820323E0230F2D3720F4EC
:100750000196A11DB11D05C026E8230F0296A11D1B
:10076000B11D209382038093830390938403A0930D
:100770008503B09386038091870390918803A091AD
:100780008903B0918A030196A11DB11D809387034F
:1007900090938803A0938903B0938A03BF91AF918C
:1007A0009F918F913F912F910F900FBE0F901F90AF
:1007B0001895CF93DF93EC01BC01635F7F4F42E05C
:1007C00050E00E94D6018A859B85DC01ED91FC9169
:1007D0000190F081E02D60ECDF91CF910994CF92F0
:1007E000DF92EF92FF920F931F93CF93DF9300D08E
:1007F000CDB7DEB78C017B015A83498342E050E0DC
:10080000BE016F5F7F4F0E94D601F80125853685B6
:1008100042E050E0BE016F5F7F4FC8010E9484013B
:10082000F80196878587C980DA80CE0CDF1CEC142E
:10083000FD0491F0F7016081C8010E94A001F80158
:1008400045855685F70161917F01C8010E946701C6
:10085000F80196878587EBCFE980FA80F194E194DF
:10086000F108F3E0EF22FF24F1E0EF1AF10878F04D
:1008700060E0C8010E94A001F8014585568560E04E
:10088000C8010E946701F80196878587EDCF0F9018
:100890000F90DF91CF911F910F91FF90EF90DF901C
:1008A000CF900895EF92FF920F931F93CF93DF9312
:1008B000CDB7DEB728970FB6F894DEBF0FBECDBF19
:1008C0007C017A8369832B833C834D835E83188705
:1008D0000F83DC011E961C921E921D971A968D9115
:1008E0009C911B97DC01ED91FC910190F081E02D32
:1008F00060EC099542E050E0BE016F5F7F4FC70199
:100900000E94D601F7012585368542E050E0BE0100
:100910006F5F7F4FC7010E948401D7011E969C9391
:100920008E931D9742E050E0BE01695F7F4FC70183
:100930000E94D601F7012585368542E050E0BE01D0
:10094000695F7F4FC7010E948401D7011E969C9367
:100950008E931D9744E050E0BE016D5F7F4FC7014D
:100960000E94D601F7012585368544E050E0BE019E
:100970006D5F7F4FC7010E948401D7011E969C9333
:100980008E931D9728960FB6F894DEBF0FBECDBF8D
:10099000DF91CF911F910F91FF90EF9008952F92CB
:1009A0003F924F925F926F927F928F929F92AF92FF
:1009B000BF92CF92DF92EF92FF920F931F93CF934C
:1009C000DF93CDB7DEB728970FB6F894DEBF0FBE22
:1009D000CDBF8C012DB73EB738872F83E0908B03B6
:1009E000F0908C0342E050E0BE016B5F7F4F0E94AD
:1009F000F300AD80BE80370132E0630E711C44E02D
:100A000050E0B301C8010E94F300270186E0480EC0
:100A1000511C42E050E0B201C8010E94F300BE0147
:100A20006D5F7F4FC8010E9438014C01D7011896B5
:100A3000CD90DC9019972B803C80C114D10449F1F2
:100A4000F601848195818815990541F46081718151
:100A5000A401C1010E949A11892B31F0D6015E9642
:100A6000CD90DC905F97E9CFB2E0AB16B10409F40A
:100A700049C01CF4B7FEC3C0F8C0F3E0AF16B10420
:100A800009F0F3C084E0882E912CE2E1CE0ED11C57
:100A900066C0D701ED91FC918485882309F4E5C0F7
:100AA000C080D1800FE610E0F8016491611103C0AD
:100AB00000E010E00DC0D601ED91FC910190F081B5
:100AC000E02DC60109950F5F1F4F892B69F7F0CF05
:100AD000D701ED91FC91808191810815190579F07C
:100AE000DC01ED91FC91AB81BC81A00FB11F0190A5
:100AF000F081E02D6C9109950F5F1F4FE9CF0E94A7
:100B0000EF0BB3C02DB63EB6BE016F5F7F4FC8017D
:100B10000E9438018C010196EDB7FEB7E81BF90B76
:100B20000FB6F894FEBF0FBEEDBF2DB73EB72F5FD7
:100B30003F4F490169817A81A801C9010E94A7112B
:100B4000F401E00FF11F1082B401C60148960E9423
:100B5000CD000FB6F8943EBE0FBE2DBE50C0D801DA
:100B60001496ED91FC9115978281938188169906D0
:100B700008F07BC0BE016F5F7F4FC8010E94380143
:100B800049805A80D2011196FD0101900020E9F7B9
:100B900031975F01AA1ABB0A3C016A187B08C3019E
:100BA00001970E949E0FD7011B969C938E931A97D4
:100BB000A30142505109FC01E40FF51F1082B50159
:100BC0006E5F7F4F640D751D1A968D919C911B97DA
:100BD0000E94A71169817A816F5F7F4FC6010E94D1
:100BE000CD00F701828593850E943310D7011B96B3
:100BF0001C921E921A97BFEF8B1A9B0AB0CF0FEF71
:100C000010E024E630E040E050E06FE170E0F701F2
:100C1000808191810E94520444E050E0B301D701E9
:100C20008D919C910E94EF0342E050E0B201F701E8
:100C3000808191810E94EF03D6016D917C91C60164
:100C4000AB2811F4069601C00C960E94CD0040E03E
:100C500050E060E070E0F701808191810E94EF0335
:100C6000D7018D919C910E94D903EF81F8850FB631
:100C7000F894FEBF0FBEEDBF28960FB6F894DEBF06
:100C80000FBECDBFDF91CF911F910F91FF90EF90DD
:100C9000DF90CF90BF90AF909F908F907F906F909C
:100CA0005F904F903F902F9008950F931F93CF9395
:100CB000DF9300D000D0CDB7DEB76FE671E081EBF7
:100CC00093E00E94420C0E94560C811103C068E818
:100CD00071E0F5CF6FE971E081EB93E00E94420C87
:100CE00001E010E020E030E0A9016EE170E08091C9
:100CF0008D0390918E030E94520489E993E0092E9E
:100D0000000CAA0BBB0B89839A83AB83BC8344E0A2
:100D100050E0BE016F5F7F4F80918D0390918E03F5
:100D20000E94EF0380918D0390918E030E94D9035E
:100D30000F900F900F900F90DF91CF911F910F9117
:100D400008958F929F92AF92BF92DF92EF92FF929F
:100D50000F931F93CF93DF9300D000D000D0CDB777
:100D6000DEB78C01DD24D394D8011A968D919C9125
:100D70001B97DC01ED91FC910480F581E02D099534
:100D8000892B09F481C1D8011A968D919C911B97EA
:100D9000DC01ED91FC910680F781E02D09958B3DFA
:100DA000910519F4F801D58ADFCFD80153962D911A
:100DB0003C915497803C910509F041C128303105A0
:100DC00008F42EC1F801E784F0888485882309F4AB
:100DD00084C061EB71E0808191810E94540CD80144
:100DE00053964D915C91549760E070E02AE08D91AC
:100DF0009C910E94A60B6BEB71E0F80180819181C0
:100E00000E94540CD8011F964D915C915097052E6D
:100E1000000C660B770B20E18D919C910E94A60B34
:100E200062E072E0F801808191810E94540CD70148
:100E30004D915C9160E070E020E1F801808191814A
:100E40000E94A60B63E072E0D8018D919C910E94F4
:100E5000540CF701448155816681778120E1D801E6
:100E60008D919C910E94A60B63E072E0F801808155
:100E700091810E94540CD70112964D915C91139769
:100E800060E070E020E1F801808191810E94A60B72
:100E900048E0A42EB12CF801238934898081918106
:100EA000A216B306C0F463E072E00E94540CD801AD
:100EB0001F96ED91FC915097EA0DFB1D408150E08B
:100EC00060E070E020E18D919C910E94A60BBFEF45
:100ED000AB1ABB0AE0CF0E94EF0BD8015396AD903E
:100EE000BC905497B2E0AB1AB108F801878490889F
:100EF00020E030E0A501B401C8010E948401F401A2
:100F0000EA0DFB1D208131818217930761F0D80122
:100F10001C968C911C97882309F482C06EEB71E0BB
:100F20008D919C917BC0F7018081918182309105E8
:100F300039F08330910519F1019709F067C056C067
:100F4000D8011C968C911C97882309F46BC06FEC18
:100F500071E08D919C910E94540CF801A080B180A9
:100F6000D70114964D915D916D917C9117972AE070
:100F7000C5010E94A60BC5010E94EF0B53C0F801EA
:100F80008485882311F168ED71E0808191810E9450
:100F9000540CD70114964D915D916D917C911797EA
:100FA0002AE0F801808191810E94A60B63E072E043
:100FB000D8018D919C910E94540CF701628173813C
:100FC000D8018D919C910E94F30BF701A481B5810A
:100FD0008D919C911197009709F059C012962D910F
:100FE0003C911397232B09F052C01AC062EE71E0B6
:100FF000D8018D919C910E94420CD8011896ED91D8
:10100000FC911997309761F009950AC0F801848521
:10101000882331F06DEE71E0808191810E94420C55
:10102000E12CF12CD80154961C921E9253975596A0
:101030001C92E114F10409F497CEC70158C0F801DD
:101040004589442371F08C3D910531F08D3D91052A
:1010500029F48BED90E002C080EC90E0D801559629
:101060001C92F801418952892417350708F07CCE7B
:1010700047855089B9016F5F7F4F748B638BFA018D
:10108000E20FF31F808370CE80E090E030C0FE82DC
:10109000ED82E8E0EE0EF11CFC82EB821A821982EE
:1010A0001296ED91FC911397309709F4B9CF009700
:1010B000D1F014962D913C911597A901559547951E
:1010C00020FF0AC0DC01A40FB51F2D913C91E20F57
:1010D000F31F0190F081E02DBE016F5F7F4F840F01
:1010E000951F09959DCFCE010196099599CF26961A
:1010F0000FB6F894DEBF0FBECDBFDF91CF911F9129
:101100000F91FF90EF90DF90BF90AF909F908F90E6
:101110000895EF92FF920F931F93CF93DF93CDB774
:10112000DEB7CA50D1400FB6F894DEBF0FBECDBFB8
:101130008EE494E00E94A1068EE00E942C0D7C01BA
:101140008FE00E942C0D8C0163EF71E081EB93E046
:101150000E94540CB70181EB93E00E94090C65E0FA
:1011600072E081EB93E00E94540CB80181EB93E0B4
:101170000E94090C8FE00E942C0D019799F5809137
:10118000810381112FC080918003882359F187E169
:1011900092E00E94000B64E572E081EB93E00E9414
:1011A000540C8E010F5F1F4F8AE091E0F8019C0103
:1011B000119221503040E1F7C8010E94B20A7C012F
:1011C00081E08093810338ECE316F104B1F46EE61C
:1011D00072E081EB93E00E94420CB80181EB93E056
:1011E0000E94420C8EE00E942C0D019709F04AC02B
:1011F0008091810381110DC045C060EA72E081EBEE
:1012000093E00E94540CB70181EB93E00E94F30B32
:10121000E9CF809180038823A9F18DEB92E00E94B1
:10122000000B64E572E081EB93E00E94540C8E01A8
:101230000F5F1F4F8AE091E0F8019C01119221504D
:101240003040E1F7C8010E94B20A7C01109281038C
:10125000883C910561F46BEF72E081EB93E00E94B2
:10126000420CB80181EB93E00E94420C0BC060EA93
:1012700072E081EB93E00E94540CB70181EB93E0A4
:101280000E94F30BC65FDE4F0FB6F894DEBF0FBEB1
:10129000CDBFDF91CF911F910F91FF90EF900895F7
:1012A000CF92DF92EF92FF920F931F93CF93DF9332
:1012B0006C017A018B01C0E0D0E0CE15DF0589F02A
:1012C000D8016D918D01D601ED91FC910190F081D5
:1012D000E02DC6010995892B11F47E0102C02196EB
:1012E000ECCFC701DF91CF911F910F91FF90EF904D
:1012F000DF90CF900895FC01918D828D981761F059
:10130000828DDF01A80FB11D5D968C91928D9F5F3C
:101310009F73928F90E008958FEF9FEF0895FC01E7
:10132000918D828D981731F0828DE80FF11D858D9A
:1013300090E008958FEF9FEF0895FC01918D228D2D
:10134000892F90E0805C9F4F821B91098F739927B2
:10135000089581EB93E00E949D0921E0892B09F417
:1013600020E0822F0895FC01848DDF01A80FB11DBC
:10137000A35ABF4F2C91848D90E001968F739927CB
:10138000848FA689B7892C93A089B1898C918064B8
:101390008C93938D848D981306C00288F389E02D79
:1013A00080818F7D80830895EF92FF920F931F932A
:1013B000CF93DF93EC0181E0888F9B8D8C8D981308
:1013C00005C0E889F989808185FD24C0F62E0B8D42
:1013D00010E00F5F1F4F0F731127E02E8C8DE81266
:1013E0000CC00FB607FCFACFE889F989808185FF28
:1013F000F5CFCE010E94B309F1CF8B8DFE01E80F2E
:10140000F11DE35AFF4FF0820B8FEA89FB8980813F
:10141000806207C0EE89FF896083E889F98980814D
:101420008064808381E090E0DF91CF911F910F91E4
:10143000FF90EF900895CF93DF93EC01888D882380
:10144000C9F0EA89FB89808185FD05C0A889B98931
:101450008C9186FD0FC00FB607FCF5CF808185FF0C
:10146000F2CFA889B9898C9185FFEDCFCE010E947A
:10147000B309E7CFDF91CF91089580E090E0892B09
:1014800029F00E94A90981110C9400000895CF92BF
:10149000DF92EF92FF92CF93DF93EC010E948303E0
:1014A0006B017C010E948303AB01BC014C195D09F7
:1014B0006E097F09403D57406105710530F4CE014A
:1014C0000E94A106009771F302C080E090E0DF91D6
:1014D000CF91FF90EF90DF90CF9008956115710547
:1014E00079F0FB0101900020E9F73197AF01461B2D
:1014F000570BDC01ED91FC910280F381E02D099402
:1015000080E090E008950E9495111F93CF93DF93A0
:10151000E6EFF0E09491E2EEF0E0D491EEECF0E052
:10152000C491CC23D9F0182F992319F0892F0E9448
:101530001E03EC2FF0E0EE0FFF1FEC54FF4FA591C0
:10154000B4918FB7F894111105C09C91ED2FE095DF
:10155000E92302C0EC91ED2BEC938FBFDF91CF918B
:101560001F910895CF92DF92EF92FF92CF93DF9376
:10157000EC010E9483036B017C018091AB0390918D
:10158000AC03892BA1F40E948303AB01BC014C196D
:101590005D096E097F09483853416105710538F4CA
:1015A0008091A3039091A4030E94A106E6CF8091AD
:1015B000AB039091AC03892BD1F04091AD035091D6
:1015C000AE034B3081E0580710F04AE051E06091E3
:1015D000AF037091B003CE010E94A7118091AB03BD
:1015E0009091AC031092AC031092AB0302C080E068
:1015F00090E0DF91CF91FF90EF90DF90CF90089532
:101600000F931F93CF93DF931092AC031092AB0311
:1016100020919F033091A0034091A1035091A20318
:1016200057FD2EC0EC0102E010E065E170E0809112
:10163000A3039091A4030E94520443E050E06FE2A0
:1016400073E08091A3039091A4030E94EF03FE0135
:1016500001900020E9F73197AF014C1B5D0BBE01F3
:101660008091A3039091A4030E94EF038091A303B0
:101670009091A403DF91CF911F910F910C94D90306
:10168000DF91CF911F910F9108950F931F93CF93E7
:10169000DF93EC0188819981009729F02A813B81B1
:1016A0002617370788F48B016F5F7F4F0E94CB109E
:1016B000009761F0998388831B830A832C813D8185
:1016C000232B11F4FC01108281E001C080E0DF9146
:1016D000CF911F910F910895CF93DF93EC018881F3
:1016E0009981009711F00E943310198218821D828F
:1016F0001C821B821A82DF91CF910895EF92FF9294
:101700000F931F93CF93DF93EC018B01611571054C
:1017100051F0CB010E94C7117C01BC01CE010E9497
:10172000450B811104C0CE010E946C0B07C0FD82E5
:10173000EC82B801888199810E94C011CE01DF91AD
:10174000CF911F910F91FF90EF9008954F925F926C
:101750006F927F92EF92FF920F931F93CF93DF933D
:10176000CDB7DEB7A1970FB6F894DEBF0FBECDBFE1
:101770007C01FA01CB0119A2223008F42AE08E0183
:101780000F5D1F4F422E512C612C712CBF01A30104
:1017900092010E94760FF901CA01015011096A30C5
:1017A00014F4605D01C0695CD8016C93232B242B79
:1017B000252B61F7B801C7010E946E0AA1960FB6EA
:1017C000F894DEBF0FBECDBFDF91CF911F910F9177
:1017D000FF90EF907F906F905F904F90089563E33C
:1017E00073E00C946E0A0F931F93CF93DF93EC0179
:1017F000AB0160E070E02AE00E94A60B8C01CE01F4
:101800000E94EF0B800F911FDF91CF911F910F91DD
:101810000895CF92DF92EF92FF920F931F93CF9391
:10182000DF93EC016B01770FEE08FF08F7FE16C09F
:10183000E881F9810190F081E02D6DE209958C013C
:1018400044275527BA014C195D096E097F092AE022
:10185000CE010E94A60B080F191F06C02AE0B7018F
:10186000A6010E94A60B8C01CE010E94EF0B800FF7
:10187000911FDF91CF911F910F91FF90EF90DF901B
:10188000CF9008950F931F93CF93DF93EC010E94A5
:101890006E0A8C01CE010E94EF0B800F911FDF9129
:1018A000CF911F910F9108950C946E0AAF92BF9241
:1018B000CF92DF92EF92FF920F931F93CF93DF931C
:1018C0008091580490915904DC01ED91FC910190B4
:1018D000F081E02D60EC099580E594E06C01990FB2
:1018E000EE08FF0800E010E0A701960161E070E05B
:1018F0008EE494E00E9452048EE494E00E94D903A6
:1019000000915604109157041092570410925604F7
:101910008EE494E00E94470AEC01892BA9F14C81E6
:101920005D816E817F8180915A044C155D056E0545
:101930007F0581F4882341F067EE71E080914E04C9
:1019400090914F040E94420C109357040093560448
:1019500081E01FC08823E1F266E373E080914E04CA
:1019600090914F040E94540CA0904E04B0904F04EC
:101970004C815D816E817F812AE0C5010E94A60BAA
:10198000C5010E94EF0BC4CF109357040093560477
:1019900080E0DF91CF911F910F91FF90EF90DF904A
:1019A000CF90BF90AF9008951F920F920FB60F92F5
:1019B00011242F933F934F935F936F937F938F9354
:1019C0009F93AF93BF93EF93FF9381EB93E00E94BC
:1019D000B309FF91EF91BF91AF919F918F917F914B
:1019E0006F915F914F913F912F910F900FBE0F908C
:1019F0001F9018951F920F920FB60F9211242F93DC
:101A00008F939F93EF93FF93E091C103F091C203F3
:101A10008081E091C703F091C80382FD12C09081DC
:101A20008091CA038F5F8F732091CB03821751F08F
:101A3000E091CA03F0E0EF54FC4F958F8093CA0306
:101A400001C08081FF91EF919F918F912F910F9015
:101A50000FBE0F901F901895CF93DF93282F30E083
:101A6000F901EA51FF4F8491F901EE52FF4FD491F1
:101A7000F901E254FF4FC491CC2391F081110E94EF
:101A80001E03EC2FF0E0EE0FFF1FEC56FF4FA59169
:101A9000B491EC91ED2381E090E021F480E002C06C
:101AA00080E090E0DF91CF910895E1EBF3E01382C5
:101AB000128288EE93E0A0E0B0E084839583A68351
:101AC000B7838AE091E09183808385EC90E09587ED
:101AD000848784EC90E09787868780EC90E0918BF8
:101AE000808B81EC90E0938B828B82EC90E0958BE5
:101AF000848B86EC90E0978B868B118E128E138EE2
:101B0000148EAEE4B4E01196FC93EE9313961C92FF
:101B10001E92129715961C921E9214971B96FC9378
:101B2000EE931A9781E01C968C931C9784E694E0C0
:101B300050969C938E931F9780E890E052969C93CA
:101B40008E93519754961C921E92539755961C92C1
:101B50005597EFE9F3E01782168211861086B58358
:101B6000A4834FEF5FEFBA01408351836283738395
:101B7000EDE8F3E0B183A083118610861386128608
:101B800015861486F0938C03E0938B038FEC94E01E
:101B9000978786870895CF93DF93CDB7DEB72797D2
:101BA0000FB6F894DEBF0FBECDBF789484B58260C7
:101BB00084BD84B5816084BD85B5826085BD85B5F1
:101BC000816085BD80916E00816080936E0010926F
:101BD00081008091810082608093810080918100EA
:101BE000816080938100809180008160809380007B
:101BF0008091B10084608093B1008091B0008160D9
:101C00008093B00080917A00846080937A00809104
:101C10007A00826080937A0080917A00816080935C
:101C20007A0080917A00806880937A001092C100D7
:101C3000E091C103F091C20382E08083E091BD0393
:101C4000F091BE031082E091BF03F091C0038FECCE
:101C500080831092C903E091C503F091C60386E02A
:101C60008083E091C303F091C4038081806180830D
:101C7000E091C303F091C403808188608083E09188
:101C8000C303F091C403808180688083E091C30323
:101C9000F091C40380818F7D80836CE373E081EBDE
:101CA00093E00E94420C62E08EE00E94470362E0F3
:101CB0008FE00E94470361E080E10E94470380E0DB
:101CC0000E94850A81E292E090935304809352042B
:101CD0000E94560C811107C068E871E081EB93E027
:101CE0000E94420CF5CF6FE971E081EB93E00E9416
:101CF000420C1A8219821C821B821E821D826EE98E
:101D000070E0CE0101960E947E0B80E290E00E947E
:101D10009E0F8C0180E2F80111928A95E9F7F80193
:101D200011821082138212821582148260E070E0A8
:101D3000C8010E94450B811104C0C8010E946C0BB0
:101D400009C0F8011582148265E373E080819181F6
:101D50000E94B911F8011782168211861086158625
:101D6000148617861686138A128A158A148A118E8B
:101D7000108E138E128ECE0101967C010817190762
:101D8000C9F0C980DA80C114D10489F0AD80BE8069
:101D9000B501C8010E94450B882349F0F801B582BE
:101DA000A482B601808191810E94B91103C0C8014B
:101DB0000E946C0B8091950390919603F801978F88
:101DC000868F109396030093950389819A810E94D0
:101DD00033108DE592E0F801938F828F85E596E0D0
:101DE00090935704809356040E94550680E99FE122
:101DF0009A8389831F828FE993E09093A60380934F
:101E0000A50380EF91E09093A8038093A70310921D
:101E1000AA031092A90303E010E025EA33E0032EA1
:101E2000000C440B550B64E170E08091A30390918A
:101E3000A4030E9452044CE050E060E573E08091FE
:101E4000A3039091A4030E94EF0342E050E0B70186
:101E50008091A3039091A4030E94EF0341E050E01E
:101E6000BE01695F7F4F8091A3039091A4030E94FC
:101E7000EF038091A3039091A4030E94D903809162
:101E8000A3039091A4030E94470A009791F0FC01DC
:101E9000448155816681778177FD0BC040939F0314
:101EA0005093A0036093A1037093A20300E010E09D
:101EB00003C0FC01048115810115110561F06DE578
:101EC00073E081EB93E00E94540CB80181EB93E046
:101ED0000E94090CFFCF61E773E081EB93E00E9461
:101EE000420C0E9489080E943D0AFBCFA1E21A2EF3
:101EF000AA1BBB1BFD010DC0AA1FBB1FEE1FFF1FAE
:101F0000A217B307E407F50720F0A21BB30BE40BFD
:101F1000F50B661F771F881F991F1A9469F7609544
:101F20007095809590959B01AC01BD01CF010895FE
:101F3000EE0FFF1F0590F491E02D0994CF93DF93EE
:101F40008230910510F482E090E0E091E604F09197
:101F5000E70420E030E0C0E0D0E0309711F14081AC
:101F6000518148175907C0F04817590761F4828119
:101F70009381209719F09B838A832BC09093E70469
:101F80008093E60426C02115310519F04217530746
:101F900018F49A01BE01DF01EF010280F381E02D08
:101FA000DCCF2115310509F1281B390B243031050F
:101FB00090F412968D919C9113976115710521F003
:101FC000FB019383828304C09093E7048093E6042B
:101FD000FD01329644C0FD01E20FF31F81939193FE
:101FE000225031092D933C933AC02091E404309162
:101FF000E504232B41F42091020130910301309339
:10200000E5042093E40420910001309101012115A1
:10201000310541F42DB73EB74091040150910501BF
:10202000241B350BE091E404F091E504E217F3077B
:10203000A0F42E1B3F0B2817390778F0AC014E5F38
:102040005F4F2417350748F04E0F5F1F5093E5048C
:102050004093E4048193919302C0E0E0F0E0CF016B
:10206000DF91CF9108950F931F93CF93DF93009744
:1020700009F48CC0FC013297138212820091E604AD
:102080001091E7040115110581F420813181820F3F
:10209000931F2091E4043091E5042817390779F55E
:1020A000F093E504E093E40471C0D80140E050E00F
:1020B000AE17BF0750F412962D913C911397AD01C6
:1020C0002115310509F1D901F3CF9D01DA013383DF
:1020D000228360817181860F971F8217930769F4AD
:1020E000EC0128813981260F371F2E5F3F4F318346
:1020F00020838A819B8193838283452B29F4F093EB
:10210000E704E093E60442C01396FC93EE93129723
:10211000ED01499159919E01240F351FE217F307F4
:1021200071F480819181840F951F029611969C9382
:102130008E938281938113969C938E931297E0E005
:10214000F0E0D80112968D919C911397009719F0A9
:10215000F8018C01F6CF8D919C9198012E5F3F4F35
:10216000820F931F2091E4043091E504281739076A
:1021700069F4309729F41092E7041092E60402C043
:10218000138212821093E5040093E404DF91CF914F
:102190001F910F910895A0E0B0E0E1EDF0E10C9403
:1021A000D411EC01009721F4CB010E949E0FB8C01E
:1021B000FC01E60FF71F9C0122503109E217F307DB
:1021C00008F4ACC0D9010D911C911197061717079F
:1021D000B0F00530110508F49FC0C80104978617B8
:1021E000970708F499C002501109061B170B0193B9
:1021F00011936D937C93CF010E9433108DC05B01CE
:10220000A01AB10A4C01800E911EA091E604B09173
:10221000E70440E050E0E12CF12C109709F44AC0AB
:10222000A815B905D1F56D907C901197630182E0F6
:10223000C80ED11CCA14DB0480F1A3014A195B0942
:102240006A0182E0C80ED11C1296BC9012971396B8
:10225000AC91B5E0CB16D10440F0B282A383518398
:102260004083D9016D937C930AC00E5F1F4FC30159
:10227000800F911FF90191838083EB2DFA2FE114D8
:10228000F10431F0D7011396FC93EE93129744C0FA
:10229000F093E704E093E6043FC08D919C91119781
:1022A0004817590708F4AC017D0112960D90BC91B6
:1022B000A02DB3CF8091E4049091E5048815990591
:1022C000E1F446175707C8F480910001909101018D
:1022D000009741F48DB79EB74091040150910501DC
:1022E000841B950BE817F907C8F4F093E504E09315
:1022F000E404F901718360830FC0CB010E949E0F3B
:102300007C01009759F0A801BE010E94A711CE01DF
:102310000E943310C70104C0CE0102C080E090E0EB
:10232000CDB7DEB7EEE00C94F01181E090E0F894C8
:102330000C940712FB01DC0104C08D9101908019FF
:1023400021F441505040C8F7881B990B0895FB01B8
:10235000DC0102C001900D9241505040D8F7089521
:10236000FB01DC018D91019080190110D9F3990BCB
:102370000895FB01DC0101900D920020E1F7089522
:10238000FB01DC0105900D920020E1F70895FC01AE
:1023900005900020E9F7809590958E0F9F1F089576
:1023A0002F923F924F925F926F927F928F929F9265
:1023B000AF92BF92CF92DF92EF92FF920F931F9353
:1023C000CF93DF93CDB7DEB7CA1BDB0B0FB6F89404
:1023D000DEBF0FBECDBF09942A88398848885F8444
:1023E0006E847D848C849B84AA84B984C884DF80B5
:1023F000EE80FD800C811B81AA81B981CE0FD11D99
:102400000FB6F894DEBF0FBECDBFED010895F8946E
:02241000FFCFFC
:102412000000E804800000000000D40950099D0972
:102422007B098F091B0A5245535420636F64652050
:10243200005749464920434F4E4E454354454400B8
:1024420057494649204E4F542052454144593A205B
:1024520000576369736E6965746F2070727A79636D
:1024620069736B207A616D796B616E69612F6F742C
:1024720077696572616E6961206272616D7900458A
:102482004C2D436C69656E74202872652D29737416
:10249200617274696E672100454C2D436C69656EEB
:1024A200742073796E63206661696C6564210045EE
:1024B2004C2D436C69656E742073796E636564217B
:1024C20000454C433A20676F742000204000454C81
:1024D200433A20496E76616C69642043524300524C
:1024E2004553505F563A2000524553505F43423A9B
:1024F20020004E4545445F53594E432100434D440D
:102502003F3F005374616E2077656A73636961208F
:1025120041303A20005374616E2077656A736369B3
:10252200612041313A20002F6A736F6E2E68746DFC
:102532003F747970653D636F6D6D616E6426706185
:1025420072616D3D7377697463686C69676874263C
:102552006964783D323926737769746368636D64A0
:102562003D4F6E00577973C58261C582656D207AD1
:1025720061707974616E6965206A736F6E004F6471
:10258200706F776965647A206E61207A6170797400
:10259200616E6965206A736F6E20646F20446F6D8F
:1025A2006F7469637A613A204F545741525445001F
:1025B2004E69652077796B6F6E616E6F207A6170FC
:1025C2007974616E6961204745543A20002F6A731D
:1025D2006F6E2E68746D3F747970653D636F6D6DBB
:1025E200616E6426706172616D3D737769746368B0
:1025F2006C69676874266964783D32392673776935
:10260200746368636D643D4F6666004F64706F77F4
:102612006965647A206E61207A61707974616E698D
:1026220065206A736F6E20646F20446F6D6F7469EA
:10263200637A613A205A414D4B4E49455445004711
:102642004554000D0A004241443A2000454C2D43B6
:102652006C69656E74207374617274696E672100AF
:102662003139322E3136382E312E3534005245531F
:102672005420626567696E206661696C65643A2000
:1026820000454C2D52455354207265616479000017
:00000001FF
