:100000000C9435000C945D000C945D000C945D0024
:100010000C945D000C945D000C945D000C945D00EC
:100020000C945D000C945D000C945D000C945D00DC
:100030000C945D000C945D000C945D000C945D00CC
:100040000C94FB070C945D000C94C9070C94A30757
:100050000C945D000C945D000C945D000C945D00AC
:100060000C945D000C945D00450811241FBECFEF79
:10007000D8E0DEBFCDBF12E0A0E0B1E0E0E2F5E104
:1000800002C005900D92A037B107D9F723E0A0E791
:10009000B2E001C01D92AF3BB207E1F710E0C5E34B
:1000A000D0E004C02197FE010E947A0AC433D10730
:1000B000C9F70E94A9080C948E0A0C940000CF92F4
:1000C000DF92EF92FF920F931F93CF93DF936C0118
:1000D0007A018B01C0E0D0E0CE15DF0589F0D801B0
:1000E0006D918D01D601ED91FC910190F081E02D93
:1000F000C6010995892B11F47E0102C02196ECCF2F
:10010000C701DF91CF911F910F91FF90EF90DF908A
:10011000CF900895FC01918D828D981761F0828DAA
:10012000DF01A80FB11D5D968C91928D9F5F9F732B
:10013000928F90E008958FEF9FEF0895FC01918DCD
:10014000828D981731F0828DE80FF11D858D90E03A
:1001500008958FEF9FEF0895FC01918D228D892FD7
:1001600090E0805C9F4F821B91098F7399270895BF
:100170008CE892E00E94AC0021E0892B09F420E099
:10018000822F0895FC01848DDF01A80FB11DA35AB1
:10019000BF4F2C91848D90E001968F739927848FA7
:1001A000A689B7892C93A089B1898C9180648C939E
:1001B000938D848D981306C00288F389E02D808189
:1001C0008F7D80830895EF92FF920F931F93CF93BB
:1001D000DF93EC0181E0888F9B8D8C8D981305C097
:1001E000E889F989808185FD24C0F62E0B8D10E009
:1001F0000F5F1F4F0F731127E02E8C8DE8120CC07C
:100200000FB607FCFACFE889F989808185FFF5CF21
:10021000CE010E94C200F1CF8B8DFE01E80FF11DCF
:10022000E35AFF4FF0820B8FEA89FB89808180625D
:1002300007C0EE89FF896083E889F989808180643D
:10024000808381E090E0DF91CF911F910F91FF902B
:10025000EF900895CF93DF93EC01888D8823C9F048
:10026000EA89FB89808185FD05C0A889B9898C91BF
:1002700086FD0FC00FB607FCF5CF808185FFF2CF5A
:10028000A889B9898C9185FFEDCFCE010E94C2006B
:10029000E7CFDF91CF91089580E090E0892B29F09E
:1002A0000E94B80081110C94000008953FB7F894A3
:1002B0008091750290917602A0917702B0917802B8
:1002C00026B5A89B05C02F3F19F00196A11DB11DB1
:1002D0003FBFBA2FA92F982F8827820F911DA11DEC
:1002E000B11DBC01CD0142E0660F771F881F991F29
:1002F0004A95D1F708952FB7F894609171027091E3
:10030000720280917302909174022FBF0895EF9250
:10031000FF920F931F93CF93DF93EC018881998114
:10032000EC81FD81228133818217930760F5EA8198
:10033000FB81019111912EEF3FEF201B310B7901D1
:10034000A3E0EA22FF24FB83EA8301969983888352
:10035000CB019A010417150708F49801260F371FDF
:100360008217930729F04191DC014D93CD01F8CF1D
:100370009701200F311F8A819B81280F391F3B83F2
:100380002A83C80102C08FEF9FEFDF91CF911F91A9
:100390000F91FF90EF9008954627342F252FA90144
:1003A000442784E0440F551F8A95E1F742275327DD
:1003B000CA01892F992782958F7048275927CA012A
:1003C000882735E0969587953A95E1F78427952714
:1003D0000895EF92FF920F931F93CF93DF937C01C9
:1003E000C901EB018B01040F151FC017D10731F0B4
:1003F0006991AC01C7010E94CC01F7CFDF91CF9189
:100400001F910F91FF90EF900895CF93DF93EC0130
:100410008A859B85603CA1F06B3D21F5DC01ED9167
:10042000FC910190F081E02D6BED09958A859B850B
:10043000DC01ED91FC910190F081E02D6DED18C093
:10044000DC01ED91FC910190F081E02D6BED0995BF
:100450008A859B85DC01ED91FC910190F081E02D76
:100460006CED06C0DC01ED91FC910190F081E02D76
:10047000DF91CF910994EF92FF920F931F93CF9347
:10048000DF937C01EB018B01040F151FC017D1070F
:1004900029F06991C7010E940502F8CFDF91CF9141
:1004A0001F910F91FF90EF900895CF93DF93EC0190
:1004B000BC01635F7F4F42E050E00E943B028A85AF
:1004C0009B85DC01ED91FC910190F081E02D60ECC9
:1004D000DF91CF910994CF92DF92EF92FF920F9329
:1004E0001F93CF93DF9300D0CDB7DEB78C017B0194
:1004F0005A83498342E050E0BE016F5F7F4F0E9404
:100500003B02F8012585368542E050E0BE016F5F71
:100510007F4FC8010E94E901F80196878587C9804D
:10052000DA80CE0CDF1CEC14FD0491F0F701608141
:10053000C8010E940502F80145855685F7016191C1
:100540007F01C8010E94CC01F80196878587EBCF17
:10055000E980FA80F194E194F108F3E0EF22FF24BE
:10056000F1E0EF1AF10878F060E0C8010E9405029E
:10057000F8014585568560E0C8010E94CC01F8016C
:1005800096878587EDCF0F900F90DF91CF911F91C8
:100590000F91FF90EF90DF90CF900895EF92FF9230
:1005A0000F931F93CF93DF93CDB7DEB728970FB686
:1005B000F894DEBF0FBECDBF7C017A8369832B83A5
:1005C0003C834D835E8318870F83DC011E961C924B
:1005D0001E921D971A968D919C911B97DC01ED91AF
:1005E000FC910190F081E02D60EC099542E050E033
:1005F000BE016F5F7F4FC7010E943B02F701258557
:10060000368542E050E0BE016F5F7F4FC7010E9418
:10061000E901D7011E969C938E931D9742E050E00E
:10062000BE01695F7F4FC7010E943B02F70125852C
:10063000368542E050E0BE01695F7F4FC7010E94EE
:10064000E901D7011E969C938E931D9744E050E0DC
:10065000BE016D5F7F4FC7010E943B02F7012585F8
:10066000368544E050E0BE016D5F7F4FC7010E94B8
:10067000E901D7011E969C938E931D9728960FB67D
:10068000F894DEBF0FBECDBFDF91CF911F910F91C8
:10069000FF90EF9008956115710579F0FB010190CD
:1006A0000020E9F73197AF01461B570BDC01ED91B4
:1006B000FC910280F381E02D099480E090E00895A0
:1006C0004F925F926F927F92EF92FF920F931F93E0
:1006D000CF93DF93CDB7DEB7A1970FB6F894DEBF07
:1006E0000FBECDBF7C01FA01CB0119A2223008F464
:1006F0002AE08E010F5D1F4F422E512C612C712C70
:10070000BF01A30192010E94580AF901CA010150D8
:1007100011096A3014F4605D01C0695CD8016C9302
:10072000232B242B252B61F7B801C7010E944B0313
:10073000A1960FB6F894DEBF0FBECDBFDF91CF916B
:100740001F910F91FF90EF907F906F905F904F906F
:10075000089560E171E00C944B030F931F93CF93C6
:10076000DF93EC012AE00E9460038C01CE010E941D
:10077000A903800F911FDF91CF911F910F910895D1
:10078000CF92DF92EF92FF920F931F93CF93DF935D
:10079000EC016B01770FEE08FF08F7FE16C0E88149
:1007A000F9810190F081E02D6DE209958C014427DB
:1007B0005527BA014C195D096E097F092AE0CE015F
:1007C0000E946003080F191F06C02AE0B701A601A6
:1007D0000E9460038C01CE010E94A903800F911F2B
:1007E000DF91CF911F910F91FF90EF90DF90CF900D
:1007F00008950F931F93CF93DF93EC010E944B0357
:100800008C01CE010E94A903800F911FDF91CF912F
:100810001F910F9108950C944B030F931F93CF9347
:10082000DF936115710509F44FC0EB018C01BC0128
:10083000645F7F4F42E050E0CE010E948701D80103
:100840001496ED91FC9115978485882381F063E1DE
:1008500071E0808191810E940B04F80164857585A7
:100860000480F581E02D808191810E94C003888100
:100870009981EC81FD812281338182179307F8F4FD
:10088000EA81FB8121913191FB83EA83019699836F
:100890008883D8015196FC93EE9350978EEF9FEF8B
:1008A000821B930B83709927820F931F4A815B8170
:1008B000840F951F9B838A83922F832F02C09FEF03
:1008C0008FEFF80196878787DF91CF911F910F9166
:1008D00008958F929F92AF92BF92DF92EF92FF9214
:1008E0000F931F93CF93DF9300D000D000D0CDB7EC
:1008F000DEB78C01DD24D394D8011A968D919C919A
:100900001B97DC01ED91FC910480F581E02D0995A8
:10091000892B09F483C1D8011A968D919C911B975C
:10092000DC01ED91FC910680F781E02D09958B3D6E
:10093000910519F4F801D58ADFCFD80153962D918E
:100940003C915497803C910509F043C12830310512
:1009500008F430C1F801E784F0888485882309F41D
:1009600084C06EE171E0808191810E940B04D80106
:1009700053964D915C91549760E070E02AE08D9120
:100980009C910E94600368E271E0F801808191818E
:100990000E940B04D8011F964D915C915097052E33
:1009A000000C660B770B20E18D919C910E946003F7
:1009B0006CE471E0F801808191810E940B04D70101
:1009C0004D915C9160E070E020E1F80180819181BF
:1009D0000E9460036DE471E0D8018D919C910E94AA
:1009E0000B04F701448155816681778120E1D801AC
:1009F0008D919C910E9460036DE471E0F80180810B
:100A000091810E940B04D70112964D915C9113972E
:100A100060E070E020E1F801808191810E94600334
:100A200048E0A42EB12CF80123893489808191817A
:100A3000A216B306C0F46DE471E00E940B04D80165
:100A40001F96ED91FC915097EA0DFB1D408150E0FF
:100A500060E070E020E18D919C910E946003BFEF07
:100A6000AB1ABB0AE0CF0E94A903D8015396AD9000
:100A7000BC905497B2E0AB1AB108F8018784908813
:100A800020E030E0A501B401C8010E94E901F401B1
:100A9000EA0DFB1D208131818217930761F0D80197
:100AA0001C968C911C97882309F484C06BE271E03A
:100AB0008D919C917DC0F70180819181823091055B
:100AC00039F083309105E1F0019709F069C058C011
:100AD000D8011C968C911C97882309F46DC06CE397
:100AE00071E08D919C910E940B04F7014481558126
:100AF00066817781D8018D919C910E94AD035CC085
:100B0000F8018485882359F165E471E08081918141
:100B10000E940B04D70114964D915D916D917C91CB
:100B200017972AE0F801808191810E9460036DE4AB
:100B300071E0D8018D919C910E940B04F801A08076
:100B4000B180D70112964D915C91139760E070E0EF
:100B50002AE0C5010E946003C5010E94A903F701B4
:100B6000A481B5818D919C911197009709F059C08E
:100B700012962D913C911397232B09F052C01AC065
:100B80006FE471E0D8018D919C910E94F903D80126
:100B90001896ED91FC911997309761F009950AC06C
:100BA000F8018485882331F06AE571E080819181C4
:100BB0000E94F903E12CF12CD80154961C921E924C
:100BC000539755961C92E114F10409F495CEC70190
:100BD00058C0F8014589442371F08C3D910531F0EE
:100BE0008D3D910529F48BED90E002C080EC90E002
:100BF000D80155961C92F80141895289241735076E
:100C000008F07ACE47855089B9016F5F7F4F748BAA
:100C1000638BFA01E20FF31F80836ECE80E090E0D9
:100C200030C0FE82ED82E8E0EE0EF11CFC82EB8229
:100C30001A8219821296ED91FC911397309709F45C
:100C4000B9CF0097D1F014962D913C911597A90139
:100C50005595479520FF0AC0DC01A40FB51F2D91C3
:100C60003C91E20FF31F0190F081E02DBE016F5F18
:100C70007F4F840F951F09959DCFCE010196099551
:100C800099CF26960FB6F894DEBF0FBECDBFDF9189
:100C9000CF911F910F91FF90EF90DF90BF90AF9099
:100CA0009F908F900895CF92DF92EF92FF92CF9313
:100CB000DF93EC010E947B016B017C010E947B01B0
:100CC000AB01BC014C195D096E097F09403D5740DD
:100CD0006105710530F4CE010E946904009771F33B
:100CE00002C080E090E0DF91CF91FF90EF90DF9025
:100CF000CF900895CF93DF931F92CDB7DEB7DC017D
:100D00001496ED91FC9115972281338121303105A4
:100D100049F541E050E0BE016F5F7F4F0E948701BF
:100D20008981853051F460E671E08CE892E00E94A0
:100D3000F90381E08093790215C06FE671E08CE8D9
:100D400092E00E940B04498150E060E070E02AE0EC
:100D50008CE892E00E9460038CE892E00E94A90374
:100D6000109279020F90DF91CF9108950E94800A2E
:100D70008F929F92AF92BF92CF92DF92EF92FF92AB
:100D80000F931F93CF93DF93CDB7DEB7CA50D140F7
:100D90000FB6F894DEBF0FBECDBF1092870210923F
:100DA000860220917A0230917B0240917C02509120
:100DB0007D0257FD24C002E010E065E170E0809103
:100DC0007E0290917F020E94CE0243E050E060E8F4
:100DD00071E080917E0290917F020E946B024CE351
:100DE00050E064E871E080917E0290917F020E9461
:100DF0006B0280917E0290917F020E9455029E01BB
:100E00002F5F3F4F79018AE091E0F9019C01119237
:100E100021503040E1F70E947B014B015C01809141
:100E2000860290918702892BA1F40E947B01DC014C
:100E3000CB0188199909AA09BB0988389341A105F2
:100E4000B10538F480917E0290917F020E9469047E
:100E5000E6CF00918602109187020115110521F15C
:100E600040918802509189024B3081E0580710F080
:100E70004AE051E060918A0270918B02C7010E94A2
:100E8000850A1092870210928602083C110571F4BF
:100E900061EC71E08CE892E00E94F903B7018CE804
:100EA00092E00E94F90314C000E010E06AED71E0E6
:100EB0008CE892E00E940B04A80160E070E02AE058
:100EC0008CE892E00E9460038CE892E00E94A90303
:100ED0000E9456014B015C0188EEC82E83E0D82E9B
:100EE000E12CF12C0E945601DC01CB0188199909F3
:100EF000AA09BB09883E9340A105B10558F091E0CD
:100F0000C91AD108E108F108E8EE8E0EE3E09E1E52
:100F1000A11CB11CC114D104E104F10419F7C65F8E
:100F2000DE4F0FB6F894DEBF0FBECDBFDF91CF917D
:100F30001F910F91FF90EF90DF90CF90BF90AF90F7
:100F40009F908F9008951F920F920FB60F921124C9
:100F50002F933F934F935F936F937F938F939F93C1
:100F6000AF93BF93EF93FF938CE892E00E94C2008F
:100F7000FF91EF91BF91AF919F918F917F916F9171
:100F80005F914F913F912F910F900FBE0F901F9047
:100F900018951F920F920FB60F9211242F938F93D3
:100FA0009F93EF93FF93E0919C02F0919D028081CB
:100FB000E091A202F091A30282FD12C09081809183
:100FC000A5028F5F8F732091A602821751F0E091E6
:100FD000A502F0E0E457FD4F958F8093A50201C074
:100FE0008081FF91EF919F918F912F910F900FBE74
:100FF0000F901F9018951F920F920FB60F92112409
:101000002F933F938F939F93AF93BF9380917102E0
:1010100090917202A0917302B091740230917002AB
:1010200023E0230F2D3720F40196A11DB11D05C02B
:1010300026E8230F0296A11DB11D20937002809314
:10104000710290937202A0937302B0937402809124
:10105000750290917602A0917702B0917802019684
:10106000A11DB11D8093750290937602A093770223
:10107000B0937802BF91AF919F918F913F912F9143
:101080000F900FBE0F901F901895ECE8F2E01382BE
:10109000128288EE93E0A0E0B0E084839583A6837B
:1010A000B78384E091E09183808385EC90E095871D
:1010B000848784EC90E09787868780EC90E0918B22
:1010C000808B81EC90E0938B828B82EC90E0958B0F
:1010D000848B86EC90E0978B868B118E128E138E0C
:1010E000148EA9E2B3E01196FC93EE9313961C9232
:1010F0001E92129715961C921E9214971B96FC93A3
:10110000EE931A9781E01C968C931C978FE393E0E3
:1011100050969C938E931F9780E890E052969C93F4
:101120008E93519754961C921E92539755961C92EB
:101130005597EAE7F2E01782168211861086B5838A
:10114000A4838FEF9FEFDC0180839183A283B3831D
:101150000895CF93DF9300D01F92CDB7DEB7789478
:1011600084B5826084BD84B5816084BD85B58260AC
:1011700085BD85B5816085BD80916E00816080935D
:101180006E001092810080918100826080938100C6
:1011900080918100816080938100809180008160D6
:1011A000809380008091B10084608093B100809131
:1011B000B00081608093B00080917A008460809359
:1011C0007A0080917A00826080937A0080917A0020
:1011D000816080937A0080917A00806880937A00A1
:1011E0001092C100E0919C02F0919D0282E0808308
:1011F000E0919802F09199021082E0919A02F091A8
:101200009B028FEC80831092A402E091A002F091E7
:10121000A10286E08083E0919E02F0919F0280818E
:1012200080618083E0919E02F0919F0280818860BE
:101230008083E0919E02F0919F028081806880838C
:10124000E0919E02F0919F0280818F7D808360EF0C
:1012500071E08CE892E00E94F9038AE796E09093AF
:101260002E0380932D038BE293E06C01990FEE081F
:10127000FF088091330390913403DC01ED91FC91E0
:101280000190F081E02D60EC099500E010E0A701ED
:10129000960161E070E089E293E00E94CE0289E26B
:1012A00093E00E945502A0903103B0903203109257
:1012B00032031092310389E293E00E9453068C01BD
:1012C000892B09F45FC0F8014481558166817781DB
:1012D000809135034C155D056E057F05D1F588239A
:1012E00041F064E571E08091290390912A030E9406
:1012F000F903B0923203A092310364E072E08CE80B
:1013000092E00E94F90300E010E020E030E0A90143
:1013100064E070E089E293E00E94CE0289E293E00B
:101320000E94550289E293E00E9453068C01892BAA
:10133000A1F163E372E08CE892E00E940B04F801F3
:1013400044815581668177818CE892E00E94AD03EB
:1013500024C0882309F4AFCF66E172E080912903AD
:1013600090912A030E940B04D80114964D915D912F
:101370006D917C9117978091290390912A030E9487
:10138000AD0399CFB0923203A09231036CE172E0C9
:101390008CE892E00E94F9036CCF80E99FE19A8388
:1013A00089831B828AE792E0909381028093800276
:1013B0008DE094E0909383028093820210928502E4
:1013C0001092840203E010E020E832E0032E000CCB
:1013D000440B550B64E170E080917E0290917F0296
:1013E0000E94CE024CE050E061E472E080917E0207
:1013F00090917F020E946B0242E050E0BE016F5F5D
:101400007F4F80917E0290917F020E946B0241E0AB
:1014100050E0BE016D5F7F4F80917E0290917F0210
:101420000E946B0280917E0290917F020E94550281
:1014300080917E0290917F020E9453060097A1F056
:10144000DC0114964D915D916D917C91179777FD1C
:101450000BC040937A0250937B0260937C0270939E
:101460007D02E12CF12C03C0FC01E480F580E11445
:10147000F10461F06EE472E08CE892E00E940B04EB
:10148000B7018CE892E00E94C003FFCF62E672E0F1
:101490008CE892E00E94F90389E293E00E946904DB
:1014A0008091790281110E94B8060E944C01F4CF0C
:1014B000A1E21A2EAA1BBB1BFD010DC0AA1FBB1F58
:1014C000EE1FFF1FA217B307E407F50720F0A21BCA
:1014D000B30BE40BF50B661F771F881F991F1A9437
:1014E00069F760957095809590959B01AC01BD0161
:1014F000CF010895EE0FFF1F0590F491E02D0994A0
:1015000081E090E0F8940C948E0AFB01DC0102C0AB
:1015100001900D9241505040D8F70895F894FFCFB4
:1015200000000000E3005F00AC008A009E002A017A
:101530000D0A005245535420636F64652000454CEA
:10154000433A20676F742000204000454C433A2006
:10155000496E76616C696420435243005245535092
:101560005F563A2000524553505F43423A20004EA6
:101570004545445F53594E432100434D443F3F008E
:101580005749464920434F4E4E4543544544005722
:10159000494649204E4F542052454144593A200073
:1015A000474554002F6A736F6E2E68746D3F7479CF
:1015B00070653D636F6D6D616E6426706172616D03
:1015C0003D7377697463686C6967687426696478C9
:1015D0003D323926737769746368636D643D4F6E7D
:1015E0000041524455494E4F3A20474554207375A7
:1015F000636365737366756C3A0041524455494E96
:101600004F3A20474554206661696C65643A200072
:10161000454C2D436C69656E7420737461727469F6
:101620006E672100454C2D436C69656E742073799B
:101630006E63656421004241443A2000454C2D43CD
:101640006C69656E742073796E63206661696C6580
:1016500064210057696669207374617475733A2058
:10166000003139322E3136382E312E353500524583
:10167000535420626567696E206661696C65643ADF
:101680002000454C2D524553542072656164790009
:00000001FF
